{"abi":[{"type":"function","name":"acceptOwnership","inputs":[],"outputs":[],"stateMutability":"nonpayable"},{"type":"function","name":"aggregate","inputs":[{"name":"calls","type":"tuple[]","internalType":"struct Multicall3.Call[]","components":[{"name":"target","type":"address","internalType":"address"},{"name":"callData","type":"bytes","internalType":"bytes"}]}],"outputs":[{"name":"blockNumber","type":"uint256","internalType":"uint256"},{"name":"returnData","type":"bytes[]","internalType":"bytes[]"}],"stateMutability":"payable"},{"type":"function","name":"aggregate3","inputs":[{"name":"calls","type":"tuple[]","internalType":"struct Multicall3.Call3[]","components":[{"name":"target","type":"address","internalType":"address"},{"name":"allowFailure","type":"bool","internalType":"bool"},{"name":"callData","type":"bytes","internalType":"bytes"}]}],"outputs":[{"name":"returnData","type":"tuple[]","internalType":"struct Multicall3.Result[]","components":[{"name":"success","type":"bool","internalType":"bool"},{"name":"returnData","type":"bytes","internalType":"bytes"}]}],"stateMutability":"payable"},{"type":"function","name":"aggregate3Value","inputs":[{"name":"calls","type":"tuple[]","internalType":"struct Multicall3.Call3Value[]","components":[{"name":"target","type":"address","internalType":"address"},{"name":"allowFailure","type":"bool","internalType":"bool"},{"name":"value","type":"uint256","internalType":"uint256"},{"name":"callData","type":"bytes","internalType":"bytes"}]}],"outputs":[{"name":"returnData","type":"tuple[]","internalType":"struct Multicall3.Result[]","components":[{"name":"success","type":"bool","internalType":"bool"},{"name":"returnData","type":"bytes","internalType":"bytes"}]}],"stateMutability":"payable"},{"type":"function","name":"blockAndAggregate","inputs":[{"name":"calls","type":"tuple[]","internalType":"struct Multicall3.Call[]","components":[{"name":"target","type":"address","internalType":"address"},{"name":"callData","type":"bytes","internalType":"bytes"}]}],"outputs":[{"name":"blockNumber","type":"uint256","internalType":"uint256"},{"name":"blockHash","type":"bytes32","internalType":"bytes32"},{"name":"returnData","type":"tuple[]","internalType":"struct Multicall3.Result[]","components":[{"name":"success","type":"bool","internalType":"bool"},{"name":"returnData","type":"bytes","internalType":"bytes"}]}],"stateMutability":"payable"},{"type":"function","name":"createTripleFromNewAtoms","inputs":[{"name":"atomUris","type":"bytes[]","internalType":"bytes[]"},{"name":"values","type":"uint256[]","internalType":"uint256[]"}],"outputs":[{"name":"","type":"uint256","internalType":"uint256"}],"stateMutability":"payable"},{"type":"function","name":"createTripleWithNewAtom","inputs":[{"name":"atomUri","type":"bytes","internalType":"bytes"},{"name":"atomIds","type":"uint256[]","internalType":"uint256[]"},{"name":"values","type":"uint256[]","internalType":"uint256[]"}],"outputs":[{"name":"","type":"uint256","internalType":"uint256"}],"stateMutability":"payable"},{"type":"function","name":"ethMultiVault","inputs":[],"outputs":[{"name":"","type":"address","internalType":"contract IEthMultiVault"}],"stateMutability":"view"},{"type":"function","name":"getBasefee","inputs":[],"outputs":[{"name":"basefee","type":"uint256","internalType":"uint256"}],"stateMutability":"view"},{"type":"function","name":"getBlockHash","inputs":[{"name":"blockNumber","type":"uint256","internalType":"uint256"}],"outputs":[{"name":"blockHash","type":"bytes32","internalType":"bytes32"}],"stateMutability":"view"},{"type":"function","name":"getBlockNumber","inputs":[],"outputs":[{"name":"blockNumber","type":"uint256","internalType":"uint256"}],"stateMutability":"view"},{"type":"function","name":"getChainId","inputs":[],"outputs":[{"name":"chainid","type":"uint256","internalType":"uint256"}],"stateMutability":"view"},{"type":"function","name":"getCurrentBlockCoinbase","inputs":[],"outputs":[{"name":"coinbase","type":"address","internalType":"address"}],"stateMutability":"view"},{"type":"function","name":"getCurrentBlockGasLimit","inputs":[],"outputs":[{"name":"gaslimit","type":"uint256","internalType":"uint256"}],"stateMutability":"view"},{"type":"function","name":"getCurrentBlockPrevrandao","inputs":[],"outputs":[{"name":"prevrandao","type":"uint256","internalType":"uint256"}],"stateMutability":"view"},{"type":"function","name":"getCurrentBlockTimestamp","inputs":[],"outputs":[{"name":"timestamp","type":"uint256","internalType":"uint256"}],"stateMutability":"view"},{"type":"function","name":"getEthBalance","inputs":[{"name":"addr","type":"address","internalType":"address"}],"outputs":[{"name":"balance","type":"uint256","internalType":"uint256"}],"stateMutability":"view"},{"type":"function","name":"getLastBlockHash","inputs":[],"outputs":[{"name":"blockHash","type":"bytes32","internalType":"bytes32"}],"stateMutability":"view"},{"type":"function","name":"init","inputs":[{"name":"_ethMultiVault","type":"address","internalType":"contract IEthMultiVault"},{"name":"admin","type":"address","internalType":"address"}],"outputs":[],"stateMutability":"nonpayable"},{"type":"function","name":"owner","inputs":[],"outputs":[{"name":"","type":"address","internalType":"address"}],"stateMutability":"view"},{"type":"function","name":"pendingOwner","inputs":[],"outputs":[{"name":"","type":"address","internalType":"address"}],"stateMutability":"view"},{"type":"function","name":"renounceOwnership","inputs":[],"outputs":[],"stateMutability":"nonpayable"},{"type":"function","name":"setEthMultiVault","inputs":[{"name":"_ethMultiVault","type":"address","internalType":"contract IEthMultiVault"}],"outputs":[],"stateMutability":"nonpayable"},{"type":"function","name":"transferOwnership","inputs":[{"name":"newOwner","type":"address","internalType":"address"}],"outputs":[],"stateMutability":"nonpayable"},{"type":"function","name":"tryAggregate","inputs":[{"name":"requireSuccess","type":"bool","internalType":"bool"},{"name":"calls","type":"tuple[]","internalType":"struct Multicall3.Call[]","components":[{"name":"target","type":"address","internalType":"address"},{"name":"callData","type":"bytes","internalType":"bytes"}]}],"outputs":[{"name":"returnData","type":"tuple[]","internalType":"struct Multicall3.Result[]","components":[{"name":"success","type":"bool","internalType":"bool"},{"name":"returnData","type":"bytes","internalType":"bytes"}]}],"stateMutability":"payable"},{"type":"function","name":"tryBlockAndAggregate","inputs":[{"name":"requireSuccess","type":"bool","internalType":"bool"},{"name":"calls","type":"tuple[]","internalType":"struct Multicall3.Call[]","components":[{"name":"target","type":"address","internalType":"address"},{"name":"callData","type":"bytes","internalType":"bytes"}]}],"outputs":[{"name":"blockNumber","type":"uint256","internalType":"uint256"},{"name":"blockHash","type":"bytes32","internalType":"bytes32"},{"name":"returnData","type":"tuple[]","internalType":"struct Multicall3.Result[]","components":[{"name":"success","type":"bool","internalType":"bool"},{"name":"returnData","type":"bytes","internalType":"bytes"}]}],"stateMutability":"payable"},{"type":"event","name":"EthMultiVaultSet","inputs":[{"name":"ethMultiVault","type":"address","indexed":false,"internalType":"contract IEthMultiVault"}],"anonymous":false},{"type":"event","name":"Initialized","inputs":[{"name":"version","type":"uint64","indexed":false,"internalType":"uint64"}],"anonymous":false},{"type":"event","name":"OwnershipTransferStarted","inputs":[{"name":"previousOwner","type":"address","indexed":true,"internalType":"address"},{"name":"newOwner","type":"address","indexed":true,"internalType":"address"}],"anonymous":false},{"type":"event","name":"OwnershipTransferred","inputs":[{"name":"previousOwner","type":"address","indexed":true,"internalType":"address"},{"name":"newOwner","type":"address","indexed":true,"internalType":"address"}],"anonymous":false},{"type":"error","name":"CustomMulticall3_InsufficientValue","inputs":[]},{"type":"error","name":"CustomMulticall3_InvalidAtomIdsLength","inputs":[]},{"type":"error","name":"CustomMulticall3_InvalidAtomUrisLength","inputs":[]},{"type":"error","name":"CustomMulticall3_InvalidEthMultiVaultAddress","inputs":[]},{"type":"error","name":"CustomMulticall3_InvalidValue","inputs":[]},{"type":"error","name":"CustomMulticall3_InvalidValuesLength","inputs":[]},{"type":"error","name":"InvalidInitialization","inputs":[]},{"type":"error","name":"NotInitializing","inputs":[]},{"type":"error","name":"OwnableInvalidOwner","inputs":[{"name":"owner","type":"address","internalType":"address"}]},{"type":"error","name":"OwnableUnauthorizedAccount","inputs":[{"name":"account","type":"address","internalType":"address"}]}],"bytecode":{"object":"0x6080604052348015600e575f80fd5b50611b118061001c5f395ff3fe60806040526004361061017b575f3560e01c806382ad56cb116100cd578063c3077fa911610087578063ee82ac5e11610062578063ee82ac5e14610394578063f09a4016146103b2578063f2fde38b146103d1578063f8073c76146103f0575f80fd5b8063c3077fa91461035a578063d0f207961461036d578063e30c397814610380575f80fd5b806382ad56cb146102c557806383973999146102d857806386d516e8146102f75780638da5cb5b14610309578063a8b0574e14610335578063bce38bd714610347575f80fd5b8063399542e91161013857806342cbb15c1161011357806342cbb15c146102625780634d2301cc14610274578063715018a61461029b57806379ba5097146102b1575f80fd5b8063399542e91461021b5780633b4547f01461023d5780633e64a69614610250575f80fd5b80630ec6ce341461017f5780630f28c97d146101a0578063174dea71146101b2578063252dba42146101d257806327e86d6e146101f35780633408e47014610209575b5f80fd5b34801561018a575f80fd5b50445b6040519081526020015b60405180910390f35b3480156101ab575f80fd5b504261018d565b6101c56101c0366004611620565b61040e565b60405161019791906116f8565b6101e56101e0366004611620565b6105f2565b604051610197929190611711565b3480156101fe575f80fd5b50435f19014061018d565b348015610214575f80fd5b504661018d565b61022e61022936600461177b565b61075f565b604051610197939291906117cf565b61018d61024b3660046117f6565b61077a565b34801561025b575f80fd5b504861018d565b34801561026d575f80fd5b504361018d565b34801561027f575f80fd5b5061018d61028e3660046118c4565b6001600160a01b03163190565b3480156102a6575f80fd5b506102af610a97565b005b3480156102bc575f80fd5b506102af610aaa565b6101c56102d3366004611620565b610af2565b3480156102e3575f80fd5b506102af6102f23660046118c4565b610c6a565b348015610302575f80fd5b504561018d565b348015610314575f80fd5b5061031d610cec565b6040516001600160a01b039091168152602001610197565b348015610340575f80fd5b504161031d565b6101c561035536600461177b565b610d20565b61022e610368366004611620565b610eab565b61018d61037b3660046118df565b610ec9565b34801561038b575f80fd5b5061031d61129c565b34801561039f575f80fd5b5061018d6103ae366004611945565b4090565b3480156103bd575f80fd5b506102af6103cc36600461195c565b6112c4565b3480156103dc575f80fd5b506102af6103eb3660046118c4565b6113eb565b3480156103fb575f80fd5b505f5461031d906001600160a01b031681565b60605f82806001600160401b0381111561042a5761042a611993565b60405190808252806020026020018201604052801561046f57816020015b604080518082019091525f8152606060208201528152602001906001900390816104485790505b509250365f5b82811015610594575f858281518110610490576104906119a7565b602002602001015190508787838181106104ac576104ac6119a7565b90506020028101906104be91906119bb565b6040810135958601959093506104d760208501856118c4565b6001600160a01b0316816104ee60608701876119d9565b6040516104fc929190611a1b565b5f6040518083038185875af1925050503d805f8114610536576040519150601f19603f3d011682016040523d82523d5f602084013e61053b565b606091505b50602080850191909152901515808452908501351761058a5762461bcd60e51b5f526020600452601760245276135d5b1d1a58d85b1b0cce8818d85b1b0819985a5b1959604a1b60445260845ffd5b5050600101610475565b508234146105e95760405162461bcd60e51b815260206004820152601a60248201527f4d756c746963616c6c333a2076616c7565206d69736d6174636800000000000060448201526064015b60405180910390fd5b50505092915050565b43606082806001600160401b0381111561060e5761060e611993565b60405190808252806020026020018201604052801561064157816020015b606081526020019060019003908161062c5790505b509150365f5b82811015610755575f878783818110610662576106626119a7565b90506020028101906106749190611a2a565b925061068360208401846118c4565b6001600160a01b031661069960208501856119d9565b6040516106a7929190611a1b565b5f604051808303815f865af19150503d805f81146106e0576040519150601f19603f3d011682016040523d82523d5f602084013e6106e5565b606091505b508684815181106106f8576106f86119a7565b602090810291909101015290508061074c5760405162461bcd60e51b8152602060048201526017602482015276135d5b1d1a58d85b1b0cce8818d85b1b0819985a5b1959604a1b60448201526064016105e0565b50600101610647565b5050509250929050565b438040606061076f868686610d20565b905093509350939050565b5f6002841461079c57604051631426b48f60e11b815260040160405180910390fd5b600282146107bd57604051632f11c43760e21b815260040160405180910390fd5b5f805f9054906101000a90046001600160a01b03166001600160a01b03166333332d396040518163ffffffff1660e01b8152600401602060405180830381865afa15801561080d573d5f803e3d5ffd5b505050506040513d601f19601f820116820180604052508101906108319190611a3e565b90505f805f9054906101000a90046001600160a01b03166001600160a01b0316630d65c91c6040518163ffffffff1660e01b8152600401602060405180830381865afa158015610883573d5f803e3d5ffd5b505050506040513d601f19601f820116820180604052508101906108a79190611a3e565b9050346108b48284611a69565b11156108d3576040516319a2936160e21b815260040160405180910390fd5b8185855f8181106108e6576108e66119a7565b90506020020135108061091157508085856001818110610908576109086119a7565b90506020020135105b1561092f57604051636e3b3b2160e11b815260040160405180910390fd5b5f80546001600160a01b031663f10c9f9b87878481610950576109506119a7565b905060200201358c8c6040518463ffffffff1660e01b8152600401610976929190611a82565b60206040518083038185885af1158015610992573d5f803e3d5ffd5b50505050506040513d601f19601f820116820180604052508101906109b79190611a3e565b5f8054919250906001600160a01b03166339c4f49c888860018181106109df576109df6119a7565b905060200201358b8b5f8181106109f8576109f86119a7565b905060200201358c8c6001818110610a1257610a126119a7565b6040516001600160e01b031960e088901b16815260048101949094526020029190910135602483015250604481018690526064015b60206040518083038185885af1158015610a63573d5f803e3d5ffd5b50505050506040513d601f19601f82011682018060405250810190610a889190611a3e565b9b9a5050505050505050505050565b610a9f611470565b610aa85f6114a2565b565b3380610ab461129c565b6001600160a01b031614610ae65760405163118cdaa760e01b81526001600160a01b03821660048201526024016105e0565b610aef816114a2565b50565b606081806001600160401b03811115610b0d57610b0d611993565b604051908082528060200260200182016040528015610b5257816020015b604080518082019091525f815260606020820152815260200190600190039081610b2b5790505b509150365f5b828110156105e9575f848281518110610b7357610b736119a7565b60200260200101519050868683818110610b8f57610b8f6119a7565b9050602002810190610ba19190611ab0565b9250610bb060208401846118c4565b6001600160a01b0316610bc660408501856119d9565b604051610bd4929190611a1b565b5f604051808303815f865af19150503d805f8114610c0d576040519150601f19603f3d011682016040523d82523d5f602084013e610c12565b606091505b506020808401919091529015158083529084013517610c615762461bcd60e51b5f526020600452601760245276135d5b1d1a58d85b1b0cce8818d85b1b0819985a5b1959604a1b60445260645ffd5b50600101610b58565b610c72611470565b6001600160a01b038116610c995760405163aa0e955760e01b815260040160405180910390fd5b5f80546001600160a01b0319166001600160a01b0383169081179091556040519081527f8dbd3497082b49eafea928735590bd7c85a190bf802a5607d07443e4f0a94bfa9060200160405180910390a150565b5f807f9016d09d72d40fdae2fd8ceac6b6234c7706214fd39c1cd1e609a0528c1993005b546001600160a01b031692915050565b606081806001600160401b03811115610d3b57610d3b611993565b604051908082528060200260200182016040528015610d8057816020015b604080518082019091525f815260606020820152815260200190600190039081610d595790505b509150365f5b82811015610ea1575f848281518110610da157610da16119a7565b60200260200101519050868683818110610dbd57610dbd6119a7565b9050602002810190610dcf9190611a2a565b9250610dde60208401846118c4565b6001600160a01b0316610df460208501856119d9565b604051610e02929190611a1b565b5f604051808303815f865af19150503d805f8114610e3b576040519150601f19603f3d011682016040523d82523d5f602084013e610e40565b606091505b506020830152151581528715610e98578051610e985760405162461bcd60e51b8152602060048201526017602482015276135d5b1d1a58d85b1b0cce8818d85b1b0819985a5b1959604a1b60448201526064016105e0565b50600101610d86565b5050509392505050565b5f806060610ebb6001868661075f565b919790965090945092505050565b5f60038414610eeb57604051631011d15560e31b815260040160405180910390fd5b60048214610f0c57604051632f11c43760e21b815260040160405180910390fd5b5f805f9054906101000a90046001600160a01b03166001600160a01b03166333332d396040518163ffffffff1660e01b8152600401602060405180830381865afa158015610f5c573d5f803e3d5ffd5b505050506040513d601f19601f82011682018060405250810190610f809190611a3e565b9050845f610f8e8284611ac4565b90505f805f9054906101000a90046001600160a01b03166001600160a01b0316630d65c91c6040518163ffffffff1660e01b8152600401602060405180830381865afa158015610fe0573d5f803e3d5ffd5b505050506040513d601f19601f820116820180604052508101906110049190611a3e565b9050346110118284611a69565b1115611030576040516319a2936160e21b815260040160405180910390fd5b8387875f818110611043576110436119a7565b90506020020135108061106e57508387876001818110611065576110656119a7565b90506020020135105b8061109157508387876002818110611088576110886119a7565b90506020020135105b806110b4575080878760038181106110ab576110ab6119a7565b90506020020135105b156110d257604051636e3b3b2160e11b815260040160405180910390fd5b5f836001600160401b038111156110eb576110eb611993565b604051908082528060200260200182016040528015611114578160200160208202803683370190505b5090505f5b848110156111f1575f546001600160a01b031663f10c9f9b8a8a84818110611143576111436119a7565b905060200201358d8d8581811061115c5761115c6119a7565b905060200281019061116e91906119d9565b6040518463ffffffff1660e01b815260040161118b929190611a82565b60206040518083038185885af11580156111a7573d5f803e3d5ffd5b50505050506040513d601f19601f820116820180604052508101906111cc9190611a3e565b8282815181106111de576111de6119a7565b6020908102919091010152600101611119565b505f80546001600160a01b03166339c4f49c8a8a6003818110611216576112166119a7565b90506020020135845f8151811061122f5761122f6119a7565b60200260200101518560018151811061124a5761124a6119a7565b602002602001015186600281518110611265576112656119a7565b60200260200101516040518563ffffffff1660e01b8152600401610a47939291909283526020830191909152604082015260600190565b5f807f237e158222e3e6968b72b9db0d8043aacf074ad9f650f0d1606b4d82ee432c00610d10565b7ff0c57e16840df040f15088dc2f81fe391c3923bec73e23a9662efc9c229c6a008054600160401b810460ff1615906001600160401b03165f811580156113085750825b90505f826001600160401b031660011480156113235750303b155b905081158015611331575080155b1561134f5760405163f92ee8a960e01b815260040160405180910390fd5b845467ffffffffffffffff19166001178555831561137957845460ff60401b1916600160401b1785555b611382866114de565b5f80546001600160a01b0319166001600160a01b03891617905583156113e257845460ff60401b19168555604051600181527fc7f505b2f371ae2175ee4913f4499e1f2633a7b5936321eed1cdaeb6115181d29060200160405180910390a15b50505050505050565b6113f3611470565b7f237e158222e3e6968b72b9db0d8043aacf074ad9f650f0d1606b4d82ee432c0080546001600160a01b0319166001600160a01b0383169081178255611437610cec565b6001600160a01b03167f38d16b8cac22d99fc7c124b9cd0de2d3fa1faef420bfe791d8c362d765e2270060405160405180910390a35050565b33611479610cec565b6001600160a01b031614610aa85760405163118cdaa760e01b81523360048201526024016105e0565b7f237e158222e3e6968b72b9db0d8043aacf074ad9f650f0d1606b4d82ee432c0080546001600160a01b03191681556114da826114ef565b5050565b6114e661155f565b610aef816115a8565b7f9016d09d72d40fdae2fd8ceac6b6234c7706214fd39c1cd1e609a0528c19930080546001600160a01b031981166001600160a01b03848116918217845560405192169182907f8be0079c531659141344cd1fd0a4f28419497f9722a3daafe3b4186f6b6457e0905f90a3505050565b7ff0c57e16840df040f15088dc2f81fe391c3923bec73e23a9662efc9c229c6a0054600160401b900460ff16610aa857604051631afcd79f60e31b815260040160405180910390fd5b6115b061155f565b6001600160a01b038116610ae657604051631e4fbdf760e01b81525f60048201526024016105e0565b5f8083601f8401126115e9575f80fd5b5081356001600160401b038111156115ff575f80fd5b6020830191508360208260051b8501011115611619575f80fd5b9250929050565b5f8060208385031215611631575f80fd5b82356001600160401b03811115611646575f80fd5b611652858286016115d9565b90969095509350505050565b5f81518084528060208401602086015e5f602082860101526020601f19601f83011685010191505092915050565b5f82825180855260208086019550808260051b8401018186015f5b848110156116eb57858303601f19018952815180511515845284015160408585018190526116d78186018361165e565b9a86019a94505050908301906001016116a7565b5090979650505050505050565b602081525f61170a602083018461168c565b9392505050565b5f6040820184835260206040602085015281855180845260608601915060608160051b8701019350602087015f5b8281101561176d57605f1988870301845261175b86835161165e565b9550928401929084019060010161173f565b509398975050505050505050565b5f805f6040848603121561178d575f80fd5b8335801515811461179c575f80fd5b925060208401356001600160401b038111156117b6575f80fd5b6117c2868287016115d9565b9497909650939450505050565b838152826020820152606060408201525f6117ed606083018461168c565b95945050505050565b5f805f805f806060878903121561180b575f80fd5b86356001600160401b0380821115611821575f80fd5b818901915089601f830112611834575f80fd5b813581811115611842575f80fd5b8a6020828501011115611853575f80fd5b60209283019850965090880135908082111561186d575f80fd5b6118798a838b016115d9565b90965094506040890135915080821115611891575f80fd5b5061189e89828a016115d9565b979a9699509497509295939492505050565b6001600160a01b0381168114610aef575f80fd5b5f602082840312156118d4575f80fd5b813561170a816118b0565b5f805f80604085870312156118f2575f80fd5b84356001600160401b0380821115611908575f80fd5b611914888389016115d9565b9096509450602087013591508082111561192c575f80fd5b50611939878288016115d9565b95989497509550505050565b5f60208284031215611955575f80fd5b5035919050565b5f806040838503121561196d575f80fd5b8235611978816118b0565b91506020830135611988816118b0565b809150509250929050565b634e487b7160e01b5f52604160045260245ffd5b634e487b7160e01b5f52603260045260245ffd5b5f8235607e198336030181126119cf575f80fd5b9190910192915050565b5f808335601e198436030181126119ee575f80fd5b8301803591506001600160401b03821115611a07575f80fd5b602001915036819003821315611619575f80fd5b818382375f9101908152919050565b5f8235603e198336030181126119cf575f80fd5b5f60208284031215611a4e575f80fd5b5051919050565b634e487b7160e01b5f52601160045260245ffd5b80820180821115611a7c57611a7c611a55565b92915050565b60208152816020820152818360408301375f818301604090810191909152601f909201601f19160101919050565b5f8235605e198336030181126119cf575f80fd5b8082028115828204841417611a7c57611a7c611a5556fea2646970667358221220b5b3ff2d704ae6d448e1a12f2a8ba2577ece45a8ef0a6c352c5712870f56ad7864736f6c63430008190033","linkReferences":{}},"methodIdentifiers":{"acceptOwnership()":"79ba5097","aggregate((address,bytes)[])":"252dba42","aggregate3((address,bool,bytes)[])":"82ad56cb","aggregate3Value((address,bool,uint256,bytes)[])":"174dea71","blockAndAggregate((address,bytes)[])":"c3077fa9","createTripleFromNewAtoms(bytes[],uint256[])":"d0f20796","createTripleWithNewAtom(bytes,uint256[],uint256[])":"3b4547f0","ethMultiVault()":"f8073c76","getBasefee()":"3e64a696","getBlockHash(uint256)":"ee82ac5e","getBlockNumber()":"42cbb15c","getChainId()":"3408e470","getCurrentBlockCoinbase()":"a8b0574e","getCurrentBlockGasLimit()":"86d516e8","getCurrentBlockPrevrandao()":"0ec6ce34","getCurrentBlockTimestamp()":"0f28c97d","getEthBalance(address)":"4d2301cc","getLastBlockHash()":"27e86d6e","init(address,address)":"f09a4016","owner()":"8da5cb5b","pendingOwner()":"e30c3978","renounceOwnership()":"715018a6","setEthMultiVault(address)":"83973999","transferOwnership(address)":"f2fde38b","tryAggregate(bool,(address,bytes)[])":"bce38bd7","tryBlockAndAggregate(bool,(address,bytes)[])":"399542e9"},"storageLayout":{"storage":[{"astId":57500,"contract":"src/utils/CustomMulticall3.sol:CustomMulticall3","label":"ethMultiVault","offset":0,"slot":"0","type":"t_contract(IEthMultiVault)55993"}],"types":{"t_contract(IEthMultiVault)55993":{"encoding":"inplace","label":"contract IEthMultiVault","numberOfBytes":"20"}}},"id":69}