{"abi":[{"type":"fallback","stateMutability":"payable"},{"type":"receive","stateMutability":"payable"},{"type":"function","name":"SET_ADMIN","inputs":[],"outputs":[{"name":"","type":"bytes32","internalType":"bytes32"}],"stateMutability":"view"},{"type":"function","name":"SET_EXIT_FEE","inputs":[],"outputs":[{"name":"","type":"bytes32","internalType":"bytes32"}],"stateMutability":"view"},{"type":"function","name":"approvals","inputs":[{"name":"receiver","type":"address","internalType":"address"},{"name":"sender","type":"address","internalType":"address"}],"outputs":[{"name":"isApproved","type":"bool","internalType":"bool"}],"stateMutability":"view"},{"type":"function","name":"approveSender","inputs":[{"name":"sender","type":"address","internalType":"address"}],"outputs":[],"stateMutability":"nonpayable"},{"type":"function","name":"atomConfig","inputs":[],"outputs":[{"name":"atomWalletInitialDepositAmount","type":"uint256","internalType":"uint256"},{"name":"atomCreationProtocolFee","type":"uint256","internalType":"uint256"}],"stateMutability":"view"},{"type":"function","name":"atomDepositFractionAmount","inputs":[{"name":"assets","type":"uint256","internalType":"uint256"},{"name":"id","type":"uint256","internalType":"uint256"}],"outputs":[{"name":"","type":"uint256","internalType":"uint256"}],"stateMutability":"view"},{"type":"function","name":"atoms","inputs":[{"name":"atomId","type":"uint256","internalType":"uint256"}],"outputs":[{"name":"atomData","type":"bytes","internalType":"bytes"}],"stateMutability":"view"},{"type":"function","name":"atomsByHash","inputs":[{"name":"atomHash","type":"bytes32","internalType":"bytes32"}],"outputs":[{"name":"atomId","type":"uint256","internalType":"uint256"}],"stateMutability":"view"},{"type":"function","name":"batchCreateAtom","inputs":[{"name":"atomUris","type":"bytes[]","internalType":"bytes[]"}],"outputs":[{"name":"","type":"uint256[]","internalType":"uint256[]"}],"stateMutability":"payable"},{"type":"function","name":"batchCreateTriple","inputs":[{"name":"subjectIds","type":"uint256[]","internalType":"uint256[]"},{"name":"predicateIds","type":"uint256[]","internalType":"uint256[]"},{"name":"objectIds","type":"uint256[]","internalType":"uint256[]"}],"outputs":[{"name":"","type":"uint256[]","internalType":"uint256[]"}],"stateMutability":"payable"},{"type":"function","name":"cancelOperation","inputs":[{"name":"operationId","type":"bytes32","internalType":"bytes32"},{"name":"data","type":"bytes","internalType":"bytes"}],"outputs":[],"stateMutability":"nonpayable"},{"type":"function","name":"computeAtomWalletAddr","inputs":[{"name":"id","type":"uint256","internalType":"uint256"}],"outputs":[{"name":"","type":"address","internalType":"address"}],"stateMutability":"view"},{"type":"function","name":"convertToAssets","inputs":[{"name":"shares","type":"uint256","internalType":"uint256"},{"name":"id","type":"uint256","internalType":"uint256"}],"outputs":[{"name":"","type":"uint256","internalType":"uint256"}],"stateMutability":"view"},{"type":"function","name":"convertToShares","inputs":[{"name":"assets","type":"uint256","internalType":"uint256"},{"name":"id","type":"uint256","internalType":"uint256"}],"outputs":[{"name":"","type":"uint256","internalType":"uint256"}],"stateMutability":"view"},{"type":"function","name":"count","inputs":[],"outputs":[{"name":"","type":"uint256","internalType":"uint256"}],"stateMutability":"view"},{"type":"function","name":"createAtom","inputs":[{"name":"atomUri","type":"bytes","internalType":"bytes"}],"outputs":[{"name":"","type":"uint256","internalType":"uint256"}],"stateMutability":"payable"},{"type":"function","name":"createTriple","inputs":[{"name":"subjectId","type":"uint256","internalType":"uint256"},{"name":"predicateId","type":"uint256","internalType":"uint256"},{"name":"objectId","type":"uint256","internalType":"uint256"}],"outputs":[{"name":"","type":"uint256","internalType":"uint256"}],"stateMutability":"payable"},{"type":"function","name":"currentSharePrice","inputs":[{"name":"id","type":"uint256","internalType":"uint256"}],"outputs":[{"name":"","type":"uint256","internalType":"uint256"}],"stateMutability":"view"},{"type":"function","name":"deployAtomWallet","inputs":[{"name":"atomId","type":"uint256","internalType":"uint256"}],"outputs":[{"name":"","type":"address","internalType":"address"}],"stateMutability":"nonpayable"},{"type":"function","name":"depositAtom","inputs":[{"name":"receiver","type":"address","internalType":"address"},{"name":"id","type":"uint256","internalType":"uint256"}],"outputs":[{"name":"","type":"uint256","internalType":"uint256"}],"stateMutability":"payable"},{"type":"function","name":"depositTriple","inputs":[{"name":"receiver","type":"address","internalType":"address"},{"name":"id","type":"uint256","internalType":"uint256"}],"outputs":[{"name":"","type":"uint256","internalType":"uint256"}],"stateMutability":"payable"},{"type":"function","name":"entryFeeAmount","inputs":[{"name":"assets","type":"uint256","internalType":"uint256"},{"name":"id","type":"uint256","internalType":"uint256"}],"outputs":[{"name":"","type":"uint256","internalType":"uint256"}],"stateMutability":"view"},{"type":"function","name":"exitFeeAmount","inputs":[{"name":"assets","type":"uint256","internalType":"uint256"},{"name":"id","type":"uint256","internalType":"uint256"}],"outputs":[{"name":"","type":"uint256","internalType":"uint256"}],"stateMutability":"view"},{"type":"function","name":"generalConfig","inputs":[],"outputs":[{"name":"admin","type":"address","internalType":"address"},{"name":"protocolMultisig","type":"address","internalType":"address"},{"name":"feeDenominator","type":"uint256","internalType":"uint256"},{"name":"minDeposit","type":"uint256","internalType":"uint256"},{"name":"minShare","type":"uint256","internalType":"uint256"},{"name":"atomUriMaxLength","type":"uint256","internalType":"uint256"},{"name":"decimalPrecision","type":"uint256","internalType":"uint256"},{"name":"minDelay","type":"uint256","internalType":"uint256"}],"stateMutability":"view"},{"type":"function","name":"getAtomCost","inputs":[],"outputs":[{"name":"","type":"uint256","internalType":"uint256"}],"stateMutability":"view"},{"type":"function","name":"getAtomWarden","inputs":[],"outputs":[{"name":"","type":"address","internalType":"address"}],"stateMutability":"view"},{"type":"function","name":"getCounterIdFromTriple","inputs":[{"name":"id","type":"uint256","internalType":"uint256"}],"outputs":[{"name":"","type":"uint256","internalType":"uint256"}],"stateMutability":"pure"},{"type":"function","name":"getDepositFees","inputs":[{"name":"assets","type":"uint256","internalType":"uint256"},{"name":"id","type":"uint256","internalType":"uint256"}],"outputs":[{"name":"","type":"uint256","internalType":"uint256"}],"stateMutability":"view"},{"type":"function","name":"getDepositSharesAndFees","inputs":[{"name":"assets","type":"uint256","internalType":"uint256"},{"name":"id","type":"uint256","internalType":"uint256"}],"outputs":[{"name":"","type":"uint256","internalType":"uint256"},{"name":"","type":"uint256","internalType":"uint256"},{"name":"","type":"uint256","internalType":"uint256"},{"name":"","type":"uint256","internalType":"uint256"}],"stateMutability":"view"},{"type":"function","name":"getRedeemAssetsAndFees","inputs":[{"name":"shares","type":"uint256","internalType":"uint256"},{"name":"id","type":"uint256","internalType":"uint256"}],"outputs":[{"name":"","type":"uint256","internalType":"uint256"},{"name":"","type":"uint256","internalType":"uint256"},{"name":"","type":"uint256","internalType":"uint256"},{"name":"","type":"uint256","internalType":"uint256"}],"stateMutability":"view"},{"type":"function","name":"getTripleAtoms","inputs":[{"name":"id","type":"uint256","internalType":"uint256"}],"outputs":[{"name":"","type":"uint256","internalType":"uint256"},{"name":"","type":"uint256","internalType":"uint256"},{"name":"","type":"uint256","internalType":"uint256"}],"stateMutability":"view"},{"type":"function","name":"getTripleCost","inputs":[],"outputs":[{"name":"","type":"uint256","internalType":"uint256"}],"stateMutability":"view"},{"type":"function","name":"getVaultStateForUser","inputs":[{"name":"vaultId","type":"uint256","internalType":"uint256"},{"name":"receiver","type":"address","internalType":"address"}],"outputs":[{"name":"","type":"uint256","internalType":"uint256"},{"name":"","type":"uint256","internalType":"uint256"}],"stateMutability":"view"},{"type":"function","name":"init","inputs":[{"name":"_generalConfig","type":"tuple","internalType":"struct IEthMultiVault.GeneralConfig","components":[{"name":"admin","type":"address","internalType":"address"},{"name":"protocolMultisig","type":"address","internalType":"address"},{"name":"feeDenominator","type":"uint256","internalType":"uint256"},{"name":"minDeposit","type":"uint256","internalType":"uint256"},{"name":"minShare","type":"uint256","internalType":"uint256"},{"name":"atomUriMaxLength","type":"uint256","internalType":"uint256"},{"name":"decimalPrecision","type":"uint256","internalType":"uint256"},{"name":"minDelay","type":"uint256","internalType":"uint256"}]},{"name":"_atomConfig","type":"tuple","internalType":"struct IEthMultiVault.AtomConfig","components":[{"name":"atomWalletInitialDepositAmount","type":"uint256","internalType":"uint256"},{"name":"atomCreationProtocolFee","type":"uint256","internalType":"uint256"}]},{"name":"_tripleConfig","type":"tuple","internalType":"struct IEthMultiVault.TripleConfig","components":[{"name":"tripleCreationProtocolFee","type":"uint256","internalType":"uint256"},{"name":"atomDepositFractionOnTripleCreation","type":"uint256","internalType":"uint256"},{"name":"atomDepositFractionForTriple","type":"uint256","internalType":"uint256"}]},{"name":"_walletConfig","type":"tuple","internalType":"struct IEthMultiVault.WalletConfig","components":[{"name":"permit2","type":"address","internalType":"contract IPermit2"},{"name":"entryPoint","type":"address","internalType":"address"},{"name":"atomWarden","type":"address","internalType":"address"},{"name":"atomWalletBeacon","type":"address","internalType":"address"}]},{"name":"_defaultVaultFees","type":"tuple","internalType":"struct IEthMultiVault.VaultFees","components":[{"name":"entryFee","type":"uint256","internalType":"uint256"},{"name":"exitFee","type":"uint256","internalType":"uint256"},{"name":"protocolFee","type":"uint256","internalType":"uint256"}]}],"outputs":[],"stateMutability":"nonpayable"},{"type":"function","name":"isTriple","inputs":[{"name":"vaultId","type":"uint256","internalType":"uint256"}],"outputs":[{"name":"isTriple","type":"bool","internalType":"bool"}],"stateMutability":"view"},{"type":"function","name":"isTripleId","inputs":[{"name":"id","type":"uint256","internalType":"uint256"}],"outputs":[{"name":"","type":"bool","internalType":"bool"}],"stateMutability":"view"},{"type":"function","name":"maxDeposit","inputs":[],"outputs":[{"name":"","type":"uint256","internalType":"uint256"}],"stateMutability":"pure"},{"type":"function","name":"maxRedeem","inputs":[{"name":"sender","type":"address","internalType":"address"},{"name":"id","type":"uint256","internalType":"uint256"}],"outputs":[{"name":"","type":"uint256","internalType":"uint256"}],"stateMutability":"view"},{"type":"function","name":"pause","inputs":[],"outputs":[],"stateMutability":"nonpayable"},{"type":"function","name":"paused","inputs":[],"outputs":[{"name":"","type":"bool","internalType":"bool"}],"stateMutability":"view"},{"type":"function","name":"previewDeposit","inputs":[{"name":"assets","type":"uint256","internalType":"uint256"},{"name":"id","type":"uint256","internalType":"uint256"}],"outputs":[{"name":"","type":"uint256","internalType":"uint256"}],"stateMutability":"view"},{"type":"function","name":"previewRedeem","inputs":[{"name":"shares","type":"uint256","internalType":"uint256"},{"name":"id","type":"uint256","internalType":"uint256"}],"outputs":[{"name":"","type":"uint256","internalType":"uint256"}],"stateMutability":"view"},{"type":"function","name":"protocolFeeAmount","inputs":[{"name":"assets","type":"uint256","internalType":"uint256"},{"name":"id","type":"uint256","internalType":"uint256"}],"outputs":[{"name":"","type":"uint256","internalType":"uint256"}],"stateMutability":"view"},{"type":"function","name":"redeemAtom","inputs":[{"name":"shares","type":"uint256","internalType":"uint256"},{"name":"receiver","type":"address","internalType":"address"},{"name":"id","type":"uint256","internalType":"uint256"}],"outputs":[{"name":"","type":"uint256","internalType":"uint256"}],"stateMutability":"nonpayable"},{"type":"function","name":"redeemTriple","inputs":[{"name":"shares","type":"uint256","internalType":"uint256"},{"name":"receiver","type":"address","internalType":"address"},{"name":"id","type":"uint256","internalType":"uint256"}],"outputs":[{"name":"","type":"uint256","internalType":"uint256"}],"stateMutability":"nonpayable"},{"type":"function","name":"revokeSender","inputs":[{"name":"sender","type":"address","internalType":"address"}],"outputs":[],"stateMutability":"nonpayable"},{"type":"function","name":"scheduleOperation","inputs":[{"name":"operationId","type":"bytes32","internalType":"bytes32"},{"name":"data","type":"bytes","internalType":"bytes"}],"outputs":[],"stateMutability":"nonpayable"},{"type":"function","name":"setAdmin","inputs":[{"name":"admin","type":"address","internalType":"address"}],"outputs":[],"stateMutability":"nonpayable"},{"type":"function","name":"setAtomCreationProtocolFee","inputs":[{"name":"atomCreationProtocolFee","type":"uint256","internalType":"uint256"}],"outputs":[],"stateMutability":"nonpayable"},{"type":"function","name":"setAtomDepositFractionForTriple","inputs":[{"name":"atomDepositFractionForTriple","type":"uint256","internalType":"uint256"}],"outputs":[],"stateMutability":"nonpayable"},{"type":"function","name":"setAtomDepositFractionOnTripleCreation","inputs":[{"name":"atomDepositFractionOnTripleCreation","type":"uint256","internalType":"uint256"}],"outputs":[],"stateMutability":"nonpayable"},{"type":"function","name":"setAtomUriMaxLength","inputs":[{"name":"atomUriMaxLength","type":"uint256","internalType":"uint256"}],"outputs":[],"stateMutability":"nonpayable"},{"type":"function","name":"setAtomWalletInitialDepositAmount","inputs":[{"name":"atomWalletInitialDepositAmount","type":"uint256","internalType":"uint256"}],"outputs":[],"stateMutability":"nonpayable"},{"type":"function","name":"setAtomWarden","inputs":[{"name":"atomWarden","type":"address","internalType":"address"}],"outputs":[],"stateMutability":"nonpayable"},{"type":"function","name":"setEntryFee","inputs":[{"name":"id","type":"uint256","internalType":"uint256"},{"name":"entryFee","type":"uint256","internalType":"uint256"}],"outputs":[],"stateMutability":"nonpayable"},{"type":"function","name":"setExitFee","inputs":[{"name":"id","type":"uint256","internalType":"uint256"},{"name":"exitFee","type":"uint256","internalType":"uint256"}],"outputs":[],"stateMutability":"nonpayable"},{"type":"function","name":"setMinDeposit","inputs":[{"name":"minDeposit","type":"uint256","internalType":"uint256"}],"outputs":[],"stateMutability":"nonpayable"},{"type":"function","name":"setMinShare","inputs":[{"name":"minShare","type":"uint256","internalType":"uint256"}],"outputs":[],"stateMutability":"nonpayable"},{"type":"function","name":"setProtocolFee","inputs":[{"name":"id","type":"uint256","internalType":"uint256"},{"name":"protocolFee","type":"uint256","internalType":"uint256"}],"outputs":[],"stateMutability":"nonpayable"},{"type":"function","name":"setProtocolMultisig","inputs":[{"name":"protocolMultisig","type":"address","internalType":"address"}],"outputs":[],"stateMutability":"nonpayable"},{"type":"function","name":"setTripleCreationProtocolFee","inputs":[{"name":"tripleCreationProtocolFee","type":"uint256","internalType":"uint256"}],"outputs":[],"stateMutability":"nonpayable"},{"type":"function","name":"timelocks","inputs":[{"name":"operationHash","type":"bytes32","internalType":"bytes32"}],"outputs":[{"name":"data","type":"bytes","internalType":"bytes"},{"name":"readyTime","type":"uint256","internalType":"uint256"},{"name":"executed","type":"bool","internalType":"bool"}],"stateMutability":"view"},{"type":"function","name":"tripleConfig","inputs":[],"outputs":[{"name":"tripleCreationProtocolFee","type":"uint256","internalType":"uint256"},{"name":"atomDepositFractionOnTripleCreation","type":"uint256","internalType":"uint256"},{"name":"atomDepositFractionForTriple","type":"uint256","internalType":"uint256"}],"stateMutability":"view"},{"type":"function","name":"tripleHash","inputs":[{"name":"id","type":"uint256","internalType":"uint256"}],"outputs":[{"name":"","type":"bytes32","internalType":"bytes32"}],"stateMutability":"view"},{"type":"function","name":"tripleHashFromAtoms","inputs":[{"name":"subjectId","type":"uint256","internalType":"uint256"},{"name":"predicateId","type":"uint256","internalType":"uint256"},{"name":"objectId","type":"uint256","internalType":"uint256"}],"outputs":[{"name":"","type":"bytes32","internalType":"bytes32"}],"stateMutability":"pure"},{"type":"function","name":"triples","inputs":[{"name":"tripleId","type":"uint256","internalType":"uint256"},{"name":"","type":"uint256","internalType":"uint256"}],"outputs":[{"name":"tripleAtomIds","type":"uint256","internalType":"uint256"}],"stateMutability":"view"},{"type":"function","name":"triplesByHash","inputs":[{"name":"tripleHash","type":"bytes32","internalType":"bytes32"}],"outputs":[{"name":"tripleId","type":"uint256","internalType":"uint256"}],"stateMutability":"view"},{"type":"function","name":"unpause","inputs":[],"outputs":[],"stateMutability":"nonpayable"},{"type":"function","name":"vaultFees","inputs":[{"name":"vaultId","type":"uint256","internalType":"uint256"}],"outputs":[{"name":"entryFee","type":"uint256","internalType":"uint256"},{"name":"exitFee","type":"uint256","internalType":"uint256"},{"name":"protocolFee","type":"uint256","internalType":"uint256"}],"stateMutability":"view"},{"type":"function","name":"vaults","inputs":[{"name":"vaultId","type":"uint256","internalType":"uint256"}],"outputs":[{"name":"totalAssets","type":"uint256","internalType":"uint256"},{"name":"totalShares","type":"uint256","internalType":"uint256"}],"stateMutability":"view"},{"type":"function","name":"walletConfig","inputs":[],"outputs":[{"name":"permit2","type":"address","internalType":"contract IPermit2"},{"name":"entryPoint","type":"address","internalType":"address"},{"name":"atomWarden","type":"address","internalType":"address"},{"name":"atomWalletBeacon","type":"address","internalType":"address"}],"stateMutability":"view"},{"type":"event","name":"AdminSet","inputs":[{"name":"newAdmin","type":"address","indexed":true,"internalType":"address"},{"name":"oldAdmin","type":"address","indexed":true,"internalType":"address"}],"anonymous":false},{"type":"event","name":"AtomCreated","inputs":[{"name":"creator","type":"address","indexed":true,"internalType":"address"},{"name":"atomWallet","type":"address","indexed":true,"internalType":"address"},{"name":"atomData","type":"bytes","indexed":false,"internalType":"bytes"},{"name":"vaultID","type":"uint256","indexed":false,"internalType":"uint256"}],"anonymous":false},{"type":"event","name":"AtomCreationProtocolFeeSet","inputs":[{"name":"newAtomCreationProtocolFee","type":"uint256","indexed":false,"internalType":"uint256"},{"name":"oldAtomCreationProtocolFee","type":"uint256","indexed":false,"internalType":"uint256"}],"anonymous":false},{"type":"event","name":"AtomDepositFractionForTripleSet","inputs":[{"name":"newAtomDepositFractionForTriple","type":"uint256","indexed":false,"internalType":"uint256"},{"name":"oldAtomDepositFractionForTriple","type":"uint256","indexed":false,"internalType":"uint256"}],"anonymous":false},{"type":"event","name":"AtomDepositFractionOnTripleCreationSet","inputs":[{"name":"newAtomDepositFractionOnTripleCreation","type":"uint256","indexed":false,"internalType":"uint256"},{"name":"oldAtomDepositFractionOnTripleCreation","type":"uint256","indexed":false,"internalType":"uint256"}],"anonymous":false},{"type":"event","name":"AtomUriMaxLengthSet","inputs":[{"name":"newAtomUriMaxLength","type":"uint256","indexed":false,"internalType":"uint256"},{"name":"oldAtomUriMaxLength","type":"uint256","indexed":false,"internalType":"uint256"}],"anonymous":false},{"type":"event","name":"AtomWalletDeployed","inputs":[{"name":"vaultId","type":"uint256","indexed":true,"internalType":"uint256"},{"name":"atomWallet","type":"address","indexed":true,"internalType":"address"}],"anonymous":false},{"type":"event","name":"AtomWalletInitialDepositAmountSet","inputs":[{"name":"newAtomWalletInitialDepositAmount","type":"uint256","indexed":false,"internalType":"uint256"},{"name":"oldAtomWalletInitialDepositAmount","type":"uint256","indexed":false,"internalType":"uint256"}],"anonymous":false},{"type":"event","name":"AtomWardenSet","inputs":[{"name":"newAtomWarden","type":"address","indexed":true,"internalType":"address"},{"name":"oldAtomWarden","type":"address","indexed":true,"internalType":"address"}],"anonymous":false},{"type":"event","name":"Deposited","inputs":[{"name":"sender","type":"address","indexed":true,"internalType":"address"},{"name":"receiver","type":"address","indexed":true,"internalType":"address"},{"name":"receiverTotalSharesInVault","type":"uint256","indexed":false,"internalType":"uint256"},{"name":"senderAssetsAfterTotalFees","type":"uint256","indexed":false,"internalType":"uint256"},{"name":"sharesForReceiver","type":"uint256","indexed":false,"internalType":"uint256"},{"name":"entryFee","type":"uint256","indexed":false,"internalType":"uint256"},{"name":"vaultId","type":"uint256","indexed":false,"internalType":"uint256"},{"name":"isTriple","type":"bool","indexed":false,"internalType":"bool"},{"name":"isAtomWallet","type":"bool","indexed":false,"internalType":"bool"}],"anonymous":false},{"type":"event","name":"EntryFeeSet","inputs":[{"name":"id","type":"uint256","indexed":false,"internalType":"uint256"},{"name":"newEntryFee","type":"uint256","indexed":false,"internalType":"uint256"},{"name":"oldEntryFee","type":"uint256","indexed":false,"internalType":"uint256"}],"anonymous":false},{"type":"event","name":"ExitFeeSet","inputs":[{"name":"id","type":"uint256","indexed":false,"internalType":"uint256"},{"name":"newExitFee","type":"uint256","indexed":false,"internalType":"uint256"},{"name":"oldExitFee","type":"uint256","indexed":false,"internalType":"uint256"}],"anonymous":false},{"type":"event","name":"FeesTransferred","inputs":[{"name":"sender","type":"address","indexed":true,"internalType":"address"},{"name":"protocolMultisig","type":"address","indexed":true,"internalType":"address"},{"name":"amount","type":"uint256","indexed":false,"internalType":"uint256"}],"anonymous":false},{"type":"event","name":"Initialized","inputs":[{"name":"version","type":"uint64","indexed":false,"internalType":"uint64"}],"anonymous":false},{"type":"event","name":"MinDepositSet","inputs":[{"name":"newMinDeposit","type":"uint256","indexed":false,"internalType":"uint256"},{"name":"oldMinDeposit","type":"uint256","indexed":false,"internalType":"uint256"}],"anonymous":false},{"type":"event","name":"MinShareSet","inputs":[{"name":"newMinShare","type":"uint256","indexed":false,"internalType":"uint256"},{"name":"oldMinShare","type":"uint256","indexed":false,"internalType":"uint256"}],"anonymous":false},{"type":"event","name":"OperationCancelled","inputs":[{"name":"operationId","type":"bytes32","indexed":true,"internalType":"bytes32"},{"name":"data","type":"bytes","indexed":false,"internalType":"bytes"}],"anonymous":false},{"type":"event","name":"OperationScheduled","inputs":[{"name":"operationId","type":"bytes32","indexed":true,"internalType":"bytes32"},{"name":"data","type":"bytes","indexed":false,"internalType":"bytes"},{"name":"readyTime","type":"uint256","indexed":false,"internalType":"uint256"}],"anonymous":false},{"type":"event","name":"Paused","inputs":[{"name":"account","type":"address","indexed":false,"internalType":"address"}],"anonymous":false},{"type":"event","name":"ProtocolFeeSet","inputs":[{"name":"id","type":"uint256","indexed":false,"internalType":"uint256"},{"name":"newProtocolFee","type":"uint256","indexed":false,"internalType":"uint256"},{"name":"oldProtocolFee","type":"uint256","indexed":false,"internalType":"uint256"}],"anonymous":false},{"type":"event","name":"Redeemed","inputs":[{"name":"sender","type":"address","indexed":true,"internalType":"address"},{"name":"receiver","type":"address","indexed":true,"internalType":"address"},{"name":"senderTotalSharesInVault","type":"uint256","indexed":false,"internalType":"uint256"},{"name":"assetsForReceiver","type":"uint256","indexed":false,"internalType":"uint256"},{"name":"sharesRedeemedBySender","type":"uint256","indexed":false,"internalType":"uint256"},{"name":"exitFee","type":"uint256","indexed":false,"internalType":"uint256"},{"name":"vaultId","type":"uint256","indexed":false,"internalType":"uint256"}],"anonymous":false},{"type":"event","name":"SenderApproved","inputs":[{"name":"sender","type":"address","indexed":true,"internalType":"address"},{"name":"receiver","type":"address","indexed":true,"internalType":"address"},{"name":"approved","type":"bool","indexed":false,"internalType":"bool"}],"anonymous":false},{"type":"event","name":"SenderRevoked","inputs":[{"name":"sender","type":"address","indexed":true,"internalType":"address"},{"name":"receiver","type":"address","indexed":true,"internalType":"address"},{"name":"approved","type":"bool","indexed":false,"internalType":"bool"}],"anonymous":false},{"type":"event","name":"TripleCreated","inputs":[{"name":"creator","type":"address","indexed":true,"internalType":"address"},{"name":"subjectId","type":"uint256","indexed":false,"internalType":"uint256"},{"name":"predicateId","type":"uint256","indexed":false,"internalType":"uint256"},{"name":"objectId","type":"uint256","indexed":false,"internalType":"uint256"},{"name":"vaultID","type":"uint256","indexed":false,"internalType":"uint256"}],"anonymous":false},{"type":"event","name":"TripleCreationProtocolFeeSet","inputs":[{"name":"newTripleCreationProtocolFee","type":"uint256","indexed":false,"internalType":"uint256"},{"name":"oldTripleCreationProtocolFee","type":"uint256","indexed":false,"internalType":"uint256"}],"anonymous":false},{"type":"event","name":"Unpaused","inputs":[{"name":"account","type":"address","indexed":false,"internalType":"address"}],"anonymous":false},{"type":"event","name":"protocolMultisigSet","inputs":[{"name":"newProtocolMultisig","type":"address","indexed":true,"internalType":"address"},{"name":"oldProtocolMultisig","type":"address","indexed":true,"internalType":"address"}],"anonymous":false},{"type":"error","name":"EnforcedPause","inputs":[]},{"type":"error","name":"EthMultiVault_AdminOnly","inputs":[]},{"type":"error","name":"EthMultiVault_ArraysNotSameLength","inputs":[]},{"type":"error","name":"EthMultiVault_AtomDoesNotExist","inputs":[{"name":"atomId","type":"uint256","internalType":"uint256"}]},{"type":"error","name":"EthMultiVault_AtomExists","inputs":[{"name":"atomUri","type":"bytes","internalType":"bytes"}]},{"type":"error","name":"EthMultiVault_AtomUriTooLong","inputs":[]},{"type":"error","name":"EthMultiVault_BurnFromZeroAddress","inputs":[]},{"type":"error","name":"EthMultiVault_BurnInsufficientBalance","inputs":[]},{"type":"error","name":"EthMultiVault_CannotApproveSelf","inputs":[]},{"type":"error","name":"EthMultiVault_CannotRevokeSelf","inputs":[]},{"type":"error","name":"EthMultiVault_DeployAccountFailed","inputs":[]},{"type":"error","name":"EthMultiVault_DepositOrWithdrawZeroShares","inputs":[]},{"type":"error","name":"EthMultiVault_HasCounterStake","inputs":[]},{"type":"error","name":"EthMultiVault_InsufficientBalance","inputs":[]},{"type":"error","name":"EthMultiVault_InsufficientDepositAmountToCoverFees","inputs":[]},{"type":"error","name":"EthMultiVault_InsufficientRemainingSharesInVault","inputs":[{"name":"remainingShares","type":"uint256","internalType":"uint256"}]},{"type":"error","name":"EthMultiVault_InsufficientSharesInVault","inputs":[]},{"type":"error","name":"EthMultiVault_InvalidAtomDepositFractionForTriple","inputs":[]},{"type":"error","name":"EthMultiVault_InvalidEntryFee","inputs":[]},{"type":"error","name":"EthMultiVault_InvalidExitFee","inputs":[]},{"type":"error","name":"EthMultiVault_InvalidProtocolFee","inputs":[]},{"type":"error","name":"EthMultiVault_MinimumDeposit","inputs":[]},{"type":"error","name":"EthMultiVault_OperationAlreadyExecuted","inputs":[]},{"type":"error","name":"EthMultiVault_OperationAlreadyScheduled","inputs":[]},{"type":"error","name":"EthMultiVault_OperationNotScheduled","inputs":[]},{"type":"error","name":"EthMultiVault_ReceiveNotAllowed","inputs":[]},{"type":"error","name":"EthMultiVault_SenderAlreadyApproved","inputs":[]},{"type":"error","name":"EthMultiVault_SenderNotApproved","inputs":[]},{"type":"error","name":"EthMultiVault_TimelockNotExpired","inputs":[]},{"type":"error","name":"EthMultiVault_TransferFailed","inputs":[]},{"type":"error","name":"EthMultiVault_TripleExists","inputs":[{"name":"subjectId","type":"uint256","internalType":"uint256"},{"name":"predicateId","type":"uint256","internalType":"uint256"},{"name":"objectId","type":"uint256","internalType":"uint256"}]},{"type":"error","name":"EthMultiVault_VaultDoesNotExist","inputs":[]},{"type":"error","name":"EthMultiVault_VaultIsTriple","inputs":[{"name":"vaultId","type":"uint256","internalType":"uint256"}]},{"type":"error","name":"EthMultiVault_VaultNotAtom","inputs":[]},{"type":"error","name":"EthMultiVault_VaultNotTriple","inputs":[]},{"type":"error","name":"ExpectedPause","inputs":[]},{"type":"error","name":"InvalidInitialization","inputs":[]},{"type":"error","name":"NotInitializing","inputs":[]},{"type":"error","name":"ReentrancyGuardReentrantCall","inputs":[]}],"bytecode":{"object":"0x6080604052348015600e575f80fd5b506150988061001c5f395ff3fe608060405260043610610412575f3560e01c8063704b6c021161021d578063ab23856511610122578063d34ddc05116100aa578063e3b764af11610079578063e3b764af14610de5578063ee9dd98f14610e10578063f10c9f9b14610e2f578063f315a94e14610e42578063f903ff7214610e6e57610430565b8063d34ddc0514610d23578063db2088f414610d88578063dc5adb8c14610da7578063de3cca6014610dc657610430565b8063bbec4d06116100f1578063bbec4d0614610c6a578063c26388e314610c89578063c61703ac14610ca8578063c9ceddb814610cd6578063cfc15f1514610d0457610430565b8063ab23856514610bee578063ae0a154214610c0d578063b790e67214610c2c578063bb7dd37914610c4b57610430565b80638daf7443116101a55780639f49b60e116101745780639f49b60e14610b39578063a32ce11e14610b58578063a3bde6ac14610b91578063a4ddc78614610bb0578063ab20428214610bcf57610430565b80638daf744314610a515780638fcc9cfb14610a645780639085559214610a83578063927a97a114610ab657610430565b80638456cb59116101ec5780638456cb59146109bc57806384e100db146109d0578063859aa971146109ed5780638906525614610a005780638c64ea4a14610a1f57610430565b8063704b6c02146108fe5780637a7af70d1461091d5780637c3736611461093c5780637f833f041461098d57610430565b8063340a28121161032357806356d54d68116102ab57806361d2a6571161027a57806361d2a6571461086257806365f646851461088157806366e34a33146108a157806367ab7594146108c05780636cc18d40146108df57610430565b806356d54d68146107d657806359b125d2146107f55780635c975abb146108205780636083e59a1461084f57610430565b80633f4ba83a116102f25780633f4ba83a14610719578063441d1c2f1461072d5780634abe4137146107405780634d592c6a146107845780635408eec9146107b757610430565b8063340a2812146106a95780633800c5c4146106c857806339a38449146106e757806339c4f49c1461070657610430565b8063181e7b3b116103a6578063240de27711610375578063240de277146106195780632a22fec5146106385780632dbc4982146106575780632dd426441461067657806333332d391461069557610430565b8063181e7b3b146105635780631d35900a146105825780631e19e2c8146105c157806322061379146105df57610430565b80630cde801b116103e25780630cde801b146104d75780630d65c91c1461051157806311d39b6e1461052557806313aaab971461054457610430565b80621fc87d1461043a57806304c89bc61461045957806306661abd1461048b5780630ac819db146104a057610430565b366104305760405163809953b760e01b815260040160405180910390fd5b610438610e8d565b005b348015610445575f80fd5b5061043861045436600461410e565b610f1c565b348015610464575f80fd5b50610478610473366004614129565b610f96565b6040519081526020015b60405180910390f35b348015610496575f80fd5b5061047860115481565b3480156104ab575f80fd5b506104bf6104ba366004614149565b610fef565b6040516001600160a01b039091168152602001610482565b3480156104e2575f80fd5b506104f66104f1366004614149565b611066565b60408051938452602084019290925290820152606001610482565b34801561051c575f80fd5b50610478611112565b348015610530575f80fd5b5061043861053f36600461410e565b61113e565b34801561054f575f80fd5b5061047861055e366004614149565b611219565b34801561056e575f80fd5b5061047861057d366004614129565b611273565b34801561058d575f80fd5b506105a161059c366004614129565b6112b3565b604080519485526020850193909352918301526060820152608001610482565b3480156105cc575f80fd5b50600a54600b54600c546104f692919083565b3480156105ea575f80fd5b506104f66105f9366004614149565b60136020525f908152604090208054600182015460029092015490919083565b348015610624575f80fd5b50610438610633366004614129565b61137d565b348015610643575f80fd5b50610438610652366004614149565b61143a565b348015610662575f80fd5b50610438610671366004614149565b6114aa565b348015610681575f80fd5b50610438610690366004614149565b611512565b3480156106a0575f80fd5b5061047861157a565b3480156106b4575f80fd5b506104386106c3366004614149565b611593565b3480156106d3575f80fd5b506104786106e2366004614160565b6115fb565b3480156106f2575f80fd5b50610478610701366004614129565b6116ff565b610478610714366004614195565b611750565b348015610724575f80fd5b506104386117b7565b61047861073b3660046141be565b6117eb565b34801561074b575f80fd5b5061047861075a3660046141be565b5f9081526012602090815260408083206001600160a01b0394909416835260029093019052205490565b34801561078f575f80fd5b506104787f778822020b59638b22ca9362f2de4db01600920f59fc336582386847a4f2ec0a81565b3480156107c2575f80fd5b506104386107d1366004614129565b611917565b3480156107e1575f80fd5b506104386107f0366004614225565b6119c7565b348015610800575f80fd5b5061047861080f366004614149565b60186020525f908152604090205481565b34801561082b575f80fd5b505f805160206150238339815191525460ff165b6040519015158152602001610482565b34801561085a575f80fd5b505f19610478565b34801561086d575f80fd5b5061043861087c3660046143d4565b611b2e565b61089461088f3660046144ea565b611e20565b6040516104829190614528565b3480156108ac575f80fd5b5061083f6108bb366004614149565b611f6d565b3480156108cb575f80fd5b506105a16108da366004614129565b611fc2565b3480156108ea575f80fd5b506104386108f9366004614149565b612049565b348015610909575f80fd5b5061043861091836600461410e565b6120b1565b348015610928575f80fd5b50610478610937366004614129565b6121e6565b348015610947575f80fd5b50610478610956366004614195565b6040805160208082019590955280820193909352606080840192909252805180840390920182526080909201909152805191012090565b348015610998575f80fd5b506008546009546109a7919082565b60408051928352602083019190915201610482565b3480156109c7575f80fd5b506104386121fe565b3480156109db575f80fd5b50600f546001600160a01b03166104bf565b6104786109fb3660046141be565b612230565b348015610a0b575f80fd5b506109a7610a1a36600461455f565b612376565b348015610a2a575f80fd5b506109a7610a39366004614149565b60126020525f90815260409020805460019091015482565b610894610a5f36600461458d565b6123ba565b348015610a6f575f80fd5b50610438610a7e366004614149565b612567565b348015610a8e575f80fd5b506104787f7925972c66d280d08f7e7a6e3f3aae3eb40e786fe30284acf451c52bdc133abd81565b348015610ac1575f80fd5b505f54600154600254600354600454600554600654600754610af3976001600160a01b03908116971695949392919088565b604080516001600160a01b03998a168152989097166020890152958701949094526060860192909252608085015260a084015260c083015260e082015261010001610482565b348015610b44575f80fd5b50610438610b53366004614129565b6125cf565b348015610b63575f80fd5b5061083f610b7236600461461f565b601460209081525f928352604080842090915290825290205460ff1681565b348015610b9c575f80fd5b50610438610bab36600461410e565b61274f565b348015610bbb575f80fd5b50610478610bca366004614129565b6127c9565b348015610bda575f80fd5b50610438610be936600461410e565b61282e565b348015610bf9575f80fd5b50610438610c08366004614149565b6128f8565b348015610c18575f80fd5b50610478610c27366004614129565b6129a8565b348015610c37575f80fd5b50610478610c46366004614160565b6129f9565b348015610c56575f80fd5b50610478610c65366004614149565b612a28565b348015610c75575f80fd5b50610478610c84366004614129565b612a34565b348015610c94575f80fd5b50610478610ca3366004614129565b612a40565b348015610cb3575f80fd5b5061083f610cc2366004614149565b60196020525f908152604090205460ff1681565b348015610ce1575f80fd5b50610cf5610cf0366004614149565b612a6c565b60405161048293929190614679565b348015610d0f575f80fd5b50610478610d1e366004614129565b612b17565b348015610d2e575f80fd5b50600d54600e54600f54601054610d55936001600160a01b03908116938116928116911684565b604080516001600160a01b0395861681529385166020850152918416918301919091529091166060820152608001610482565b348015610d93575f80fd5b50610478610da2366004614129565b612b39565b348015610db2575f80fd5b506104bf610dc1366004614149565b612b6c565b348015610dd1575f80fd5b50610438610de0366004614225565b612c75565b348015610df0575f80fd5b50610478610dff366004614149565b60166020525f908152604090205481565b348015610e1b575f80fd5b50610478610e2a366004614149565b612e51565b610478610e3d3660046146a2565b612e9d565b348015610e4d575f80fd5b50610e61610e5c366004614149565b612f1e565b60405161048291906146d4565b348015610e79575f80fd5b50610438610e88366004614149565b612fb5565b36610e96573636f35b5f805b80368210610ea75750610f00565b60018083019260031981019035185f1a9081610ef0575f1985526002830193356002198401185f1a607f808211610edf578282013888395b16949094019093019250610e999050565b8185538085019450505050610e99565b505f38825f305af490503d5f803e80610f17573d5ffd5b503d5ff35b5f546001600160a01b03163314610f4657604051633e9e676560e01b815260040160405180910390fd5b600f80546001600160a01b038381166001600160a01b03198316811790935560405191169182917fd53213027f194983ff58afd27103ade64ffc4699fedc89070e233b509c28bb69905f90a35050565b5f8181526013602052604081205481610fe4858315610fb5578361301d565b5f805260136020527f8fa6efc3be94b5b348b21fea823fe8d100408cee9b7f90524494500445d8ff6c5461301d565b925050505b92915050565b5f8181610ffa61302f565b8051602091820120604080516001600160f81b0319818501523060601b6bffffffffffffffffffffffff19166021820152603581019590955260558086019290925280518086039092018252607590940190935282519201919091206001600160a01b03169392505050565b5f80808061107660025f196146fa565b851190505f81611092575f8681526017602052604090206110ae565b60175f6110a0885f19614719565b81526020019081526020015f205b604080516060810191829052919060039082845b8154815260200190600101908083116110c25750505050509050805f600381106110ee576110ee61472c565b60200201518160016020020151826002602002015194509450945050509193909250565b6004545f908190611124906002614740565b600b54600a546111349190614757565b610fe99190614757565b336001600160a01b038216810361116857604051635a8b601b60e11b815260040160405180910390fd5b6001600160a01b038082165f9081526014602090815260408083209386168352929052205460ff16156111ae57604051631efdc08160e21b815260040160405180910390fd5b6001600160a01b038181165f81815260146020908152604080832094871680845294825291829020805460ff1916600190811790915591519182527fef9acadd6be4f4062b83d9b078d2bea3d5885779b1708d88cb5ead30f6f4187691015b60405180910390a35050565b5f611222614038565b61122b83611066565b60408085018290526020808601849052848652815190810194909452830191909152606082015260800160405160208183030381529060405280519060200120915050919050565b5f818152601260205260408120600101548181156112aa575f848152601260205260409020546112a590869084613100565b610fe4565b50929392505050565b5f8181526012602052604081206001015481908190819081906112d7908890614719565b90505f6112e48888611273565b90505f806113005f805160206150238339815191525460ff1690565b1561130f57505f905080611352565b600454840361132b57505f611324838a6116ff565b9150611352565b611335838a6116ff565b91505f6113428385614719565b905061134e818b6129a8565b9150505b825f8361135f8484614719565b6113699190614719565b919c919b5092995090975095505050505050565b5f546001600160a01b031633146113a757604051633e9e676560e01b815260040160405180910390fd5b6002545f906113b890600a906146fa565b9050808211156113db576040516389f727a160e01b815260040160405180910390fd5b5f8381526013602090815260409182902060020180549085905582518681529182018590529181018290527f794fc7d26a1f9927841d938c882bd4d61bd9944b8d4cd935941a0a4fadae83eb906060015b60405180910390a150505050565b5f546001600160a01b0316331461146457604051633e9e676560e01b815260040160405180910390fd5b600480549082905560408051838152602081018390527f013f7aeadba325fef3561a999345eb28dcd20c5e0c314c0cc1f607617a402b6791015b60405180910390a15050565b5f546001600160a01b031633146114d457604051633e9e676560e01b815260040160405180910390fd5b600b80549082905560408051838152602081018390527f2c446cce1fa1c2e967e10febff20ea15553ba75d141dc798db5d72d49896f9be910161149e565b5f546001600160a01b0316331461153c57604051633e9e676560e01b815260040160405180910390fd5b600880549082905560408051838152602081018390527f0c2973e4045249aea680af8835125f58d851717c989d9eaab6a107b200e91444910161149e565b6004546008546009545f92839290916111349190614757565b5f546001600160a01b031633146115bd57604051633e9e676560e01b815260040160405180910390fd5b600580549082905560408051838152602081018390527fa803c1d3f9aae4868e6abb872bad038fef55901b341ccbffb2d81c6735f6aa46910161149e565b5f611604613124565b811580611612575060115482115b1561163057604051631290a58d60e01b815260040160405180910390fd5b61163982611f6d565b156116575760405163f3ece25560e01b815260040160405180910390fd5b5f806116658433878961315b565b915091505f856001600160a01b0316836040515f6040518083038185875af1925050503d805f81146116b2576040519150601f19603f3d011682016040523d82523d5f602084013e6116b7565b606091505b50509050806116d957604051635657c7b560e11b815260040160405180910390fd5b6116e28261332b565b505060015f805160206150438339815191525590505b9392505050565b5f8181526013602052604081206002015481610fe4858315611721578361301d565b5f805260136020527f8fa6efc3be94b5b348b21fea823fe8d100408cee9b7f90524494500445d8ff6e5461301d565b5f611759613124565b6117616133fa565b611769611112565b3410156117895760405163105d8d3b60e31b815260040160405180910390fd5b5f806117978686863461342a565b915091505f81600a5f01546117ac9190614757565b90506116e28161332b565b5f546001600160a01b031633146117e157604051633e9e676560e01b815260040160405180910390fd5b6117e961374d565b565b5f6117f4613124565b6117fc6133fa565b336001600160a01b0384161480159061183857506001600160a01b0383165f90815260146020908152604080832033845290915290205460ff16155b15611856576040516319f85ce160e01b815260040160405180910390fd5b811580611864575060115482115b1561188257604051631290a58d60e01b815260040160405180910390fd5b61188b82611f6d565b156118a95760405163f3ece25560e01b815260040160405180910390fd5b6003543410156118cc57604051637ee5dacf60e01b815260040160405180910390fd5b5f6118d734846116ff565b90505f6118e48234614719565b90505f6118f28686846137ac565b90506118fd8361332b565b92505050610fe960015f8051602061504383398151915255565b5f546001600160a01b0316331461194157604051633e9e676560e01b815260040160405180910390fd5b6002545f9061195290600a906146fa565b9050808211156119755760405163536188f160e11b815260040160405180910390fd5b5f8381526013602090815260409182902080549085905582518681529182018590529181018290527fd5d6967eec72b6ad8abfdc027dc25c6f77c3661ce7075e3ea7c89e47da14b9429060600161142c565b5f546001600160a01b031633146119f157604051633e9e676560e01b815260040160405180910390fd5b6007546040515f90611a0d90869086908690869060200161476a565b60408051601f1981840301815291815281516020928301205f818152601a90935291206001015490915015611a55576040516307723de960e01b815260040160405180910390fd5b5f611a608342614757565b6040805160806020601f890181900402820181019092526060810187815292935091829188908890819085018382808284375f92018290525093855250505060208083018590526040928301829052858252601a90522081518190611ac59082614809565b50602082015160018201556040918201516002909101805460ff19169115159190911790555186907fb9de9600d753b5619b03226f918d5da2f2e59ca71fe99366db4dc38b0127194b90611b1e908890889086906148ec565b60405180910390a2505050505050565b7ff0c57e16840df040f15088dc2f81fe391c3923bec73e23a9662efc9c229c6a008054600160401b810460ff1615906001600160401b03165f81158015611b725750825b90505f826001600160401b03166001148015611b8d5750303b155b905081158015611b9b575080155b15611bb95760405163f92ee8a960e01b815260040160405180910390fd5b845467ffffffffffffffff191660011785558315611be357845460ff60401b1916600160401b1785555b611beb6138f0565b611bf3613900565b895f80820151815f015f6101000a8154816001600160a01b0302191690836001600160a01b031602179055506020820151816001015f6101000a8154816001600160a01b0302191690836001600160a01b0316021790555060408201518160020155606082015181600301556080820151816004015560a0820151816005015560c0820151816006015560e082015181600701559050508860085f820151815f01556020820151816001015590505087600a5f820151815f0155602082015181600101556040820151816002015590505086600d5f820151815f015f6101000a8154816001600160a01b0302191690836001600160a01b031602179055506020820151816001015f6101000a8154816001600160a01b0302191690836001600160a01b031602179055506040820151816002015f6101000a8154816001600160a01b0302191690836001600160a01b031602179055506060820151816003015f6101000a8154816001600160a01b0302191690836001600160a01b031602179055509050506040518060600160405280875f0151815260200187602001518152602001876040015181525060135f8081526020019081526020015f205f820151815f015560208201518160010155604082015181600201559050508315611e1457845460ff60401b19168555604051600181527fc7f505b2f371ae2175ee4913f4499e1f2633a7b5936321eed1cdaeb6115181d29060200160405180910390a15b50505050505050505050565b6060611e2a613124565b611e326133fa565b8180611e3c61157a565b611e469190614740565b341015611e665760405163105d8d3b60e31b815260040160405180910390fd5b5f611e7182346146fa565b90505f80836001600160401b03811115611e8d57611e8d61426c565b604051908082528060200260200182016040528015611eb6578160200160208202803683370190505b5090505f5b84811015611f28575f611ef1898984818110611ed957611ed961472c565b9050602002810190611eeb919061490f565b87613910565b848481518110611f0357611f0361472c565b60209081029190910101919091529050611f1d8185614757565b935050600101611ebb565b505f8285600860010154611f3c9190614740565b611f469190614757565b9050611f518161332b565b509350505050610fe960015f8051602061504383398151915255565b5f80611f7b60025f196146fa565b8311905080611f9a575f8381526019602052604090205460ff166116f8565b60195f611fa8855f19614719565b815260208101919091526040015f205460ff169392505050565b5f805f805f611fd18787612a40565b90505f611fde8289614719565b90505f611feb838a614719565b6004545f8a815260126020526040812060010154929350910361200f57505f61201c565b612019838a610f96565b90505b5f6120278285614719565b90505f612034828c612b39565b939c939b509099509097509095505050505050565b5f546001600160a01b0316331461207357604051633e9e676560e01b815260040160405180910390fd5b600a80549082905560408051838152602081018390527fde300c3dd134b3fc23d65279865d550afbedd1b10ae1e99ded77996beec21365910161149e565b5f546001600160a01b031633146120db57604051633e9e676560e01b815260040160405180910390fd5b5f8054604080516001600160a01b038581166024808401919091528351808403909101815260449092018352602080830180516001600160e01b0316633825b60160e11b179052600754935191909416949193919261215f927f778822020b59638b22ca9362f2de4db01600920f59fc336582386847a4f2ec0a9286929101614968565b60405160208183030381529060405280519060200120905061218081613a79565b5f80546001600160a01b0319166001600160a01b038681169182178355838352601a6020526040808420600201805460ff1916600117905551908616927fbf265e8326285a2747e33e54d5945f7111f2b5edb826eb8c08d4677779b3ff9791a350505050565b5f806121f28484611fc2565b50909695505050505050565b5f546001600160a01b0316331461222857604051633e9e676560e01b815260040160405180910390fd5b6117e9613bae565b5f612239613124565b6122416133fa565b336001600160a01b0384161480159061227d57506001600160a01b0383165f90815260146020908152604080832033845290915290205460ff16155b1561229b576040516319f85ce160e01b815260040160405180910390fd5b6122a482611f6d565b6122c1576040516336e8c70d60e11b815260040160405180910390fd5b6122cb8284613bf6565b156122e957604051636060860f60e01b815260040160405180910390fd5b60035434101561230c57604051637ee5dacf60e01b815260040160405180910390fd5b5f61231734846116ff565b90505f6123248234614719565b90505f6123328686846137ac565b90505f61233f8387612a40565b9050801561235257612352868883613c67565b61235b8461332b565b5092505050610fe960015f8051602061504383398151915255565b5f8281526012602090815260408083206001600160a01b03851684526002019091528120548190816123a882876112b3565b509395509093505050505b9250929050565b60606123c4613124565b6123cc6133fa565b85841415806123db5750858214155b156123f957604051633e56678160e11b815260040160405180910390fd5b855f612403611112565b905061240f8282614740565b34101561242f5760405163105d8d3b60e31b815260040160405180910390fd5b5f61243a83346146fa565b90505f80846001600160401b038111156124565761245661426c565b60405190808252806020026020018201604052801561247f578160200160208202803683370190505b5090505f5b85811015612518575f6124e18e8e848181106124a2576124a261472c565b905060200201358d8d858181106124bb576124bb61472c565b905060200201358c8c868181106124d4576124d461472c565b905060200201358861342a565b8484815181106124f3576124f361472c565b6020908102919091010191909152905061250d8185614757565b935050600101612484565b505f8286600a5f015461252b9190614740565b6125359190614757565b90506125408161332b565b5094505050505061255d60015f8051602061504383398151915255565b9695505050505050565b5f546001600160a01b0316331461259157604051633e9e676560e01b815260040160405180910390fd5b600380549082905560408051838152602081018390527f91a5197bdd70e4b9e17ebdd91aab9f96b2a5a4cfb5010870b488963bd7a94d94910161149e565b5f546001600160a01b031633146125f957604051633e9e676560e01b815260040160405180910390fd5b6002545f9061260a90600a906146fa565b90508082111561262d576040516321bb382b60e21b815260040160405180910390fd5b5f838152601360209081526040808320600101548151602481018890526044808201889052835180830390910181526064909101835280840180516001600160e01b0316634fa4db0760e11b17905260075492519194909390926126b6927f7925972c66d280d08f7e7a6e3f3aae3eb40e786fe30284acf451c52bdc133abd9286929101614968565b6040516020818303038152906040528051906020012090506126d781613a79565b5f8681526013602090815260408083206001908101899055848452601a835292819020600201805460ff191690931790925581518881529081018790529081018490527f4b18f9bb7fa85d04f11845a1f27d6a74cab49c705a45615be6a9edeaa07204799060600160405180910390a1505050505050565b5f546001600160a01b0316331461277957604051633e9e676560e01b815260040160405180910390fd5b600180546001600160a01b038381166001600160a01b03198316811790935560405191169182917fcfd3ec1b0100c23c86d491922d7eb032152cd13c1a269fb3915c613d43491be5905f90a35050565b5f806127d584846116ff565b90505f6127e28286614719565b90505f6127ef8286612a40565b90505f6127fc8284614719565b90505f6128098288610f96565b90505f816128178588614757565b6128219190614757565b9998505050505050505050565b336001600160a01b0382168103612858576040516303820fb760e11b815260040160405180910390fd5b6001600160a01b038082165f9081526014602090815260408083209386168352929052205460ff1661289d576040516319f85ce160e01b815260040160405180910390fd5b6001600160a01b038181165f818152601460209081526040808320948716808452948252808320805460ff19169055519182527f0e2f197284f3641a5856dddbb024f79856a0ce1d508a804b5031c015006044e1910161120d565b5f546001600160a01b0316331461292257604051633e9e676560e01b815260040160405180910390fd5b6002545f90600a90612935906009614740565b61293f91906146fa565b90508082111561296257604051630e51859760e01b815260040160405180910390fd5b600c80549083905560408051848152602081018390527f786ba646d6cfef1e76a9301eadbdf74f55acf46b14bd30e20a61d805e0e8a9d5910160405180910390a1505050565b5f8181526013602052604081206001015481610fe48583156129ca578361301d565b5f805260136020527f8fa6efc3be94b5b348b21fea823fe8d100408cee9b7f90524494500445d8ff6d5461301d565b5f612a02613124565b612a0b82611f6d565b611657576040516336e8c70d60e11b815260040160405180910390fd5b5f610fe9825f19614719565b5f806121f284846112b3565b5f80612a4b83611f6d565b612a55575f612a64565b612a6484600a6002015461301d565b949350505050565b601a6020525f9081526040902080548190612a8690614785565b80601f0160208091040260200160405190810160405280929190818152602001828054612ab290614785565b8015612afd5780601f10612ad457610100808354040283529160200191612afd565b820191905f5260205f20905b815481529060010190602001808311612ae057829003601f168201915b50505050600183015460029093015491929160ff16905083565b6017602052815f5260405f208160038110612b30575f80fd5b01549150829050565b5f818152601260205260408120600101548181156112aa575f848152601260205260409020546112a59086908490613100565b5f612b756133fa565b811580612b83575060115482115b15612ba157604051631290a58d60e01b815260040160405180910390fd5b612baa82611f6d565b15612bc85760405163f3ece25560e01b815260040160405180910390fd5b815f612bd261302f565b90505f612bde85610fef565b90505f816001600160a01b03163b90505f848451602086015ff590506001600160a01b038116612c3357815f03612c285760405163fd79f6c960e01b815260040160405180910390fd5b509095945050505050565b6040516001600160a01b0382169088907feef9c381d2c74749a8348b1cb0ea2b9e4f6e639218ecda97fba36ad22014f8ec905f90a3509093505050505b919050565b5f546001600160a01b03163314612c9f57604051633e9e676560e01b815260040160405180910390fd5b6007546040515f91612cba918691869186919060200161476a565b6040516020818303038152906040528051906020012090505f601a5f8381526020019081526020015f206040518060600160405290815f82018054612cfe90614785565b80601f0160208091040260200160405190810160405280929190818152602001828054612d2a90614785565b8015612d755780601f10612d4c57610100808354040283529160200191612d75565b820191905f5260205f20905b815481529060010190602001808311612d5857829003601f168201915b5050509183525050600182015460208083019190915260029092015460ff1615156040909101528101519091505f03612dc157604051630f89ea8b60e01b815260040160405180910390fd5b806040015115612de45760405163df8f7f2560e01b815260040160405180910390fd5b5f828152601a6020526040812090612dfc8282614056565b505f6001820155600201805460ff1916905560405185907ff5dad08915dd5bcfd9f7264eb352cae49943fcaa43173b5bc0dc15fee5c5cc6f90612e429087908790614987565b60405180910390a25050505050565b5f81815260126020526040812060010154818115612e94576006545f858152601260205260409020548391612e8591614740565b612e8f91906146fa565b612a64565b5f949350505050565b5f612ea6613124565b612eae6133fa565b612eb661157a565b341015612ed65760405163105d8d3b60e31b815260040160405180910390fd5b5f80612ee3858534613910565b915091505f81600860010154612ef99190614757565b9050612f048161332b565b505060015f80516020615043833981519152559050610fe9565b60156020525f908152604090208054612f3690614785565b80601f0160208091040260200160405190810160405280929190818152602001828054612f6290614785565b8015612fad5780601f10612f8457610100808354040283529160200191612fad565b820191905f5260205f20905b815481529060010190602001808311612f9057829003601f168201915b505050505081565b5f546001600160a01b03163314612fdf57604051633e9e676560e01b815260040160405180910390fd5b600980549082905560408051838152602081018390527fbb48724c22d0c8c190f6c11d01fd451f89dc4e039ce368393522833e2388ea4b910161149e565b6002545f906116f89084908490613ccf565b6010546040516060916001600160a01b0316905f9061305060208201614090565b818103601f199081018352601f909101166040818152600e546001600160a01b03166024830152306044808401919091528151808403909101815260649092018152602080830180516001600160e01b031663784d200b60e11b179052905192935090915f916130c491869185910161499a565b604051602081830303815290604052905082816040516020016130e89291906149bd565b60405160208183030381529060405294505050505090565b5f825f19048411830215820261311d5763ad251c275f526004601cfd5b5091020490565b5f8051602061504383398151915280546001190161315557604051633ee5aeb560e01b815260040160405180910390fd5b60029055565b5f80825f0361317d5760405163224af49960e11b815260040160405180910390fd5b5f8681526012602090815260408083206001600160a01b03891684526002019091529020548311156131c257604051631c2b147d60e11b815260040160405180910390fd5b6004545f878152601260205260409020600101546131e1908590614719565b1015613228575f86815260126020526040902060010154613203908490614719565b6040516378daa24160e01b815260040161321f91815260200190565b60405180910390fd5b5f805f613235868a6112b3565b9350935093505061329789838561324c9190614757565b5f8c8152601260205260409020546132649190614719565b5f8c815260126020526040902060010154613280908a90614719565b5f9283526012602052604090922090815560010155565b6132a2888a88613cfb565b5f8981526012602090815260408083206001600160a01b038c8116808652600290920184529382902054825190815292830187905290820189905260608201849052608082018c905291891691907f347ee37487f7d4fe0b4d3777823c6a71c110e3df43f4f3d35356cf6909e9abdb9060a00160405180910390a3509097909650945050505050565b805f036133355750565b6001546040515f916001600160a01b03169083908381818185875af1925050503d805f811461337f576040519150601f19603f3d011682016040523d82523d5f602084013e613384565b606091505b50509050806133a657604051635657c7b560e11b815260040160405180910390fd5b6001546040518381526001600160a01b039091169033907ffd2f5d3811ae7b8af2bd567683c6265c793894aa361eb932658effcf52d635a29060200161120d565b60015f8051602061504383398151915255565b5f805160206150238339815191525460ff16156117e95760405163d93c066560e01b815260040160405180910390fd5b5f805f60405180606001604052808881526020018781526020018681525090505f5b6003811015613526578181600381106134675761346761472c565b6020020151158061348f57506011548282600381106134885761348861472c565b6020020151115b156134c7578181600381106134a6576134a661472c565b6020020151604051631b57ccd960e01b815260040161321f91815260200190565b6134e68282600381106134dc576134dc61472c565b6020020151611f6d565b1561351e578181600381106134fd576134fd61472c565b602002015160405163053ea79560e51b815260040161321f91815260200190565b60010161344c565b506040805160208082018a9052818301899052606080830189905283518084039091018152608090920183528151918101919091205f818152601890925291902054156135975760405163d94a41bd60e01b815260048101899052602481018890526044810187905260640161321f565b5f6135a0611112565b6135aa9087614719565b90505f6135b5613d96565b90505f6135c283836116ff565b90505f6135cf8285614719565b90508260185f8781526020019081526020015f208190555060405180606001604052808d81526020018c81526020018b81525060175f8581526020019081526020015f2090600361362192919061409d565b505f838152601960205260408120805460ff191660011790556136448285612a40565b905061365a84336136558486614719565b613db1565b801561366b5761366b843383613c67565b600b54156136f1575f5b60038110156136ef575f8882600381106136915761369161472c565b602002015190506136e6816003600a600101546136ae91906146fa565b5f848152601260205260409020546136c69190614757565b5f8481526012602052604080822060019081015494835291209182550155565b50600101613675565b505b604080518e8152602081018e90529081018c90526060810185905233907f950bffece137ec4b4173970288bc78f45d30d77c58e0e87e6b210599a9ddc8f39060800160405180910390a250919b909a5098505050505050505050565b613755613f5a565b5f80516020615023833981519152805460ff191681557f5db9ee0a495bf2e6ff9c91a7834c1ba4fdd244a5e8aa4e537bd38aeae4b073aa335b6040516001600160a01b03909116815260200160405180910390a150565b5f6137b782846121e6565b5f036137d65760405163224af49960e11b815260040160405180910390fd5b5f805f806137e48688611fc2565b9350935093509350835f0361380c5760405163a3d9d45760e01b815260040160405180910390fd5b5f8781526012602052604090205461384790889061382b908790614757565b5f8a815260126020526040902060010154613280908790614757565b613852888885613f89565b5f8781526012602090815260408083206001600160a01b038c1680855260029091019092529091205433907f63f1715b856071be1b955e9ae199dab3454f8aba9d970ba690fa6ac9268e7014908587868d6138ac81611f6d565b6040805196875260208701959095529385019290925260608401526080830152151560a08201525f60c082015260e00160405180910390a350909695505050505050565b6138f8613fc7565b6117e9614010565b613908613fc7565b6117e9614018565b6005545f908190841115613937576040516305df6cdb60e11b815260040160405180910390fd5b5f61394061157a565b90505f86866040516139539291906149d1565b6040518091039020905060165f8281526020019081526020015f20545f1461399257868660405163a0f9e1ff60e01b815260040161321f929190614987565b5f61399d8387614719565b90505f6139a8613d96565b90505f6139b583836116ff565b90505f6139c28285614719565b90506139cf833383613db1565b5f6139d984610fef565b90506139ea848260085f0154613db1565b5f848152601560205260409020613a028c8e836149e0565b508360165f8881526020019081526020015f2081905550806001600160a01b0316336001600160a01b03167f8a016c336f3624ae541c0b00d83a02b05ed2ecbb29874e15881766f51aa323e08e8e88604051613a60939291906148ec565b60405180910390a350919a909950975050505050505050565b5f818152601a6020526040808220815160608101909252805482908290613a9f90614785565b80601f0160208091040260200160405190810160405280929190818152602001828054613acb90614785565b8015613b165780601f10613aed57610100808354040283529160200191613b16565b820191905f5260205f20905b815481529060010190602001808311613af957829003601f168201915b5050509183525050600182015460208083019190915260029092015460ff1615156040909101528101519091505f03613b6257604051630f89ea8b60e01b815260040160405180910390fd5b806040015115613b855760405163df8f7f2560e01b815260040160405180910390fd5b4281602001511115613baa57604051634b56dcfd60e11b815260040160405180910390fd5b5050565b613bb66133fa565b5f80516020615023833981519152805460ff191660011781557f62e78cea01bee320cd4e420270b5ea74000d11b0c9f74754ebdbfc544b05a2583361378e565b5f613c0083611f6d565b613c1d576040516336e8c70d60e11b815260040160405180910390fd5b5f601281613c2c865f19614719565b81526020019081526020015f206002015f846001600160a01b03166001600160a01b031681526020019081526020015f205411905092915050565b613c6f614038565b613c7884611066565b6040840152602083015281525f613c906003846146fa565b90505f5b6003811015613cc757613cbe85848360038110613cb357613cb361472c565b6020020151846137ac565b50600101613c94565b505050505050565b5f825f190484118302158202613cec5763ad251c275f526004601cfd5b50910281810615159190040190565b6001600160a01b038316613d225760405163017456ed60e31b815260040160405180910390fd5b5f8281526012602090815260408083206001600160a01b038716845260020190915290205481811015613d6857604051631b9e15c160e21b815260040160405180910390fd5b5f9283526012602090815260408085206001600160a01b039096168552600290950190529290912091039055565b5f8060115f8154613da690614a99565b918290555092915050565b5f613dbb84610fef565b6004546001600160a01b038581169216919091149150825f83613de757613de28383614757565b613de9565b815b5f88815260126020526040902054909150613e27908890613e0b908490614757565b5f8a815260126020526040902060010154613280908590614757565b613e32868884613f89565b83613e4d575f54613e4d906001600160a01b03168885613f89565b613e5687611f6d565b15613ebb575f613e6588612a28565b5f81815260126020526040902054909150613ea3908290613e87908790614757565b5f84815260126020526040902060010154613280908890614757565b5f54613eb9906001600160a01b03168286613f89565b505b5f8781526012602090815260408083206001600160a01b038a168085526002909101909252822054909133917f63f1715b856071be1b955e9ae199dab3454f8aba9d970ba690fa6ac9268e701491899086908d613f1781611f6d565b6040805196875260208701959095529385019290925260608401526080830152151560a082015287151560c082015260e00160405180910390a350505050505050565b5f805160206150238339815191525460ff166117e957604051638dfc202b60e01b815260040160405180910390fd5b5f8281526012602090815260408083206001600160a01b038716845260020190915281208054839290613fbd908490614757565b9091555050505050565b7ff0c57e16840df040f15088dc2f81fe391c3923bec73e23a9662efc9c229c6a0054600160401b900460ff166117e957604051631afcd79f60e31b815260040160405180910390fd5b6133e7613fc7565b614020613fc7565b5f80516020615023833981519152805460ff19169055565b60405180606001604052806003906020820280368337509192915050565b50805461406290614785565b5f825580601f10614071575050565b601f0160209004905f5260205f209081019061408d91906140db565b50565b61057180614ab283390190565b82600381019282156140cb579160200282015b828111156140cb5782518255916020019190600101906140b0565b506140d79291506140db565b5090565b5b808211156140d7575f81556001016140dc565b6001600160a01b038116811461408d575f80fd5b8035612c70816140ef565b5f6020828403121561411e575f80fd5b81356116f8816140ef565b5f806040838503121561413a575f80fd5b50508035926020909101359150565b5f60208284031215614159575f80fd5b5035919050565b5f805f60608486031215614172575f80fd5b833592506020840135614184816140ef565b929592945050506040919091013590565b5f805f606084860312156141a7575f80fd5b505081359360208301359350604090920135919050565b5f80604083850312156141cf575f80fd5b82356141da816140ef565b946020939093013593505050565b5f8083601f8401126141f8575f80fd5b5081356001600160401b0381111561420e575f80fd5b6020830191508360208285010111156123b3575f80fd5b5f805f60408486031215614237575f80fd5b8335925060208401356001600160401b03811115614253575f80fd5b61425f868287016141e8565b9497909650939450505050565b634e487b7160e01b5f52604160045260245ffd5b60405161010081016001600160401b03811182821017156142a3576142a361426c565b60405290565b5f604082840312156142b9575f80fd5b604051604081018181106001600160401b03821117156142db576142db61426c565b604052823581526020928301359281019290925250919050565b5f60608284031215614305575f80fd5b604051606081018181106001600160401b03821117156143275761432761426c565b80604052508091508235815260208301356020820152604083013560408201525092915050565b5f6080828403121561435e575f80fd5b604051608081018181106001600160401b03821117156143805761438061426c565b6040529050808235614391816140ef565b815260208301356143a1816140ef565b602082015260408301356143b4816140ef565b604082015260608301356143c7816140ef565b6060919091015292915050565b5f805f805f8587036102808112156143ea575f80fd5b610100808212156143f9575f80fd5b614401614280565b9150873561440e816140ef565b825261441c60208901614103565b602083015260408801356040830152606088013560608301526080880135608083015260a088013560a083015260c088013560c083015260e088013560e083015281965061446c89828a016142a9565b9550505061447e8761014088016142f5565b925061448e876101a0880161434e565b915061449e8761022088016142f5565b90509295509295909350565b5f8083601f8401126144ba575f80fd5b5081356001600160401b038111156144d0575f80fd5b6020830191508360208260051b85010111156123b3575f80fd5b5f80602083850312156144fb575f80fd5b82356001600160401b03811115614510575f80fd5b61451c858286016144aa565b90969095509350505050565b602080825282518282018190525f9190848201906040850190845b818110156121f257835183529284019291840191600101614543565b5f8060408385031215614570575f80fd5b823591506020830135614582816140ef565b809150509250929050565b5f805f805f80606087890312156145a2575f80fd5b86356001600160401b03808211156145b8575f80fd5b6145c48a838b016144aa565b909850965060208901359150808211156145dc575f80fd5b6145e88a838b016144aa565b90965094506040890135915080821115614600575f80fd5b5061460d89828a016144aa565b979a9699509497509295939492505050565b5f8060408385031215614630575f80fd5b823561463b816140ef565b91506020830135614582816140ef565b5f81518084528060208401602086015e5f602082860101526020601f19601f83011685010191505092915050565b606081525f61468b606083018661464b565b602083019490945250901515604090910152919050565b5f80602083850312156146b3575f80fd5b82356001600160401b038111156146c8575f80fd5b61451c858286016141e8565b602081525f6116f8602083018461464b565b634e487b7160e01b5f52601160045260245ffd5b5f8261471457634e487b7160e01b5f52601260045260245ffd5b500490565b81810381811115610fe957610fe96146e6565b634e487b7160e01b5f52603260045260245ffd5b8082028115828204841417610fe957610fe96146e6565b80820180821115610fe957610fe96146e6565b84815282846020830137602092019182015260400192915050565b600181811c9082168061479957607f821691505b6020821081036147b757634e487b7160e01b5f52602260045260245ffd5b50919050565b601f82111561480457805f5260205f20601f840160051c810160208510156147e25750805b601f840160051c820191505b81811015614801575f81556001016147ee565b50505b505050565b81516001600160401b038111156148225761482261426c565b614836816148308454614785565b846147bd565b602080601f831160018114614869575f84156148525750858301515b5f19600386901b1c1916600185901b178555613cc7565b5f85815260208120601f198616915b8281101561489757888601518255948401946001909101908401614878565b50858210156148b457878501515f19600388901b60f8161c191681555b5050505050600190811b01905550565b81835281816020850137505f828201602090810191909152601f909101601f19169091010190565b604081525f6148ff6040830185876148c4565b9050826020830152949350505050565b5f808335601e19843603018112614924575f80fd5b8301803591506001600160401b0382111561493d575f80fd5b6020019150368190038213156123b3575f80fd5b5f81518060208401855e5f93019283525090919050565b8381525f6149796020830185614951565b928352505060200192915050565b602081525f612a646020830184866148c4565b6001600160a01b03831681526040602082018190525f90612a649083018461464b565b5f612a646149cb8386614951565b84614951565b818382375f9101908152919050565b6001600160401b038311156149f7576149f761426c565b614a0b83614a058354614785565b836147bd565b5f601f841160018114614a3c575f8515614a255750838201355b5f19600387901b1c1916600186901b178355614801565b5f83815260208120601f198716915b82811015614a6b5786850135825560209485019460019092019101614a4b565b5086821015614a87575f1960f88860031b161c19848701351681555b505060018560011b0183555050505050565b5f60018201614aaa57614aaa6146e6565b506001019056fe60a060405260405161057138038061057183398101604081905261002291610354565b61002c828261003e565b506001600160a01b031660805261043f565b610047826100fb565b6040516001600160a01b038316907f1cf3b03a6cf19fa2baba4df148e9dcabedea7f8a5c07840e207e5c089be95d3e905f90a28051156100ef576100ea826001600160a01b0316635c60da1b6040518163ffffffff1660e01b8152600401602060405180830381865afa1580156100c0573d5f803e3d5ffd5b505050506040513d601f19601f820116820180604052508101906100e49190610410565b82610209565b505050565b6100f761027c565b5050565b806001600160a01b03163b5f0361013557604051631933b43b60e21b81526001600160a01b03821660048201526024015b60405180910390fd5b807fa3f0ad74e5423aebfd80d3ef4346578335a9a72aeaee59ff6cb3582b35133d5080546001600160a01b0319166001600160a01b0392831617905560408051635c60da1b60e01b815290515f92841691635c60da1b9160048083019260209291908290030181865afa1580156101ae573d5f803e3d5ffd5b505050506040513d601f19601f820116820180604052508101906101d29190610410565b9050806001600160a01b03163b5f036100f757604051634c9c8ce360e01b81526001600160a01b038216600482015260240161012c565b60605f80846001600160a01b0316846040516102259190610429565b5f60405180830381855af49150503d805f811461025d576040519150601f19603f3d011682016040523d82523d5f602084013e610262565b606091505b50909250905061027385838361029d565b95945050505050565b341561029b5760405163b398979f60e01b815260040160405180910390fd5b565b6060826102b2576102ad826102fc565b6102f5565b81511580156102c957506001600160a01b0384163b155b156102f257604051639996b31560e01b81526001600160a01b038516600482015260240161012c565b50805b9392505050565b80511561030c5780518082602001fd5b604051630a12f52160e11b815260040160405180910390fd5b80516001600160a01b038116811461033b575f80fd5b919050565b634e487b7160e01b5f52604160045260245ffd5b5f8060408385031215610365575f80fd5b61036e83610325565b60208401519092506001600160401b038082111561038a575f80fd5b818501915085601f83011261039d575f80fd5b8151818111156103af576103af610340565b604051601f8201601f19908116603f011681019083821181831017156103d7576103d7610340565b816040528281528860208487010111156103ef575f80fd5b8260208601602083015e5f6020848301015280955050505050509250929050565b5f60208284031215610420575f80fd5b6102f582610325565b5f82518060208501845e5f920191825250919050565b60805161011b6104565f395f601d015261011b5ff3fe6080604052600a600c565b005b60186014601a565b609d565b565b5f7f00000000000000000000000000000000000000000000000000000000000000006001600160a01b0316635c60da1b6040518163ffffffff1660e01b8152600401602060405180830381865afa1580156076573d5f803e3d5ffd5b505050506040513d601f19601f820116820180604052508101906098919060ba565b905090565b365f80375f80365f845af43d5f803e80801560b6573d5ff35b3d5ffd5b5f6020828403121560c9575f80fd5b81516001600160a01b038116811460de575f80fd5b939250505056fea264697066735822122078200d3714dd3c2319acc2c9000a8ec444cbdfb88cbf3e6773ef2ae738471bcf64736f6c63430008190033cd5ed15c6e187e77e9aee88184c21f4f2182ab5827cb3b7e07fbedcd63f033009b779b17422d0df92223018b32b4d1fa46e071723d6817e2486d003becc55f00a2646970667358221220d37d6a2625cc4ec532ee26ca9cd9c7c218e89cf21885504e146393e926b6ff2064736f6c63430008190033","linkReferences":{}},"methodIdentifiers":{"SET_ADMIN()":"4d592c6a","SET_EXIT_FEE()":"90855592","approvals(address,address)":"a32ce11e","approveSender(address)":"11d39b6e","atomConfig()":"7f833f04","atomDepositFractionAmount(uint256,uint256)":"c26388e3","atoms(uint256)":"f315a94e","atomsByHash(bytes32)":"e3b764af","batchCreateAtom(bytes[])":"65f64685","batchCreateTriple(uint256[],uint256[],uint256[])":"8daf7443","cancelOperation(bytes32,bytes)":"de3cca60","computeAtomWalletAddr(uint256)":"0ac819db","convertToAssets(uint256,uint256)":"181e7b3b","convertToShares(uint256,uint256)":"db2088f4","count()":"06661abd","createAtom(bytes)":"f10c9f9b","createTriple(uint256,uint256,uint256)":"39c4f49c","currentSharePrice(uint256)":"ee9dd98f","deployAtomWallet(uint256)":"dc5adb8c","depositAtom(address,uint256)":"441d1c2f","depositTriple(address,uint256)":"859aa971","entryFeeAmount(uint256,uint256)":"04c89bc6","exitFeeAmount(uint256,uint256)":"ae0a1542","generalConfig()":"927a97a1","getAtomCost()":"33332d39","getAtomWarden()":"84e100db","getCounterIdFromTriple(uint256)":"bb7dd379","getDepositFees(uint256,uint256)":"a4ddc786","getDepositSharesAndFees(uint256,uint256)":"67ab7594","getRedeemAssetsAndFees(uint256,uint256)":"1d35900a","getTripleAtoms(uint256)":"0cde801b","getTripleCost()":"0d65c91c","getVaultStateForUser(uint256,address)":"89065256","init((address,address,uint256,uint256,uint256,uint256,uint256,uint256),(uint256,uint256),(uint256,uint256,uint256),(address,address,address,address),(uint256,uint256,uint256))":"61d2a657","isTriple(uint256)":"c61703ac","isTripleId(uint256)":"66e34a33","maxDeposit()":"6083e59a","maxRedeem(address,uint256)":"4abe4137","pause()":"8456cb59","paused()":"5c975abb","previewDeposit(uint256,uint256)":"7a7af70d","previewRedeem(uint256,uint256)":"bbec4d06","protocolFeeAmount(uint256,uint256)":"39a38449","redeemAtom(uint256,address,uint256)":"3800c5c4","redeemTriple(uint256,address,uint256)":"b790e672","revokeSender(address)":"ab204282","scheduleOperation(bytes32,bytes)":"56d54d68","setAdmin(address)":"704b6c02","setAtomCreationProtocolFee(uint256)":"f903ff72","setAtomDepositFractionForTriple(uint256)":"ab238565","setAtomDepositFractionOnTripleCreation(uint256)":"2dbc4982","setAtomUriMaxLength(uint256)":"340a2812","setAtomWalletInitialDepositAmount(uint256)":"2dd42644","setAtomWarden(address)":"001fc87d","setEntryFee(uint256,uint256)":"5408eec9","setExitFee(uint256,uint256)":"9f49b60e","setMinDeposit(uint256)":"8fcc9cfb","setMinShare(uint256)":"2a22fec5","setProtocolFee(uint256,uint256)":"240de277","setProtocolMultisig(address)":"a3bde6ac","setTripleCreationProtocolFee(uint256)":"6cc18d40","timelocks(bytes32)":"c9ceddb8","tripleConfig()":"1e19e2c8","tripleHash(uint256)":"13aaab97","tripleHashFromAtoms(uint256,uint256,uint256)":"7c373661","triples(uint256,uint256)":"cfc15f15","triplesByHash(bytes32)":"59b125d2","unpause()":"3f4ba83a","vaultFees(uint256)":"22061379","vaults(uint256)":"8c64ea4a","walletConfig()":"d34ddc05"},"storageLayout":{"storage":[{"astId":51605,"contract":"src/EthMultiVault.sol:EthMultiVault","label":"generalConfig","offset":0,"slot":"0","type":"t_struct(GeneralConfig)55241_storage"},{"astId":51608,"contract":"src/EthMultiVault.sol:EthMultiVault","label":"atomConfig","offset":0,"slot":"8","type":"t_struct(AtomConfig)55249_storage"},{"astId":51611,"contract":"src/EthMultiVault.sol:EthMultiVault","label":"tripleConfig","offset":0,"slot":"10","type":"t_struct(TripleConfig)55260_storage"},{"astId":51614,"contract":"src/EthMultiVault.sol:EthMultiVault","label":"walletConfig","offset":0,"slot":"13","type":"t_struct(WalletConfig)55275_storage"},{"astId":51617,"contract":"src/EthMultiVault.sol:EthMultiVault","label":"count","offset":0,"slot":"17","type":"t_uint256"},{"astId":51623,"contract":"src/EthMultiVault.sol:EthMultiVault","label":"vaults","offset":0,"slot":"18","type":"t_mapping(t_uint256,t_struct(VaultState)55285_storage)"},{"astId":51629,"contract":"src/EthMultiVault.sol:EthMultiVault","label":"vaultFees","offset":0,"slot":"19","type":"t_mapping(t_uint256,t_struct(VaultFees)55296_storage)"},{"astId":51636,"contract":"src/EthMultiVault.sol:EthMultiVault","label":"approvals","offset":0,"slot":"20","type":"t_mapping(t_address,t_mapping(t_address,t_bool))"},{"astId":51641,"contract":"src/EthMultiVault.sol:EthMultiVault","label":"atoms","offset":0,"slot":"21","type":"t_mapping(t_uint256,t_bytes_storage)"},{"astId":51645,"contract":"src/EthMultiVault.sol:EthMultiVault","label":"atomsByHash","offset":0,"slot":"22","type":"t_mapping(t_bytes32,t_uint256)"},{"astId":51651,"contract":"src/EthMultiVault.sol:EthMultiVault","label":"triples","offset":0,"slot":"23","type":"t_mapping(t_uint256,t_array(t_uint256)3_storage)"},{"astId":51655,"contract":"src/EthMultiVault.sol:EthMultiVault","label":"triplesByHash","offset":0,"slot":"24","type":"t_mapping(t_bytes32,t_uint256)"},{"astId":51659,"contract":"src/EthMultiVault.sol:EthMultiVault","label":"isTriple","offset":0,"slot":"25","type":"t_mapping(t_uint256,t_bool)"},{"astId":51665,"contract":"src/EthMultiVault.sol:EthMultiVault","label":"timelocks","offset":0,"slot":"26","type":"t_mapping(t_bytes32,t_struct(Timelock)55307_storage)"},{"astId":51670,"contract":"src/EthMultiVault.sol:EthMultiVault","label":"__gap","offset":0,"slot":"27","type":"t_array(t_uint256)50_storage"}],"types":{"t_address":{"encoding":"inplace","label":"address","numberOfBytes":"20"},"t_array(t_uint256)3_storage":{"encoding":"inplace","label":"uint256[3]","numberOfBytes":"96","base":"t_uint256"},"t_array(t_uint256)50_storage":{"encoding":"inplace","label":"uint256[50]","numberOfBytes":"1600","base":"t_uint256"},"t_bool":{"encoding":"inplace","label":"bool","numberOfBytes":"1"},"t_bytes32":{"encoding":"inplace","label":"bytes32","numberOfBytes":"32"},"t_bytes_storage":{"encoding":"bytes","label":"bytes","numberOfBytes":"32"},"t_contract(IPermit2)56041":{"encoding":"inplace","label":"contract IPermit2","numberOfBytes":"20"},"t_mapping(t_address,t_bool)":{"encoding":"mapping","key":"t_address","label":"mapping(address => bool)","numberOfBytes":"32","value":"t_bool"},"t_mapping(t_address,t_mapping(t_address,t_bool))":{"encoding":"mapping","key":"t_address","label":"mapping(address => mapping(address => bool))","numberOfBytes":"32","value":"t_mapping(t_address,t_bool)"},"t_mapping(t_address,t_uint256)":{"encoding":"mapping","key":"t_address","label":"mapping(address => uint256)","numberOfBytes":"32","value":"t_uint256"},"t_mapping(t_bytes32,t_struct(Timelock)55307_storage)":{"encoding":"mapping","key":"t_bytes32","label":"mapping(bytes32 => struct IEthMultiVault.Timelock)","numberOfBytes":"32","value":"t_struct(Timelock)55307_storage"},"t_mapping(t_bytes32,t_uint256)":{"encoding":"mapping","key":"t_bytes32","label":"mapping(bytes32 => uint256)","numberOfBytes":"32","value":"t_uint256"},"t_mapping(t_uint256,t_array(t_uint256)3_storage)":{"encoding":"mapping","key":"t_uint256","label":"mapping(uint256 => uint256[3])","numberOfBytes":"32","value":"t_array(t_uint256)3_storage"},"t_mapping(t_uint256,t_bool)":{"encoding":"mapping","key":"t_uint256","label":"mapping(uint256 => bool)","numberOfBytes":"32","value":"t_bool"},"t_mapping(t_uint256,t_bytes_storage)":{"encoding":"mapping","key":"t_uint256","label":"mapping(uint256 => bytes)","numberOfBytes":"32","value":"t_bytes_storage"},"t_mapping(t_uint256,t_struct(VaultFees)55296_storage)":{"encoding":"mapping","key":"t_uint256","label":"mapping(uint256 => struct IEthMultiVault.VaultFees)","numberOfBytes":"32","value":"t_struct(VaultFees)55296_storage"},"t_mapping(t_uint256,t_struct(VaultState)55285_storage)":{"encoding":"mapping","key":"t_uint256","label":"mapping(uint256 => struct IEthMultiVault.VaultState)","numberOfBytes":"32","value":"t_struct(VaultState)55285_storage"},"t_struct(AtomConfig)55249_storage":{"encoding":"inplace","label":"struct IEthMultiVault.AtomConfig","numberOfBytes":"64","members":[{"astId":55245,"contract":"src/EthMultiVault.sol:EthMultiVault","label":"atomWalletInitialDepositAmount","offset":0,"slot":"0","type":"t_uint256"},{"astId":55248,"contract":"src/EthMultiVault.sol:EthMultiVault","label":"atomCreationProtocolFee","offset":0,"slot":"1","type":"t_uint256"}]},"t_struct(GeneralConfig)55241_storage":{"encoding":"inplace","label":"struct IEthMultiVault.GeneralConfig","numberOfBytes":"256","members":[{"astId":55219,"contract":"src/EthMultiVault.sol:EthMultiVault","label":"admin","offset":0,"slot":"0","type":"t_address"},{"astId":55222,"contract":"src/EthMultiVault.sol:EthMultiVault","label":"protocolMultisig","offset":0,"slot":"1","type":"t_address"},{"astId":55225,"contract":"src/EthMultiVault.sol:EthMultiVault","label":"feeDenominator","offset":0,"slot":"2","type":"t_uint256"},{"astId":55228,"contract":"src/EthMultiVault.sol:EthMultiVault","label":"minDeposit","offset":0,"slot":"3","type":"t_uint256"},{"astId":55231,"contract":"src/EthMultiVault.sol:EthMultiVault","label":"minShare","offset":0,"slot":"4","type":"t_uint256"},{"astId":55234,"contract":"src/EthMultiVault.sol:EthMultiVault","label":"atomUriMaxLength","offset":0,"slot":"5","type":"t_uint256"},{"astId":55237,"contract":"src/EthMultiVault.sol:EthMultiVault","label":"decimalPrecision","offset":0,"slot":"6","type":"t_uint256"},{"astId":55240,"contract":"src/EthMultiVault.sol:EthMultiVault","label":"minDelay","offset":0,"slot":"7","type":"t_uint256"}]},"t_struct(Timelock)55307_storage":{"encoding":"inplace","label":"struct IEthMultiVault.Timelock","numberOfBytes":"96","members":[{"astId":55300,"contract":"src/EthMultiVault.sol:EthMultiVault","label":"data","offset":0,"slot":"0","type":"t_bytes_storage"},{"astId":55303,"contract":"src/EthMultiVault.sol:EthMultiVault","label":"readyTime","offset":0,"slot":"1","type":"t_uint256"},{"astId":55306,"contract":"src/EthMultiVault.sol:EthMultiVault","label":"executed","offset":0,"slot":"2","type":"t_bool"}]},"t_struct(TripleConfig)55260_storage":{"encoding":"inplace","label":"struct IEthMultiVault.TripleConfig","numberOfBytes":"96","members":[{"astId":55253,"contract":"src/EthMultiVault.sol:EthMultiVault","label":"tripleCreationProtocolFee","offset":0,"slot":"0","type":"t_uint256"},{"astId":55256,"contract":"src/EthMultiVault.sol:EthMultiVault","label":"atomDepositFractionOnTripleCreation","offset":0,"slot":"1","type":"t_uint256"},{"astId":55259,"contract":"src/EthMultiVault.sol:EthMultiVault","label":"atomDepositFractionForTriple","offset":0,"slot":"2","type":"t_uint256"}]},"t_struct(VaultFees)55296_storage":{"encoding":"inplace","label":"struct IEthMultiVault.VaultFees","numberOfBytes":"96","members":[{"astId":55289,"contract":"src/EthMultiVault.sol:EthMultiVault","label":"entryFee","offset":0,"slot":"0","type":"t_uint256"},{"astId":55292,"contract":"src/EthMultiVault.sol:EthMultiVault","label":"exitFee","offset":0,"slot":"1","type":"t_uint256"},{"astId":55295,"contract":"src/EthMultiVault.sol:EthMultiVault","label":"protocolFee","offset":0,"slot":"2","type":"t_uint256"}]},"t_struct(VaultState)55285_storage":{"encoding":"inplace","label":"struct IEthMultiVault.VaultState","numberOfBytes":"96","members":[{"astId":55278,"contract":"src/EthMultiVault.sol:EthMultiVault","label":"totalAssets","offset":0,"slot":"0","type":"t_uint256"},{"astId":55280,"contract":"src/EthMultiVault.sol:EthMultiVault","label":"totalShares","offset":0,"slot":"1","type":"t_uint256"},{"astId":55284,"contract":"src/EthMultiVault.sol:EthMultiVault","label":"balanceOf","offset":0,"slot":"2","type":"t_mapping(t_address,t_uint256)"}]},"t_struct(WalletConfig)55275_storage":{"encoding":"inplace","label":"struct IEthMultiVault.WalletConfig","numberOfBytes":"128","members":[{"astId":55265,"contract":"src/EthMultiVault.sol:EthMultiVault","label":"permit2","offset":0,"slot":"0","type":"t_contract(IPermit2)56041"},{"astId":55268,"contract":"src/EthMultiVault.sol:EthMultiVault","label":"entryPoint","offset":0,"slot":"1","type":"t_address"},{"astId":55271,"contract":"src/EthMultiVault.sol:EthMultiVault","label":"atomWarden","offset":0,"slot":"2","type":"t_address"},{"astId":55274,"contract":"src/EthMultiVault.sol:EthMultiVault","label":"atomWalletBeacon","offset":0,"slot":"3","type":"t_address"}]},"t_uint256":{"encoding":"inplace","label":"uint256","numberOfBytes":"32"}}},"id":63}