{
  "abi": [
    {
      "type": "fallback",
      "stateMutability": "payable"
    },
    {
      "type": "receive",
      "stateMutability": "payable"
    },
    {
      "type": "function",
      "name": "SET_ADMIN",
      "inputs": [],
      "outputs": [
        {
          "name": "",
          "type": "bytes32",
          "internalType": "bytes32"
        }
      ],
      "stateMutability": "view"
    },
    {
      "type": "function",
      "name": "SET_EXIT_FEE",
      "inputs": [],
      "outputs": [
        {
          "name": "",
          "type": "bytes32",
          "internalType": "bytes32"
        }
      ],
      "stateMutability": "view"
    },
    {
      "type": "function",
      "name": "atomConfig",
      "inputs": [],
      "outputs": [
        {
          "name": "atomWalletInitialDepositAmount",
          "type": "uint256",
          "internalType": "uint256"
        },
        {
          "name": "atomCreationProtocolFee",
          "type": "uint256",
          "internalType": "uint256"
        }
      ],
      "stateMutability": "view"
    },
    {
      "type": "function",
      "name": "atomDepositFractionAmount",
      "inputs": [
        {
          "name": "assets",
          "type": "uint256",
          "internalType": "uint256"
        },
        {
          "name": "id",
          "type": "uint256",
          "internalType": "uint256"
        }
      ],
      "outputs": [
        {
          "name": "",
          "type": "uint256",
          "internalType": "uint256"
        }
      ],
      "stateMutability": "view"
    },
    {
      "type": "function",
      "name": "atoms",
      "inputs": [
        {
          "name": "",
          "type": "uint256",
          "internalType": "uint256"
        }
      ],
      "outputs": [
        {
          "name": "",
          "type": "bytes",
          "internalType": "bytes"
        }
      ],
      "stateMutability": "view"
    },
    {
      "type": "function",
      "name": "atomsByHash",
      "inputs": [
        {
          "name": "",
          "type": "bytes32",
          "internalType": "bytes32"
        }
      ],
      "outputs": [
        {
          "name": "",
          "type": "uint256",
          "internalType": "uint256"
        }
      ],
      "stateMutability": "view"
    },
    {
      "type": "function",
      "name": "batchCreateAtom",
      "inputs": [
        {
          "name": "atomUris",
          "type": "bytes[]",
          "internalType": "bytes[]"
        }
      ],
      "outputs": [
        {
          "name": "",
          "type": "uint256[]",
          "internalType": "uint256[]"
        }
      ],
      "stateMutability": "payable"
    },
    {
      "type": "function",
      "name": "batchCreateTriple",
      "inputs": [
        {
          "name": "subjectIds",
          "type": "uint256[]",
          "internalType": "uint256[]"
        },
        {
          "name": "predicateIds",
          "type": "uint256[]",
          "internalType": "uint256[]"
        },
        {
          "name": "objectIds",
          "type": "uint256[]",
          "internalType": "uint256[]"
        }
      ],
      "outputs": [
        {
          "name": "",
          "type": "uint256[]",
          "internalType": "uint256[]"
        }
      ],
      "stateMutability": "payable"
    },
    {
      "type": "function",
      "name": "cancelOperation",
      "inputs": [
        {
          "name": "operationId",
          "type": "bytes32",
          "internalType": "bytes32"
        },
        {
          "name": "data",
          "type": "bytes",
          "internalType": "bytes"
        }
      ],
      "outputs": [],
      "stateMutability": "nonpayable"
    },
    {
      "type": "function",
      "name": "computeAtomWalletAddr",
      "inputs": [
        {
          "name": "id",
          "type": "uint256",
          "internalType": "uint256"
        }
      ],
      "outputs": [
        {
          "name": "",
          "type": "address",
          "internalType": "address"
        }
      ],
      "stateMutability": "view"
    },
    {
      "type": "function",
      "name": "convertToAssets",
      "inputs": [
        {
          "name": "shares",
          "type": "uint256",
          "internalType": "uint256"
        },
        {
          "name": "id",
          "type": "uint256",
          "internalType": "uint256"
        }
      ],
      "outputs": [
        {
          "name": "",
          "type": "uint256",
          "internalType": "uint256"
        }
      ],
      "stateMutability": "view"
    },
    {
      "type": "function",
      "name": "convertToShares",
      "inputs": [
        {
          "name": "assets",
          "type": "uint256",
          "internalType": "uint256"
        },
        {
          "name": "id",
          "type": "uint256",
          "internalType": "uint256"
        }
      ],
      "outputs": [
        {
          "name": "",
          "type": "uint256",
          "internalType": "uint256"
        }
      ],
      "stateMutability": "view"
    },
    {
      "type": "function",
      "name": "count",
      "inputs": [],
      "outputs": [
        {
          "name": "",
          "type": "uint256",
          "internalType": "uint256"
        }
      ],
      "stateMutability": "view"
    },
    {
      "type": "function",
      "name": "createAtom",
      "inputs": [
        {
          "name": "atomUri",
          "type": "bytes",
          "internalType": "bytes"
        }
      ],
      "outputs": [
        {
          "name": "",
          "type": "uint256",
          "internalType": "uint256"
        }
      ],
      "stateMutability": "payable"
    },
    {
      "type": "function",
      "name": "createTriple",
      "inputs": [
        {
          "name": "subjectId",
          "type": "uint256",
          "internalType": "uint256"
        },
        {
          "name": "predicateId",
          "type": "uint256",
          "internalType": "uint256"
        },
        {
          "name": "objectId",
          "type": "uint256",
          "internalType": "uint256"
        }
      ],
      "outputs": [
        {
          "name": "",
          "type": "uint256",
          "internalType": "uint256"
        }
      ],
      "stateMutability": "payable"
    },
    {
      "type": "function",
      "name": "currentSharePrice",
      "inputs": [
        {
          "name": "id",
          "type": "uint256",
          "internalType": "uint256"
        }
      ],
      "outputs": [
        {
          "name": "",
          "type": "uint256",
          "internalType": "uint256"
        }
      ],
      "stateMutability": "view"
    },
    {
      "type": "function",
      "name": "deployAtomWallet",
      "inputs": [
        {
          "name": "atomId",
          "type": "uint256",
          "internalType": "uint256"
        }
      ],
      "outputs": [
        {
          "name": "",
          "type": "address",
          "internalType": "address"
        }
      ],
      "stateMutability": "nonpayable"
    },
    {
      "type": "function",
      "name": "depositAtom",
      "inputs": [
        {
          "name": "receiver",
          "type": "address",
          "internalType": "address"
        },
        {
          "name": "id",
          "type": "uint256",
          "internalType": "uint256"
        }
      ],
      "outputs": [
        {
          "name": "",
          "type": "uint256",
          "internalType": "uint256"
        }
      ],
      "stateMutability": "payable"
    },
    {
      "type": "function",
      "name": "depositTriple",
      "inputs": [
        {
          "name": "receiver",
          "type": "address",
          "internalType": "address"
        },
        {
          "name": "id",
          "type": "uint256",
          "internalType": "uint256"
        }
      ],
      "outputs": [
        {
          "name": "",
          "type": "uint256",
          "internalType": "uint256"
        }
      ],
      "stateMutability": "payable"
    },
    {
      "type": "function",
      "name": "entryFeeAmount",
      "inputs": [
        {
          "name": "assets",
          "type": "uint256",
          "internalType": "uint256"
        },
        {
          "name": "id",
          "type": "uint256",
          "internalType": "uint256"
        }
      ],
      "outputs": [
        {
          "name": "",
          "type": "uint256",
          "internalType": "uint256"
        }
      ],
      "stateMutability": "view"
    },
    {
      "type": "function",
      "name": "exitFeeAmount",
      "inputs": [
        {
          "name": "assets",
          "type": "uint256",
          "internalType": "uint256"
        },
        {
          "name": "id",
          "type": "uint256",
          "internalType": "uint256"
        }
      ],
      "outputs": [
        {
          "name": "",
          "type": "uint256",
          "internalType": "uint256"
        }
      ],
      "stateMutability": "view"
    },
    {
      "type": "function",
      "name": "generalConfig",
      "inputs": [],
      "outputs": [
        {
          "name": "admin",
          "type": "address",
          "internalType": "address"
        },
        {
          "name": "protocolVault",
          "type": "address",
          "internalType": "address"
        },
        {
          "name": "feeDenominator",
          "type": "uint256",
          "internalType": "uint256"
        },
        {
          "name": "minDeposit",
          "type": "uint256",
          "internalType": "uint256"
        },
        {
          "name": "minShare",
          "type": "uint256",
          "internalType": "uint256"
        },
        {
          "name": "atomUriMaxLength",
          "type": "uint256",
          "internalType": "uint256"
        },
        {
          "name": "decimalPrecision",
          "type": "uint256",
          "internalType": "uint256"
        },
        {
          "name": "minDelay",
          "type": "uint256",
          "internalType": "uint256"
        }
      ],
      "stateMutability": "view"
    },
    {
      "type": "function",
      "name": "getAtomCost",
      "inputs": [],
      "outputs": [
        {
          "name": "",
          "type": "uint256",
          "internalType": "uint256"
        }
      ],
      "stateMutability": "view"
    },
    {
      "type": "function",
      "name": "getAtomWarden",
      "inputs": [],
      "outputs": [
        {
          "name": "",
          "type": "address",
          "internalType": "address"
        }
      ],
      "stateMutability": "view"
    },
    {
      "type": "function",
      "name": "getCounterIdFromTriple",
      "inputs": [
        {
          "name": "id",
          "type": "uint256",
          "internalType": "uint256"
        }
      ],
      "outputs": [
        {
          "name": "",
          "type": "uint256",
          "internalType": "uint256"
        }
      ],
      "stateMutability": "pure"
    },
    {
      "type": "function",
      "name": "getDepositFees",
      "inputs": [
        {
          "name": "assets",
          "type": "uint256",
          "internalType": "uint256"
        },
        {
          "name": "id",
          "type": "uint256",
          "internalType": "uint256"
        }
      ],
      "outputs": [
        {
          "name": "",
          "type": "uint256",
          "internalType": "uint256"
        }
      ],
      "stateMutability": "view"
    },
    {
      "type": "function",
      "name": "getDepositSharesAndFees",
      "inputs": [
        {
          "name": "assets",
          "type": "uint256",
          "internalType": "uint256"
        },
        {
          "name": "id",
          "type": "uint256",
          "internalType": "uint256"
        }
      ],
      "outputs": [
        {
          "name": "",
          "type": "uint256",
          "internalType": "uint256"
        },
        {
          "name": "",
          "type": "uint256",
          "internalType": "uint256"
        },
        {
          "name": "",
          "type": "uint256",
          "internalType": "uint256"
        },
        {
          "name": "",
          "type": "uint256",
          "internalType": "uint256"
        }
      ],
      "stateMutability": "view"
    },
    {
      "type": "function",
      "name": "getRedeemAssetsAndFees",
      "inputs": [
        {
          "name": "shares",
          "type": "uint256",
          "internalType": "uint256"
        },
        {
          "name": "id",
          "type": "uint256",
          "internalType": "uint256"
        }
      ],
      "outputs": [
        {
          "name": "",
          "type": "uint256",
          "internalType": "uint256"
        },
        {
          "name": "",
          "type": "uint256",
          "internalType": "uint256"
        },
        {
          "name": "",
          "type": "uint256",
          "internalType": "uint256"
        },
        {
          "name": "",
          "type": "uint256",
          "internalType": "uint256"
        }
      ],
      "stateMutability": "view"
    },
    {
      "type": "function",
      "name": "getTripleAtoms",
      "inputs": [
        {
          "name": "id",
          "type": "uint256",
          "internalType": "uint256"
        }
      ],
      "outputs": [
        {
          "name": "",
          "type": "uint256",
          "internalType": "uint256"
        },
        {
          "name": "",
          "type": "uint256",
          "internalType": "uint256"
        },
        {
          "name": "",
          "type": "uint256",
          "internalType": "uint256"
        }
      ],
      "stateMutability": "view"
    },
    {
      "type": "function",
      "name": "getTripleCost",
      "inputs": [],
      "outputs": [
        {
          "name": "",
          "type": "uint256",
          "internalType": "uint256"
        }
      ],
      "stateMutability": "view"
    },
    {
      "type": "function",
      "name": "getVaultStateForUser",
      "inputs": [
        {
          "name": "vaultId",
          "type": "uint256",
          "internalType": "uint256"
        },
        {
          "name": "receiver",
          "type": "address",
          "internalType": "address"
        }
      ],
      "outputs": [
        {
          "name": "",
          "type": "uint256",
          "internalType": "uint256"
        },
        {
          "name": "",
          "type": "uint256",
          "internalType": "uint256"
        }
      ],
      "stateMutability": "view"
    },
    {
      "type": "function",
      "name": "init",
      "inputs": [
        {
          "name": "_generalConfig",
          "type": "tuple",
          "internalType": "struct IEthMultiVault.GeneralConfig",
          "components": [
            {
              "name": "admin",
              "type": "address",
              "internalType": "address"
            },
            {
              "name": "protocolVault",
              "type": "address",
              "internalType": "address"
            },
            {
              "name": "feeDenominator",
              "type": "uint256",
              "internalType": "uint256"
            },
            {
              "name": "minDeposit",
              "type": "uint256",
              "internalType": "uint256"
            },
            {
              "name": "minShare",
              "type": "uint256",
              "internalType": "uint256"
            },
            {
              "name": "atomUriMaxLength",
              "type": "uint256",
              "internalType": "uint256"
            },
            {
              "name": "decimalPrecision",
              "type": "uint256",
              "internalType": "uint256"
            },
            {
              "name": "minDelay",
              "type": "uint256",
              "internalType": "uint256"
            }
          ]
        },
        {
          "name": "_atomConfig",
          "type": "tuple",
          "internalType": "struct IEthMultiVault.AtomConfig",
          "components": [
            {
              "name": "atomWalletInitialDepositAmount",
              "type": "uint256",
              "internalType": "uint256"
            },
            {
              "name": "atomCreationProtocolFee",
              "type": "uint256",
              "internalType": "uint256"
            }
          ]
        },
        {
          "name": "_tripleConfig",
          "type": "tuple",
          "internalType": "struct IEthMultiVault.TripleConfig",
          "components": [
            {
              "name": "tripleCreationProtocolFee",
              "type": "uint256",
              "internalType": "uint256"
            },
            {
              "name": "atomDepositFractionOnTripleCreation",
              "type": "uint256",
              "internalType": "uint256"
            },
            {
              "name": "atomDepositFractionForTriple",
              "type": "uint256",
              "internalType": "uint256"
            }
          ]
        },
        {
          "name": "_walletConfig",
          "type": "tuple",
          "internalType": "struct IEthMultiVault.WalletConfig",
          "components": [
            {
              "name": "permit2",
              "type": "address",
              "internalType": "contract IPermit2"
            },
            {
              "name": "entryPoint",
              "type": "address",
              "internalType": "address"
            },
            {
              "name": "atomWarden",
              "type": "address",
              "internalType": "address"
            },
            {
              "name": "atomWalletBeacon",
              "type": "address",
              "internalType": "address"
            }
          ]
        },
        {
          "name": "_defaultVaultFees",
          "type": "tuple",
          "internalType": "struct IEthMultiVault.VaultFees",
          "components": [
            {
              "name": "entryFee",
              "type": "uint256",
              "internalType": "uint256"
            },
            {
              "name": "exitFee",
              "type": "uint256",
              "internalType": "uint256"
            },
            {
              "name": "protocolFee",
              "type": "uint256",
              "internalType": "uint256"
            }
          ]
        }
      ],
      "outputs": [],
      "stateMutability": "nonpayable"
    },
    {
      "type": "function",
      "name": "isTriple",
      "inputs": [
        {
          "name": "",
          "type": "uint256",
          "internalType": "uint256"
        }
      ],
      "outputs": [
        {
          "name": "",
          "type": "bool",
          "internalType": "bool"
        }
      ],
      "stateMutability": "view"
    },
    {
      "type": "function",
      "name": "isTripleId",
      "inputs": [
        {
          "name": "id",
          "type": "uint256",
          "internalType": "uint256"
        }
      ],
      "outputs": [
        {
          "name": "",
          "type": "bool",
          "internalType": "bool"
        }
      ],
      "stateMutability": "view"
    },
    {
      "type": "function",
      "name": "maxRedeem",
      "inputs": [
        {
          "name": "owner",
          "type": "address",
          "internalType": "address"
        },
        {
          "name": "id",
          "type": "uint256",
          "internalType": "uint256"
        }
      ],
      "outputs": [
        {
          "name": "",
          "type": "uint256",
          "internalType": "uint256"
        }
      ],
      "stateMutability": "view"
    },
    {
      "type": "function",
      "name": "pause",
      "inputs": [],
      "outputs": [],
      "stateMutability": "nonpayable"
    },
    {
      "type": "function",
      "name": "paused",
      "inputs": [],
      "outputs": [
        {
          "name": "",
          "type": "bool",
          "internalType": "bool"
        }
      ],
      "stateMutability": "view"
    },
    {
      "type": "function",
      "name": "previewDeposit",
      "inputs": [
        {
          "name": "assets",
          "type": "uint256",
          "internalType": "uint256"
        },
        {
          "name": "id",
          "type": "uint256",
          "internalType": "uint256"
        }
      ],
      "outputs": [
        {
          "name": "",
          "type": "uint256",
          "internalType": "uint256"
        }
      ],
      "stateMutability": "view"
    },
    {
      "type": "function",
      "name": "previewRedeem",
      "inputs": [
        {
          "name": "shares",
          "type": "uint256",
          "internalType": "uint256"
        },
        {
          "name": "id",
          "type": "uint256",
          "internalType": "uint256"
        }
      ],
      "outputs": [
        {
          "name": "",
          "type": "uint256",
          "internalType": "uint256"
        }
      ],
      "stateMutability": "view"
    },
    {
      "type": "function",
      "name": "protocolFeeAmount",
      "inputs": [
        {
          "name": "assets",
          "type": "uint256",
          "internalType": "uint256"
        },
        {
          "name": "id",
          "type": "uint256",
          "internalType": "uint256"
        }
      ],
      "outputs": [
        {
          "name": "",
          "type": "uint256",
          "internalType": "uint256"
        }
      ],
      "stateMutability": "view"
    },
    {
      "type": "function",
      "name": "redeemAtom",
      "inputs": [
        {
          "name": "shares",
          "type": "uint256",
          "internalType": "uint256"
        },
        {
          "name": "receiver",
          "type": "address",
          "internalType": "address"
        },
        {
          "name": "id",
          "type": "uint256",
          "internalType": "uint256"
        }
      ],
      "outputs": [
        {
          "name": "",
          "type": "uint256",
          "internalType": "uint256"
        }
      ],
      "stateMutability": "nonpayable"
    },
    {
      "type": "function",
      "name": "redeemTriple",
      "inputs": [
        {
          "name": "shares",
          "type": "uint256",
          "internalType": "uint256"
        },
        {
          "name": "receiver",
          "type": "address",
          "internalType": "address"
        },
        {
          "name": "id",
          "type": "uint256",
          "internalType": "uint256"
        }
      ],
      "outputs": [
        {
          "name": "",
          "type": "uint256",
          "internalType": "uint256"
        }
      ],
      "stateMutability": "nonpayable"
    },
    {
      "type": "function",
      "name": "scheduleOperation",
      "inputs": [
        {
          "name": "operationId",
          "type": "bytes32",
          "internalType": "bytes32"
        },
        {
          "name": "data",
          "type": "bytes",
          "internalType": "bytes"
        }
      ],
      "outputs": [],
      "stateMutability": "nonpayable"
    },
    {
      "type": "function",
      "name": "setAdmin",
      "inputs": [
        {
          "name": "admin",
          "type": "address",
          "internalType": "address"
        }
      ],
      "outputs": [],
      "stateMutability": "nonpayable"
    },
    {
      "type": "function",
      "name": "setAtomCreationProtocolFee",
      "inputs": [
        {
          "name": "atomCreationProtocolFee",
          "type": "uint256",
          "internalType": "uint256"
        }
      ],
      "outputs": [],
      "stateMutability": "nonpayable"
    },
    {
      "type": "function",
      "name": "setAtomDepositFractionForTriple",
      "inputs": [
        {
          "name": "atomDepositFractionForTriple",
          "type": "uint256",
          "internalType": "uint256"
        }
      ],
      "outputs": [],
      "stateMutability": "nonpayable"
    },
    {
      "type": "function",
      "name": "setAtomUriMaxLength",
      "inputs": [
        {
          "name": "atomUriMaxLength",
          "type": "uint256",
          "internalType": "uint256"
        }
      ],
      "outputs": [],
      "stateMutability": "nonpayable"
    },
    {
      "type": "function",
      "name": "setAtomWalletInitialDepositAmount",
      "inputs": [
        {
          "name": "atomWalletInitialDepositAmount",
          "type": "uint256",
          "internalType": "uint256"
        }
      ],
      "outputs": [],
      "stateMutability": "nonpayable"
    },
    {
      "type": "function",
      "name": "setAtomWarden",
      "inputs": [
        {
          "name": "atomWarden",
          "type": "address",
          "internalType": "address"
        }
      ],
      "outputs": [],
      "stateMutability": "nonpayable"
    },
    {
      "type": "function",
      "name": "setEntryFee",
      "inputs": [
        {
          "name": "id",
          "type": "uint256",
          "internalType": "uint256"
        },
        {
          "name": "entryFee",
          "type": "uint256",
          "internalType": "uint256"
        }
      ],
      "outputs": [],
      "stateMutability": "nonpayable"
    },
    {
      "type": "function",
      "name": "setExitFee",
      "inputs": [
        {
          "name": "id",
          "type": "uint256",
          "internalType": "uint256"
        },
        {
          "name": "exitFee",
          "type": "uint256",
          "internalType": "uint256"
        }
      ],
      "outputs": [],
      "stateMutability": "nonpayable"
    },
    {
      "type": "function",
      "name": "setMinDeposit",
      "inputs": [
        {
          "name": "minDeposit",
          "type": "uint256",
          "internalType": "uint256"
        }
      ],
      "outputs": [],
      "stateMutability": "nonpayable"
    },
    {
      "type": "function",
      "name": "setMinShare",
      "inputs": [
        {
          "name": "minShare",
          "type": "uint256",
          "internalType": "uint256"
        }
      ],
      "outputs": [],
      "stateMutability": "nonpayable"
    },
    {
      "type": "function",
      "name": "setProtocolFee",
      "inputs": [
        {
          "name": "id",
          "type": "uint256",
          "internalType": "uint256"
        },
        {
          "name": "protocolFee",
          "type": "uint256",
          "internalType": "uint256"
        }
      ],
      "outputs": [],
      "stateMutability": "nonpayable"
    },
    {
      "type": "function",
      "name": "setProtocolVault",
      "inputs": [
        {
          "name": "protocolVault",
          "type": "address",
          "internalType": "address"
        }
      ],
      "outputs": [],
      "stateMutability": "nonpayable"
    },
    {
      "type": "function",
      "name": "setTripleCreationProtocolFee",
      "inputs": [
        {
          "name": "tripleCreationProtocolFee",
          "type": "uint256",
          "internalType": "uint256"
        }
      ],
      "outputs": [],
      "stateMutability": "nonpayable"
    },
    {
      "type": "function",
      "name": "timelocks",
      "inputs": [
        {
          "name": "",
          "type": "bytes32",
          "internalType": "bytes32"
        }
      ],
      "outputs": [
        {
          "name": "data",
          "type": "bytes",
          "internalType": "bytes"
        },
        {
          "name": "readyTime",
          "type": "uint256",
          "internalType": "uint256"
        },
        {
          "name": "executed",
          "type": "bool",
          "internalType": "bool"
        }
      ],
      "stateMutability": "view"
    },
    {
      "type": "function",
      "name": "tripleAtomShares",
      "inputs": [
        {
          "name": "",
          "type": "uint256",
          "internalType": "uint256"
        },
        {
          "name": "",
          "type": "uint256",
          "internalType": "uint256"
        },
        {
          "name": "",
          "type": "address",
          "internalType": "address"
        }
      ],
      "outputs": [
        {
          "name": "",
          "type": "uint256",
          "internalType": "uint256"
        }
      ],
      "stateMutability": "view"
    },
    {
      "type": "function",
      "name": "tripleConfig",
      "inputs": [],
      "outputs": [
        {
          "name": "tripleCreationProtocolFee",
          "type": "uint256",
          "internalType": "uint256"
        },
        {
          "name": "atomDepositFractionOnTripleCreation",
          "type": "uint256",
          "internalType": "uint256"
        },
        {
          "name": "atomDepositFractionForTriple",
          "type": "uint256",
          "internalType": "uint256"
        }
      ],
      "stateMutability": "view"
    },
    {
      "type": "function",
      "name": "tripleHash",
      "inputs": [
        {
          "name": "id",
          "type": "uint256",
          "internalType": "uint256"
        }
      ],
      "outputs": [
        {
          "name": "",
          "type": "bytes32",
          "internalType": "bytes32"
        }
      ],
      "stateMutability": "view"
    },
    {
      "type": "function",
      "name": "tripleHashFromAtoms",
      "inputs": [
        {
          "name": "subjectId",
          "type": "uint256",
          "internalType": "uint256"
        },
        {
          "name": "predicateId",
          "type": "uint256",
          "internalType": "uint256"
        },
        {
          "name": "objectId",
          "type": "uint256",
          "internalType": "uint256"
        }
      ],
      "outputs": [
        {
          "name": "",
          "type": "bytes32",
          "internalType": "bytes32"
        }
      ],
      "stateMutability": "pure"
    },
    {
      "type": "function",
      "name": "triples",
      "inputs": [
        {
          "name": "",
          "type": "uint256",
          "internalType": "uint256"
        },
        {
          "name": "",
          "type": "uint256",
          "internalType": "uint256"
        }
      ],
      "outputs": [
        {
          "name": "",
          "type": "uint256",
          "internalType": "uint256"
        }
      ],
      "stateMutability": "view"
    },
    {
      "type": "function",
      "name": "triplesByHash",
      "inputs": [
        {
          "name": "",
          "type": "bytes32",
          "internalType": "bytes32"
        }
      ],
      "outputs": [
        {
          "name": "",
          "type": "uint256",
          "internalType": "uint256"
        }
      ],
      "stateMutability": "view"
    },
    {
      "type": "function",
      "name": "unpause",
      "inputs": [],
      "outputs": [],
      "stateMutability": "nonpayable"
    },
    {
      "type": "function",
      "name": "vaultFees",
      "inputs": [
        {
          "name": "",
          "type": "uint256",
          "internalType": "uint256"
        }
      ],
      "outputs": [
        {
          "name": "entryFee",
          "type": "uint256",
          "internalType": "uint256"
        },
        {
          "name": "exitFee",
          "type": "uint256",
          "internalType": "uint256"
        },
        {
          "name": "protocolFee",
          "type": "uint256",
          "internalType": "uint256"
        }
      ],
      "stateMutability": "view"
    },
    {
      "type": "function",
      "name": "vaults",
      "inputs": [
        {
          "name": "",
          "type": "uint256",
          "internalType": "uint256"
        }
      ],
      "outputs": [
        {
          "name": "totalAssets",
          "type": "uint256",
          "internalType": "uint256"
        },
        {
          "name": "totalShares",
          "type": "uint256",
          "internalType": "uint256"
        }
      ],
      "stateMutability": "view"
    },
    {
      "type": "function",
      "name": "walletConfig",
      "inputs": [],
      "outputs": [
        {
          "name": "permit2",
          "type": "address",
          "internalType": "contract IPermit2"
        },
        {
          "name": "entryPoint",
          "type": "address",
          "internalType": "address"
        },
        {
          "name": "atomWarden",
          "type": "address",
          "internalType": "address"
        },
        {
          "name": "atomWalletBeacon",
          "type": "address",
          "internalType": "address"
        }
      ],
      "stateMutability": "view"
    },
    {
      "type": "event",
      "name": "AtomCreated",
      "inputs": [
        {
          "name": "creator",
          "type": "address",
          "indexed": true,
          "internalType": "address"
        },
        {
          "name": "atomWallet",
          "type": "address",
          "indexed": true,
          "internalType": "address"
        },
        {
          "name": "atomData",
          "type": "bytes",
          "indexed": false,
          "internalType": "bytes"
        },
        {
          "name": "vaultID",
          "type": "uint256",
          "indexed": false,
          "internalType": "uint256"
        }
      ],
      "anonymous": false
    },
    {
      "type": "event",
      "name": "Deposited",
      "inputs": [
        {
          "name": "sender",
          "type": "address",
          "indexed": true,
          "internalType": "address"
        },
        {
          "name": "receiver",
          "type": "address",
          "indexed": true,
          "internalType": "address"
        },
        {
          "name": "vaultBalance",
          "type": "uint256",
          "indexed": false,
          "internalType": "uint256"
        },
        {
          "name": "userAssetsAfterTotalFees",
          "type": "uint256",
          "indexed": false,
          "internalType": "uint256"
        },
        {
          "name": "sharesForReceiver",
          "type": "uint256",
          "indexed": false,
          "internalType": "uint256"
        },
        {
          "name": "entryFee",
          "type": "uint256",
          "indexed": false,
          "internalType": "uint256"
        },
        {
          "name": "id",
          "type": "uint256",
          "indexed": false,
          "internalType": "uint256"
        }
      ],
      "anonymous": false
    },
    {
      "type": "event",
      "name": "FeesTransferred",
      "inputs": [
        {
          "name": "sender",
          "type": "address",
          "indexed": true,
          "internalType": "address"
        },
        {
          "name": "protocolVault",
          "type": "address",
          "indexed": true,
          "internalType": "address"
        },
        {
          "name": "amount",
          "type": "uint256",
          "indexed": false,
          "internalType": "uint256"
        }
      ],
      "anonymous": false
    },
    {
      "type": "event",
      "name": "Initialized",
      "inputs": [
        {
          "name": "version",
          "type": "uint64",
          "indexed": false,
          "internalType": "uint64"
        }
      ],
      "anonymous": false
    },
    {
      "type": "event",
      "name": "Paused",
      "inputs": [
        {
          "name": "account",
          "type": "address",
          "indexed": false,
          "internalType": "address"
        }
      ],
      "anonymous": false
    },
    {
      "type": "event",
      "name": "Redeemed",
      "inputs": [
        {
          "name": "sender",
          "type": "address",
          "indexed": true,
          "internalType": "address"
        },
        {
          "name": "owner",
          "type": "address",
          "indexed": true,
          "internalType": "address"
        },
        {
          "name": "vaultBalance",
          "type": "uint256",
          "indexed": false,
          "internalType": "uint256"
        },
        {
          "name": "assetsForReceiver",
          "type": "uint256",
          "indexed": false,
          "internalType": "uint256"
        },
        {
          "name": "shares",
          "type": "uint256",
          "indexed": false,
          "internalType": "uint256"
        },
        {
          "name": "exitFee",
          "type": "uint256",
          "indexed": false,
          "internalType": "uint256"
        },
        {
          "name": "id",
          "type": "uint256",
          "indexed": false,
          "internalType": "uint256"
        }
      ],
      "anonymous": false
    },
    {
      "type": "event",
      "name": "TripleCreated",
      "inputs": [
        {
          "name": "creator",
          "type": "address",
          "indexed": true,
          "internalType": "address"
        },
        {
          "name": "subjectId",
          "type": "uint256",
          "indexed": false,
          "internalType": "uint256"
        },
        {
          "name": "predicateId",
          "type": "uint256",
          "indexed": false,
          "internalType": "uint256"
        },
        {
          "name": "objectId",
          "type": "uint256",
          "indexed": false,
          "internalType": "uint256"
        },
        {
          "name": "vaultID",
          "type": "uint256",
          "indexed": false,
          "internalType": "uint256"
        }
      ],
      "anonymous": false
    },
    {
      "type": "event",
      "name": "Unpaused",
      "inputs": [
        {
          "name": "account",
          "type": "address",
          "indexed": false,
          "internalType": "address"
        }
      ],
      "anonymous": false
    },
    {
      "type": "error",
      "name": "EnforcedPause",
      "inputs": []
    },
    {
      "type": "error",
      "name": "ExpectedPause",
      "inputs": []
    },
    {
      "type": "error",
      "name": "InvalidInitialization",
      "inputs": []
    },
    {
      "type": "error",
      "name": "MultiVault_AdminOnly",
      "inputs": []
    },
    {
      "type": "error",
      "name": "MultiVault_ArraysNotSameLength",
      "inputs": []
    },
    {
      "type": "error",
      "name": "MultiVault_AtomDoesNotExist",
      "inputs": [
        {
          "name": "atomId",
          "type": "uint256",
          "internalType": "uint256"
        }
      ]
    },
    {
      "type": "error",
      "name": "MultiVault_AtomExists",
      "inputs": [
        {
          "name": "atomUri",
          "type": "bytes",
          "internalType": "bytes"
        }
      ]
    },
    {
      "type": "error",
      "name": "MultiVault_AtomUriTooLong",
      "inputs": []
    },
    {
      "type": "error",
      "name": "MultiVault_BurnFromZeroAddress",
      "inputs": []
    },
    {
      "type": "error",
      "name": "MultiVault_BurnInsufficientBalance",
      "inputs": []
    },
    {
      "type": "error",
      "name": "MultiVault_DeployAccountFailed",
      "inputs": []
    },
    {
      "type": "error",
      "name": "MultiVault_DepositOrWithdrawZeroShares",
      "inputs": []
    },
    {
      "type": "error",
      "name": "MultiVault_HasCounterStake",
      "inputs": []
    },
    {
      "type": "error",
      "name": "MultiVault_InsufficientBalance",
      "inputs": []
    },
    {
      "type": "error",
      "name": "MultiVault_InsufficientDepositAmountToCoverFees",
      "inputs": []
    },
    {
      "type": "error",
      "name": "MultiVault_InsufficientRemainingSharesInVault",
      "inputs": [
        {
          "name": "remainingShares",
          "type": "uint256",
          "internalType": "uint256"
        }
      ]
    },
    {
      "type": "error",
      "name": "MultiVault_InsufficientSharesInVault",
      "inputs": []
    },
    {
      "type": "error",
      "name": "MultiVault_InvalidExitFee",
      "inputs": []
    },
    {
      "type": "error",
      "name": "MultiVault_InvalidFeeSet",
      "inputs": []
    },
    {
      "type": "error",
      "name": "MultiVault_MinimumDeposit",
      "inputs": []
    },
    {
      "type": "error",
      "name": "MultiVault_OperationAlreadyExecuted",
      "inputs": []
    },
    {
      "type": "error",
      "name": "MultiVault_OperationAlreadyScheduled",
      "inputs": []
    },
    {
      "type": "error",
      "name": "MultiVault_OperationNotScheduled",
      "inputs": []
    },
    {
      "type": "error",
      "name": "MultiVault_ReceiveNotAllowed",
      "inputs": []
    },
    {
      "type": "error",
      "name": "MultiVault_TimelockNotExpired",
      "inputs": []
    },
    {
      "type": "error",
      "name": "MultiVault_TransferFailed",
      "inputs": []
    },
    {
      "type": "error",
      "name": "MultiVault_TripleExists",
      "inputs": [
        {
          "name": "subjectId",
          "type": "uint256",
          "internalType": "uint256"
        },
        {
          "name": "predicateId",
          "type": "uint256",
          "internalType": "uint256"
        },
        {
          "name": "objectId",
          "type": "uint256",
          "internalType": "uint256"
        }
      ]
    },
    {
      "type": "error",
      "name": "MultiVault_VaultDoesNotExist",
      "inputs": []
    },
    {
      "type": "error",
      "name": "MultiVault_VaultIsTriple",
      "inputs": [
        {
          "name": "vaultId",
          "type": "uint256",
          "internalType": "uint256"
        }
      ]
    },
    {
      "type": "error",
      "name": "MultiVault_VaultNotAtom",
      "inputs": []
    },
    {
      "type": "error",
      "name": "MultiVault_VaultNotTriple",
      "inputs": []
    },
    {
      "type": "error",
      "name": "NotInitializing",
      "inputs": []
    },
    {
      "type": "error",
      "name": "ReentrancyGuardReentrantCall",
      "inputs": []
    }
  ],
  "bytecode": {
    "object": "0x608060405234801561001057600080fd5b50614fd3806100206000396000f3fe6080604052600436106200044a5760003560e01c8063704b6c02116200023b578063b790e6721162000133578063db04a47c11620000bb578063e3b764af1162000085578063e3b764af1462000f06578063ee9dd98f1462000f37578063f10c9f9b1462000f5c578063f315a94e1462000f73578063f903ff721462000fa75762000469565b8063db04a47c1462000e55578063db2088f41462000e97578063dc5adb8c1462000ebc578063de3cca601462000ee15762000469565b8063c61703ac11620000fd578063c61703ac1462000d5d578063c9ceddb81462000d91578063cfc15f151462000dc7578063d34ddc051462000dec5762000469565b8063b790e6721462000cc9578063bb7dd3791462000cee578063bbec4d061462000d13578063c26388e31462000d385762000469565b80638c64ea4a11620001c3578063927a97a1116200018d578063927a97a11462000bad5780639f49b60e1462000c35578063a4ddc7861462000c5a578063ab2385651462000c7f578063ae0a15421462000ca45762000469565b80638c64ea4a1462000b035780638daf74431462000b3b5780638fcc9cfb1462000b52578063908555921462000b775762000469565b80638456cb5911620002055780638456cb591462000a8f57806384e100db1462000aa7578063859aa9711462000ac7578063890652561462000ade5762000469565b8063704b6c0214620009bc5780637a7af70d14620009e15780637c3736611462000a065780637f833f041462000a5c5762000469565b80633800c5c4116200034f5780635408eec911620002d757806361d2a65711620002a157806361d2a657146200090257806365f64685146200092757806366e34a33146200094d57806367ab759414620009725780636cc18d4014620009975762000469565b80635408eec9146200085357806356d54d68146200087857806359b125d2146200089d5780635c975abb14620008ce5762000469565b80633f4ba83a11620003195780633f4ba83a14620007a4578063441d1c2f14620007bc5780634abe413714620007d35780634d592c6a146200081d5762000469565b80633800c5c4146200071e57806339a38449146200074357806339c4f49c146200076857806339c5dec7146200077f5762000469565b80631d35900a11620003d35780632a22fec5116200039d5780632a22fec514620006975780632dd4264414620006bc57806333332d3914620006e1578063340a281214620006f95762000469565b80631d35900a14620005cb5780631e19e2c81462000611578063220613791462000632578063240de27714620006725762000469565b80630cde801b11620004155780630cde801b14620005285780630d65c91c146200056957806313aaab971462000581578063181e7b3b14620005a65762000469565b80621fc87d146200047557806304c89bc6146200049a57806306661abd14620004d25780630ac819db14620004ea5762000469565b3662000469576040516307a15ef160e51b815260040160405180910390fd5b6200047362000fcc565b005b3480156200048257600080fd5b50620004736200049436600462003ec9565b6200106c565b348015620004a757600080fd5b50620004bf620004b936600462003ee9565b620010ba565b6040519081526020015b60405180910390f35b348015620004df57600080fd5b50620004bf60115481565b348015620004f757600080fd5b506200050f6200050936600462003f0c565b62001119565b6040516001600160a01b039091168152602001620004c9565b3480156200053557600080fd5b506200054d6200054736600462003f0c565b62001193565b60408051938452602084019290925290820152606001620004c9565b3480156200057657600080fd5b50620004bf62001251565b3480156200058e57600080fd5b50620004bf620005a036600462003f0c565b62001284565b348015620005b357600080fd5b50620004bf620005c536600462003ee9565b620012e3565b348015620005d857600080fd5b50620005f0620005ea36600462003ee9565b62001329565b604080519485526020850193909352918301526060820152608001620004c9565b3480156200061e57600080fd5b50600a54600b54600c546200054d92919083565b3480156200063f57600080fd5b506200054d6200065136600462003f0c565b60136020526000908152604090208054600182015460029092015490919083565b3480156200067f57600080fd5b50620004736200069136600462003ee9565b62001411565b348015620006a457600080fd5b5062000473620006b636600462003f0c565b62001476565b348015620006c957600080fd5b5062000473620006db36600462003f0c565b620014a7565b348015620006ee57600080fd5b50620004bf620014d8565b3480156200070657600080fd5b50620004736200071836600462003f0c565b620014f4565b3480156200072b57600080fd5b50620004bf6200073d36600462003f26565b62001525565b3480156200075057600080fd5b50620004bf6200076236600462003ee9565b6200163e565b620004bf6200077936600462003f61565b62001695565b3480156200078c57600080fd5b50620004736200079e36600462003ec9565b6200170d565b348015620007b157600080fd5b50620004736200175b565b620004bf620007cd36600462003f8e565b62001793565b348015620007e057600080fd5b50620004bf620007f236600462003f8e565b60009081526012602090815260408083206001600160a01b0394909416835260029093019052205490565b3480156200082a57600080fd5b50620004bf7f778822020b59638b22ca9362f2de4db01600920f59fc336582386847a4f2ec0a81565b3480156200086057600080fd5b50620004736200087236600462003ee9565b6200187e565b3480156200088557600080fd5b50620004736200089736600462004001565b620018e0565b348015620008aa57600080fd5b50620004bf620008bc36600462003f0c565b60176020526000908152604090205481565b348015620008db57600080fd5b5060008051602062004f5e8339815191525460ff165b6040519015158152602001620004c9565b3480156200090f57600080fd5b506200047362000921366004620041d7565b62001a18565b6200093e6200093836600462004309565b62001d29565b604051620004c991906200434e565b3480156200095a57600080fd5b50620008f16200096c36600462003f0c565b62001eae565b3480156200097f57600080fd5b50620005f06200099136600462003ee9565b62001f0f565b348015620009a457600080fd5b5062000473620009b636600462003f0c565b62001fad565b348015620009c957600080fd5b5062000473620009db36600462003ec9565b62001fde565b348015620009ee57600080fd5b50620004bf62000a0036600462003ee9565b620020e8565b34801562000a1357600080fd5b50620004bf62000a2536600462003f61565b6040805160208082019590955280820193909352606080840192909252805180840390920182526080909201909152805191012090565b34801562000a6957600080fd5b5060085460095462000a79919082565b60408051928352602083019190915201620004c9565b34801562000a9c57600080fd5b506200047362002103565b34801562000ab457600080fd5b50600f546001600160a01b03166200050f565b620004bf62000ad836600462003f8e565b62002139565b34801562000aeb57600080fd5b5062000a7962000afd36600462004388565b6200223e565b34801562000b1057600080fd5b5062000a7962000b2236600462003f0c565b6012602052600090815260409020805460019091015482565b6200093e62000b4c366004620043bb565b62002285565b34801562000b5f57600080fd5b506200047362000b7136600462003f0c565b62002472565b34801562000b8457600080fd5b50620004bf7f7925972c66d280d08f7e7a6e3f3aae3eb40e786fe30284acf451c52bdc133abd81565b34801562000bba57600080fd5b5060005460015460025460035460045460055460065460075462000bee976001600160a01b03908116971695949392919088565b604080516001600160a01b03998a168152989097166020890152958701949094526060860192909252608085015260a084015260c083015260e082015261010001620004c9565b34801562000c4257600080fd5b506200047362000c5436600462003ee9565b620024a3565b34801562000c6757600080fd5b50620004bf62000c7936600462003ee9565b620025dc565b34801562000c8c57600080fd5b506200047362000c9e36600462003f0c565b62002655565b34801562000cb157600080fd5b50620004bf62000cc336600462003ee9565b62002686565b34801562000cd657600080fd5b50620004bf62000ce836600462003f26565b620026dd565b34801562000cfb57600080fd5b50620004bf62000d0d36600462003f0c565b62002712565b34801562000d2057600080fd5b50620004bf62000d3236600462003ee9565b62002722565b34801562000d4557600080fd5b50620004bf62000d5736600462003ee9565b62002731565b34801562000d6a57600080fd5b50620008f162000d7c36600462003f0c565b60186020526000908152604090205460ff1681565b34801562000d9e57600080fd5b5062000db662000db036600462003f0c565b62002765565b604051620004c993929190620044b2565b34801562000dd457600080fd5b50620004bf62000de636600462003ee9565b6200281b565b34801562000df957600080fd5b50600d54600e54600f5460105462000e21936001600160a01b03908116938116928116911684565b604080516001600160a01b0395861681529385166020850152918416918301919091529091166060820152608001620004c9565b34801562000e6257600080fd5b50620004bf62000e74366004620044de565b601960209081526000938452604080852082529284528284209052825290205481565b34801562000ea457600080fd5b50620004bf62000eb636600462003ee9565b62002841565b34801562000ec957600080fd5b506200050f62000edb36600462003f0c565b62002879565b34801562000eee57600080fd5b506200047362000f0036600462004001565b62002902565b34801562000f1357600080fd5b50620004bf62000f2536600462003f0c565b60156020526000908152604090205481565b34801562000f4457600080fd5b50620004bf62000f5636600462003f0c565b62002abc565b620004bf62000f6d3660046200451a565b62002b11565b34801562000f8057600080fd5b5062000f9862000f9236600462003f0c565b62002ba5565b604051620004c9919062004553565b34801562000fb457600080fd5b506200047362000fc636600462003f0c565b62002c47565b3662000fd6573636f35b6000805b8036821062000fea57506200104a565b600180830192600319810190351860001a90816200103957600019855260028301933560021984011860001a607f80821162001027578282013888395b1694909401909301925062000fda9050565b818553808501945050505062000fda565b50600038826000305af490503d6000803e8062001066573d6000fd5b503d6000f35b6000546001600160a01b03163314620010985760405163344c21f360e11b815260040160405180910390fd5b600f80546001600160a01b0319166001600160a01b0392909216919091179055565b600081815260136020526040812054816200110e858315620010dd578362002c78565b6000805260136020527f8fa6efc3be94b5b348b21fea823fe8d100408cee9b7f90524494500445d8ff6c5462002c78565b925050505b92915050565b600081816200112762002c8d565b8051602091820120604080516001600160f81b0319818501523060601b6bffffffffffffffffffffffff19166021820152603581019590955260558086019290925280518086039092018252607590940190935282519201919091206001600160a01b03169392505050565b6000808080620011a760026000196200457e565b85119050600081620011c7576000868152601660205260409020620011e8565b60166000620011d988600019620045a1565b81526020019081526020016000205b604080516060810191829052919060039082845b815481526020019060010190808311620011fc5750505050509050806000600381106200122d576200122d620045b7565b60200201518160016020020151826002602002015194509450945050509193909250565b600454600090819062001266906002620045cd565b600b54600a54620012789190620045e7565b620011139190620045e7565b60006200129062003dde565b6200129b8362001193565b60408085018290526020808601849052848652815190810194909452830191909152606082015260800160405160208183030381529060405280519060200120915050919050565b60008181526012602052604081206001015481811562001320576000848152601260205260409020546200131a9086908462002d71565b6200110e565b50929392505050565b600081815260126020526040812060010154819081908190819062001350908890620045a1565b90506000620013608888620012e3565b90506000806200138060008051602062004f5e8339815191525460ff1690565b156200139257506000905080620013e1565b6004548403620013b357506000620013ab838a6200163e565b9150620013e1565b620013bf838a6200163e565b91506000620013cf8385620045a1565b9050620013dd818b62002686565b9150505b82600083620013f18484620045a1565b620013fd9190620045a1565b919c919b5092995090975095505050505050565b6000546001600160a01b031633146200143d5760405163344c21f360e11b815260040160405180910390fd5b6002548111156200146157604051630c88ef4160e21b815260040160405180910390fd5b60009182526013602052604090912060020155565b6000546001600160a01b03163314620014a25760405163344c21f360e11b815260040160405180910390fd5b600455565b6000546001600160a01b03163314620014d35760405163344c21f360e11b815260040160405180910390fd5b600855565b60045460085460095460009283929091620012789190620045e7565b6000546001600160a01b03163314620015205760405163344c21f360e11b815260040160405180910390fd5b600555565b60006200153162002d99565b81158062001540575060115482115b156200155f57604051631dd74dd360e21b815260040160405180910390fd5b6200156a8262001eae565b1562001589576040516330a1237960e11b815260040160405180910390fd5b6000806200159984338862002dd3565b915091506000856001600160a01b03168360405160006040518083038185875af1925050503d8060008114620015ec576040519150601f19603f3d011682016040523d82523d6000602084013e620015f1565b606091505b50509050806200161457604051636053f14b60e01b815260040160405180910390fd5b6200161f8262002f93565b5050600160008051602062004f7e8339815191525590505b9392505050565b600081815260136020526040812060020154816200110e85831562001664578362002c78565b6000805260136020527f8fa6efc3be94b5b348b21fea823fe8d100408cee9b7f90524494500445d8ff6e5462002c78565b6000620016a162002d99565b620016ab62003073565b620016b562001251565b341015620016d657604051637b0a37cf60e01b815260040160405180910390fd5b600080620016e786868634620030a6565b91509150600081600a60000154620017009190620045e7565b90506200161f8162002f93565b6000546001600160a01b03163314620017395760405163344c21f360e11b815260040160405180910390fd5b600180546001600160a01b0319166001600160a01b0392909216919091179055565b6000546001600160a01b03163314620017875760405163344c21f360e11b815260040160405180910390fd5b6200179162003422565b565b60006200179f62002d99565b620017a962003073565b811580620017b8575060115482115b15620017d757604051631dd74dd360e21b815260040160405180910390fd5b620017e28262001eae565b1562001801576040516330a1237960e11b815260040160405180910390fd5b600354341015620018255760405163214d1c9760e11b815260040160405180910390fd5b60006200183334846200163e565b90506000620018438234620045a1565b905060006200185486868462003485565b9050620018618362002f93565b9250505062001113600160008051602062004f7e83398151915255565b6000546001600160a01b03163314620018aa5760405163344c21f360e11b815260040160405180910390fd5b600254811115620018ce57604051630c88ef4160e21b815260040160405180910390fd5b60009182526013602052604090912055565b6000546001600160a01b031633146200190c5760405163344c21f360e11b815260040160405180910390fd5b6007546040516000906200192b908690869086908690602001620045fd565b60408051601f1981840301815291815281516020928301206000818152601a9093529120600101549091501562001975576040516323dd65e160e21b815260040160405180910390fd5b6000620019838342620045e7565b6040805160806020601f89018190040282018101909252606081018781529293509182918890889081908501838280828437600092018290525093855250505060208083018590526040928301829052858252601a90522081518190620019eb9082620046a3565b50602082015160018201556040909101516002909101805460ff1916911515919091179055505050505050565b7ff0c57e16840df040f15088dc2f81fe391c3923bec73e23a9662efc9c229c6a008054600160401b810460ff1615906001600160401b031660008115801562001a5e5750825b90506000826001600160401b0316600114801562001a7b5750303b155b90508115801562001a8a575080155b1562001aa95760405163f92ee8a960e01b815260040160405180910390fd5b845467ffffffffffffffff19166001178555831562001ad457845460ff60401b1916600160401b1785555b62001ade620035c5565b62001ae8620035d9565b896000808201518160000160006101000a8154816001600160a01b0302191690836001600160a01b0316021790555060208201518160010160006101000a8154816001600160a01b0302191690836001600160a01b0316021790555060408201518160020155606082015181600301556080820151816004015560a0820151816005015560c0820151816006015560e08201518160070155905050886008600082015181600001556020820151816001015590505087600a60008201518160000155602082015181600101556040820151816002015590505086600d60008201518160000160006101000a8154816001600160a01b0302191690836001600160a01b0316021790555060208201518160010160006101000a8154816001600160a01b0302191690836001600160a01b0316021790555060408201518160020160006101000a8154816001600160a01b0302191690836001600160a01b0316021790555060608201518160030160006101000a8154816001600160a01b0302191690836001600160a01b0316021790555090505060405180606001604052808760000151815260200187602001518152602001876040015181525060136000808152602001908152602001600020600082015181600001556020820151816001015560408201518160020155905050831562001d1d57845460ff60401b19168555604051600181527fc7f505b2f371ae2175ee4913f4499e1f2633a7b5936321eed1cdaeb6115181d29060200160405180910390a15b50505050505050505050565b606062001d3562002d99565b62001d3f62003073565b818062001d4b620014d8565b62001d579190620045cd565b34101562001d7857604051637b0a37cf60e01b815260040160405180910390fd5b600062001d8682346200457e565b9050600080836001600160401b0381111562001da65762001da662004050565b60405190808252806020026020018201604052801562001dd0578160200160208202803683370190505b50905060005b8481101562001e5f57600062001e1589898481811062001dfa5762001dfa620045b7565b905060200281019062001e0e91906200476f565b87620035ed565b84848151811062001e2a5762001e2a620045b7565b6020908102919091010191909152905062001e468185620045e7565b935050808062001e5690620047b8565b91505062001dd6565b506000828560086001015462001e769190620045cd565b62001e829190620045e7565b905062001e8f8162002f93565b50935050505062001113600160008051602062004f7e83398151915255565b60008062001ec060026000196200457e565b831190508062001ee25760008381526018602052604090205460ff1662001637565b6018600062001ef485600019620045a1565b815260208101919091526040016000205460ff169392505050565b600080600080600062001f23878762002731565b9050600062001f338289620045a1565b9050600062001f43838a620045a1565b60045460008a815260126020526040812060010154929350910362001f6b5750600062001f7a565b62001f77838a620010ba565b90505b600062001f888285620045a1565b9050600062001f98828c62002841565b939c939b509099509097509095505050505050565b6000546001600160a01b0316331462001fd95760405163344c21f360e11b815260040160405180910390fd5b600a55565b6000546001600160a01b031633146200200a5760405163344c21f360e11b815260040160405180910390fd5b604080516001600160a01b0383166024808301919091528251808303909101815260449091018252602080820180516001600160e01b0316633825b60160e11b1790526007549251919260009262002089927f778822020b59638b22ca9362f2de4db01600920f59fc336582386847a4f2ec0a928692909101620047d4565b604051602081830303815290604052805190602001209050620020ac816200377f565b600080546001600160a01b0319166001600160a01b0394909416939093178355825250601a60205260409020600201805460ff19166001179055565b600080620020f7848462001f0f565b50909695505050505050565b6000546001600160a01b031633146200212f5760405163344c21f360e11b815260040160405180910390fd5b62001791620038c3565b60006200214562002d99565b6200214f62003073565b6200215a8262001eae565b6200217857604051632abf634360e01b815260040160405180910390fd5b62002184828462003910565b15620021a35760405163332c26cd60e01b815260040160405180910390fd5b600354341015620021c75760405163214d1c9760e11b815260040160405180910390fd5b6000620021d534846200163e565b90506000620021e58234620045a1565b90506000620021f686868462003485565b9050620022038362002f93565b600062002211838762002731565b9050620022208688836200398c565b509250505062001113600160008051602062004f7e83398151915255565b60008281526012602090815260408083206001600160a01b038516845260020190915281205481908162002273828762001329565b509395509093505050505b9250929050565b60606200229162002d99565b6200229b62003073565b8584141580620022ab5750858214155b15620022ca5760405163479ca36960e01b815260040160405180910390fd5b856000620022d762001251565b9050620022e58282620045cd565b3410156200230657604051637b0a37cf60e01b815260040160405180910390fd5b60006200231483346200457e565b9050600080846001600160401b0381111562002334576200233462004050565b6040519080825280602002602001820160405280156200235e578160200160208202803683370190505b50905060005b8581101562002418576000620023ce8e8e84818110620023885762002388620045b7565b905060200201358d8d85818110620023a457620023a4620045b7565b905060200201358c8c86818110620023c057620023c0620045b7565b9050602002013588620030a6565b848481518110620023e357620023e3620045b7565b60209081029190910101919091529050620023ff8185620045e7565b93505080806200240f90620047b8565b91505062002364565b5060008286600a600001546200242f9190620045cd565b6200243b9190620045e7565b9050620024488162002f93565b5094505050505062002468600160008051602062004f7e83398151915255565b9695505050505050565b6000546001600160a01b031633146200249e5760405163344c21f360e11b815260040160405180910390fd5b600355565b6000546001600160a01b03163314620024cf5760405163344c21f360e11b815260040160405180910390fd5b600254600090620024e390600a906200457e565b9050808211156200250757604051635cbe946f60e01b815260040160405180910390fd5b604080516024810185905260448082018590528251808303909101815260649091018252602080820180516001600160e01b0316634fa4db0760e11b1790526007549251919260009262002582927f7925972c66d280d08f7e7a6e3f3aae3eb40e786fe30284acf451c52bdc133abd928692909101620047d4565b604051602081830303815290604052805190602001209050620025a5816200377f565b6000948552601360209081526040808720600190810196909655918652601a9052909320600201805460ff19169092179091555050565b600080620025eb84846200163e565b90506000620025fb8286620045a1565b905060006200260b828662002731565b905060006200261b8284620045a1565b905060006200262b8288620010ba565b90506000816200263c8588620045e7565b620026489190620045e7565b9998505050505050505050565b6000546001600160a01b03163314620026815760405163344c21f360e11b815260040160405180910390fd5b600c55565b600081815260136020526040812060010154816200110e858315620026ac578362002c78565b6000805260136020527f8fa6efc3be94b5b348b21fea823fe8d100408cee9b7f90524494500445d8ff6d5462002c78565b6000620026e962002d99565b620026f48262001eae565b6200158957604051632abf634360e01b815260040160405180910390fd5b60006200111382600019620045a1565b600080620020f7848462001329565b6000806200273f8362001eae565b6200274c5760006200275d565b6200275d84600a6002015462002c78565b949350505050565b601a60205260009081526040902080548190620027829062004618565b80601f0160208091040260200160405190810160405280929190818152602001828054620027b09062004618565b8015620028015780601f10620027d55761010080835404028352916020019162002801565b820191906000526020600020905b815481529060010190602001808311620027e357829003601f168201915b50505050600183015460029093015491929160ff16905083565b601660205281600052604060002081600381106200283857600080fd5b01549150829050565b60008181526012602052604081206001015481811562001320576000848152601260205260409020546200131a908690849062002d71565b60006200288562003073565b81158062002894575060115482115b15620028b357604051631dd74dd360e21b815260040160405180910390fd5b816000620028c062002c8d565b90506000828251602084016000f590506001600160a01b038116620028f8576040516349054c2f60e01b815260040160405180910390fd5b925050505b919050565b6000546001600160a01b031633146200292e5760405163344c21f360e11b815260040160405180910390fd5b6007546040516000916200294c9186918691869190602001620045fd565b6040516020818303038152906040528051906020012090506000601a6000838152602001908152602001600020604051806060016040529081600082018054620029969062004618565b80601f0160208091040260200160405190810160405280929190818152602001828054620029c49062004618565b801562002a155780601f10620029e95761010080835404028352916020019162002a15565b820191906000526020600020905b815481529060010190602001808311620029f757829003601f168201915b5050509183525050600182015460208083019190915260029092015460ff16151560409091015281015190915060000362002a6357604051630268c8ed60e51b815260040160405180910390fd5b80604001511562002a8757604051631647946960e11b815260040160405180910390fd5b6000828152601a602052604081209062002aa2828262003dfc565b5060006001820155600201805460ff191690555050505050565b60008181526012602052604081206001015481811562002b0757600654600085815260126020526040902054839162002af591620045cd565b62002b0191906200457e565b6200275d565b6000949350505050565b600062002b1d62002d99565b62002b2762003073565b62002b31620014d8565b34101562002b5257604051637b0a37cf60e01b815260040160405180910390fd5b60008062002b62858534620035ed565b9150915060008160086001015462002b7b9190620045e7565b905062002b888162002f93565b5050600160008051602062004f7e83398151915255905062001113565b6014602052600090815260409020805462002bc09062004618565b80601f016020809104026020016040519081016040528092919081815260200182805462002bee9062004618565b801562002c3f5780601f1062002c135761010080835404028352916020019162002c3f565b820191906000526020600020905b81548152906001019060200180831162002c2157829003601f168201915b505050505081565b6000546001600160a01b0316331462002c735760405163344c21f360e11b815260040160405180910390fd5b600955565b60025460009062001637908490849062003a88565b6010546040516060916001600160a01b03169060009062002cb16020820162003e3e565b818103601f199081018352601f909101166040818152600e54600f546001600160a01b039182166024850152166044830152306064808401919091528151808403909101815260849092018152602080830180516001600160e01b031663184b955960e01b1790529051929350909160009162002d3391869185910162004803565b6040516020818303038152906040529050828160405160200162002d5992919062004829565b60405160208183030381529060405294505050505090565b600082600019048411830215820262002d925763ad251c276000526004601cfd5b5091020490565b60008051602062004f7e83398151915280546001190162002dcd57604051633ee5aeb560e01b815260040160405180910390fd5b60029055565b6000808260000362002df85760405163360495bf60e11b815260040160405180910390fd5b600085815260126020908152604080832033845260020190915290205483111562002e365760405163e5e7340760e01b815260040160405180910390fd5b60008581526012602052604081206001015462002e55908590620045a1565b60045490915081101562002e845760405163f89b912f60e01b8152600481018290526024015b60405180910390fd5b600080600062002e95878a62001329565b9350935093505062002f0189838562002eaf9190620045e7565b60008c81526012602052604090205462002eca9190620045a1565b60008c81526012602052604090206001015462002ee9908b90620045a1565b60009283526012602052604090922090815560010155565b62002f0e888a8962003ab8565b60008981526012602090815260408083206001600160a01b038c168085526002909101835292819020548151908152918201869052810189905260608101839052608081018b905233907f347ee37487f7d4fe0b4d3777823c6a71c110e3df43f4f3d35356cf6909e9abdb9060a00160405180910390a3509097909650945050505050565b8060000362002f9f5750565b6001546040516000916001600160a01b03169083908381818185875af1925050503d806000811462002fee576040519150601f19603f3d011682016040523d82523d6000602084013e62002ff3565b606091505b50509050806200301657604051636053f14b60e01b815260040160405180910390fd5b6001546040518381526001600160a01b039091169033907ffd2f5d3811ae7b8af2bd567683c6265c793894aa361eb932658effcf52d635a29060200160405180910390a35050565b600160008051602062004f7e83398151915255565b60008051602062004f5e8339815191525460ff1615620017915760405163d93c066560e01b815260040160405180910390fd5b6000806000604051806060016040528088815260200187815260200186815250905060005b6003811015620031c957818160038110620030ea57620030ea620045b7565b602002015115806200311657506011548282600381106200310f576200310f620045b7565b6020020151115b156200315357818160038110620031315762003131620045b7565b6020020151604051630c69720360e01b815260040162002e7b91815260200190565b620031778282600381106200316c576200316c620045b7565b602002015162001eae565b15620031b457818160038110620031925762003192620045b7565b602002015160405163104c97c760e21b815260040162002e7b91815260200190565b80620031c081620047b8565b915050620030cb565b506040805160208082018a9052818301899052606080830189905283518084039091018152608090920183528151918101919091206000818152601790925291902054156200323d57604051632cdeb83960e21b815260048101899052602481018890526044810187905260640162002e7b565b60006200324962001251565b620032559087620045a1565b905060006200326362003b57565b905060006200327383836200163e565b90506000620032838285620045a1565b905082601760008781526020019081526020016000208190555060405180606001604052808d81526020018c81526020018b81525060166000858152602001908152602001600020906003620032db92919062003e4c565b506000838152601860205260408120805460ff1916600117905562003301828562002731565b90506200331b8433620033158486620045a1565b62003b76565b80156200332f576200332f8433836200398c565b60005b6003811015620033c5576000888260038110620033535762003353620045b7565b60200201519050620033af816003600a600101546200337391906200457e565b6000848152601260205260409020546200338e9190620045e7565b60008481526012602052604080822060019081015494835291209182550155565b5080620033bc81620047b8565b91505062003332565b50604080518e8152602081018e90529081018c90526060810185905233907f950bffece137ec4b4173970288bc78f45d30d77c58e0e87e6b210599a9ddc8f39060800160405180910390a250919b909a5098505050505050505050565b6200342c62003cf3565b60008051602062004f5e833981519152805460ff191681557f5db9ee0a495bf2e6ff9c91a7834c1ba4fdd244a5e8aa4e537bd38aeae4b073aa335b6040516001600160a01b03909116815260200160405180910390a150565b6000620034938284620020e8565b600003620034b45760405163360495bf60e11b815260040160405180910390fd5b600080600080620034c6868862001f0f565b935093509350935060008411620034f057604051633da77bd160e21b815260040160405180910390fd5b60008781526012602052604090205483906200353490899062003515908890620045e7565b60008b81526012602052604090206001015462002ee9908590620045e7565b6200354189898662003d25565b60008881526012602090815260408083206001600160a01b038d168085526002909101835292819020548151908152918201869052810186905260608101849052608081018a905233907f354721bce0f1b29ebf3646e2e2c6d15259383d9493f4bb62300f579d2ad576929060a00160405180910390a35091979650505050505050565b620035cf62003d66565b6200179162003db0565b620035e362003d66565b6200179162003dba565b60055460009081908411156200361657604051636455344360e01b815260040160405180910390fd5b600062003622620014d8565b905060008686604051620036389291906200485c565b6040518091039020905060156000828152602001908152602001600020546000146200367d578686604051632d215baf60e21b815260040162002e7b92919062004895565b60006200368b8387620045a1565b905060006200369962003b57565b90506000620036a983836200163e565b90506000620036b98285620045a1565b9050620036c883338362003b76565b6000620036d58462001119565b9050620036e9848260086000015462003b76565b6000848152601460205260409020620037048c8e83620048ab565b50836015600088815260200190815260200160002081905550806001600160a01b0316336001600160a01b03167f8a016c336f3624ae541c0b00d83a02b05ed2ecbb29874e15881766f51aa323e08e8e88604051620037669392919062004978565b60405180910390a350919a909950975050505050505050565b6000818152601a6020526040808220815160608101909252805482908290620037a89062004618565b80601f0160208091040260200160405190810160405280929190818152602001828054620037d69062004618565b8015620038275780601f10620037fb5761010080835404028352916020019162003827565b820191906000526020600020905b8154815290600101906020018083116200380957829003601f168201915b5050509183525050600182015460208083019190915260029092015460ff1615156040909101528101519091506000036200387557604051630268c8ed60e51b815260040160405180910390fd5b8060400151156200389957604051631647946960e11b815260040160405180910390fd5b4281602001511115620038bf57604051635423118360e01b815260040160405180910390fd5b5050565b620038cd62003073565b60008051602062004f5e833981519152805460ff191660011781557f62e78cea01bee320cd4e420270b5ea74000d11b0c9f74754ebdbfc544b05a2583362003467565b60006200391d8362001eae565b6200393b57604051632abf634360e01b815260040160405180910390fd5b60006012816200394e86600019620045a1565b81526020019081526020016000206002016000846001600160a01b03166001600160a01b031681526020019081526020016000205411905092915050565b6200399662003dde565b620039a18462001193565b6040840152602083015281526000620039bc6003846200457e565b905060005b600381101562003a80576000620039f386858460038110620039e757620039e7620045b7565b60200201518562003485565b600088815260196020526040812091925082919086856003811062003a1c5762003a1c620045b7565b602002015181526020019081526020016000206000886001600160a01b03166001600160a01b03168152602001908152602001600020600082825462003a639190620045e7565b9091555082915062003a77905081620047b8565b915050620039c1565b505050505050565b600082600019048411830215820262003aa95763ad251c276000526004601cfd5b50910281810615159190040190565b6001600160a01b03831662003ae057604051639d3907e360e01b815260040160405180910390fd5b60008281526012602090815260408083206001600160a01b03871684526002019091529020548181101562003b2857604051634e9cc70f60e11b815260040160405180910390fd5b60009283526012602090815260408085206001600160a01b039096168552600290950190529290912091039055565b60008060116000815462003b6b90620047b8565b918290555092915050565b600062003b838462001119565b6004546001600160a01b038581169216919091149150808360008462003bb55762003baf8483620045e7565b62003bb7565b815b60008981526012602052604090205490915062003bdd90899062003515908490620045e7565b62003bea87898462003d25565b8462003bfe5762003bfe6000898662003d25565b62003c098862001eae565b1562003c7157600062003c1c8962002712565b60008181526012602052604090205490915062003c6190829062003c42908790620045e7565b60008481526012602052604090206001015462002ee9908990620045e7565b62003c6f6000828762003d25565b505b60008881526012602090815260408083206001600160a01b038b16808552600290910183528184205482519081529283018a90529082018490526060820192909252608081018a905233907f354721bce0f1b29ebf3646e2e2c6d15259383d9493f4bb62300f579d2ad576929060a00160405180910390a35050505050505050565b60008051602062004f5e8339815191525460ff166200179157604051638dfc202b60e01b815260040160405180910390fd5b60008281526012602090815260408083206001600160a01b03871684526002019091528120805483929062003d5c908490620045e7565b9091555050505050565b7ff0c57e16840df040f15088dc2f81fe391c3923bec73e23a9662efc9c229c6a0054600160401b900460ff166200179157604051631afcd79f60e31b815260040160405180910390fd5b6200305e62003d66565b62003dc462003d66565b60008051602062004f5e833981519152805460ff19169055565b60405180606001604052806003906020820280368337509192915050565b50805462003e0a9062004618565b6000825580601f1062003e1b575050565b601f01602090049060005260206000209081019062003e3b919062003e8f565b50565b6105bf806200499f83390190565b826003810192821562003e7d579160200282015b8281111562003e7d57825182559160200191906001019062003e60565b5062003e8b92915062003e8f565b5090565b5b8082111562003e8b576000815560010162003e90565b6001600160a01b038116811462003e3b57600080fd5b8035620028fd8162003ea6565b60006020828403121562003edc57600080fd5b8135620016378162003ea6565b6000806040838503121562003efd57600080fd5b50508035926020909101359150565b60006020828403121562003f1f57600080fd5b5035919050565b60008060006060848603121562003f3c57600080fd5b83359250602084013562003f508162003ea6565b929592945050506040919091013590565b60008060006060848603121562003f7757600080fd5b505081359360208301359350604090920135919050565b6000806040838503121562003fa257600080fd5b823562003faf8162003ea6565b946020939093013593505050565b60008083601f84011262003fd057600080fd5b5081356001600160401b0381111562003fe857600080fd5b6020830191508360208285010111156200227e57600080fd5b6000806000604084860312156200401757600080fd5b8335925060208401356001600160401b038111156200403557600080fd5b620040438682870162003fbd565b9497909650939450505050565b634e487b7160e01b600052604160045260246000fd5b60405161010081016001600160401b03811182821017156200408c576200408c62004050565b60405290565b600060408284031215620040a557600080fd5b604051604081018181106001600160401b0382111715620040ca57620040ca62004050565b604052823581526020928301359281019290925250919050565b600060608284031215620040f757600080fd5b604051606081018181106001600160401b03821117156200411c576200411c62004050565b80604052508091508235815260208301356020820152604083013560408201525092915050565b6000608082840312156200415657600080fd5b604051608081018181106001600160401b03821117156200417b576200417b62004050565b60405290508082356200418e8162003ea6565b81526020830135620041a08162003ea6565b60208201526040830135620041b58162003ea6565b60408201526060830135620041ca8162003ea6565b6060919091015292915050565b6000806000806000858703610280811215620041f257600080fd5b610100808212156200420357600080fd5b6200420d62004066565b915087356200421c8162003ea6565b82526200422c6020890162003ebc565b602083015260408801356040830152606088013560608301526080880135608083015260a088013560a083015260c088013560c083015260e088013560e08301528196506200427e89828a0162004092565b9550505062004292876101408801620040e4565b9250620042a4876101a0880162004143565b9150620042b6876102208801620040e4565b90509295509295909350565b60008083601f840112620042d557600080fd5b5081356001600160401b03811115620042ed57600080fd5b6020830191508360208260051b85010111156200227e57600080fd5b600080602083850312156200431d57600080fd5b82356001600160401b038111156200433457600080fd5b6200434285828601620042c2565b90969095509350505050565b6020808252825182820181905260009190848201906040850190845b81811015620020f7578351835292840192918401916001016200436a565b600080604083850312156200439c57600080fd5b823591506020830135620043b08162003ea6565b809150509250929050565b60008060008060008060608789031215620043d557600080fd5b86356001600160401b0380821115620043ed57600080fd5b620043fb8a838b01620042c2565b909850965060208901359150808211156200441557600080fd5b620044238a838b01620042c2565b909650945060408901359150808211156200443d57600080fd5b506200444c89828a01620042c2565b979a9699509497509295939492505050565b60005b838110156200447b57818101518382015260200162004461565b50506000910152565b600081518084526200449e8160208601602086016200445e565b601f01601f19169290920160200192915050565b606081526000620044c7606083018662004484565b602083019490945250901515604090910152919050565b600080600060608486031215620044f457600080fd5b833592506020840135915060408401356200450f8162003ea6565b809150509250925092565b600080602083850312156200452e57600080fd5b82356001600160401b038111156200454557600080fd5b620043428582860162003fbd565b60208152600062001637602083018462004484565b634e487b7160e01b600052601160045260246000fd5b6000826200459c57634e487b7160e01b600052601260045260246000fd5b500490565b8181038181111562001113576200111362004568565b634e487b7160e01b600052603260045260246000fd5b808202811582820484141762001113576200111362004568565b8082018082111562001113576200111362004568565b84815282846020830137602092019182015260400192915050565b600181811c908216806200462d57607f821691505b6020821081036200464e57634e487b7160e01b600052602260045260246000fd5b50919050565b601f8211156200469e57600081815260208120601f850160051c810160208610156200467d5750805b601f850160051c820191505b8181101562003a805782815560010162004689565b505050565b81516001600160401b03811115620046bf57620046bf62004050565b620046d781620046d0845462004618565b8462004654565b602080601f8311600181146200470f5760008415620046f65750858301515b600019600386901b1c1916600185901b17855562003a80565b600085815260208120601f198616915b8281101562004740578886015182559484019460019091019084016200471f565b50858210156200475f5787850151600019600388901b60f8161c191681555b5050505050600190811b01905550565b6000808335601e198436030181126200478757600080fd5b8301803591506001600160401b03821115620047a257600080fd5b6020019150368190038213156200227e57600080fd5b600060018201620047cd57620047cd62004568565b5060010190565b83815260008351620047ee8160208501602088016200445e565b60209201918201929092526040019392505050565b6001600160a01b03831681526040602082018190526000906200275d9083018462004484565b600083516200483d8184602088016200445e565b835190830190620048538183602088016200445e565b01949350505050565b8183823760009101908152919050565b81835281816020850137506000828201602090810191909152601f909101601f19169091010190565b6020815260006200275d6020830184866200486c565b6001600160401b03831115620048c557620048c562004050565b620048dd83620048d6835462004618565b8362004654565b6000601f841160018114620049145760008515620048fb5750838201355b600019600387901b1c1916600186901b17835562004971565b600083815260209020601f19861690835b8281101562004947578685013582556020948501946001909201910162004925565b5086821015620049655760001960f88860031b161c19848701351681555b505060018560011b0183555b5050505050565b6040815260006200498e6040830185876200486c565b905082602083015294935050505056fe60a06040526040516105bf3803806105bf83398101604081905261002291610387565b61002c828261003e565b506001600160a01b031660805261047e565b610047826100fe565b6040516001600160a01b038316907f1cf3b03a6cf19fa2baba4df148e9dcabedea7f8a5c07840e207e5c089be95d3e90600090a28051156100f2576100ed826001600160a01b0316635c60da1b6040518163ffffffff1660e01b8152600401602060405180830381865afa1580156100c3573d6000803e3d6000fd5b505050506040513d601f19601f820116820180604052508101906100e79190610447565b82610211565b505050565b6100fa610288565b5050565b806001600160a01b03163b60000361013957604051631933b43b60e21b81526001600160a01b03821660048201526024015b60405180910390fd5b807fa3f0ad74e5423aebfd80d3ef4346578335a9a72aeaee59ff6cb3582b35133d5080546001600160a01b0319166001600160a01b0392831617905560408051635c60da1b60e01b81529051600092841691635c60da1b9160048083019260209291908290030181865afa1580156101b5573d6000803e3d6000fd5b505050506040513d601f19601f820116820180604052508101906101d99190610447565b9050806001600160a01b03163b6000036100fa57604051634c9c8ce360e01b81526001600160a01b0382166004820152602401610130565b6060600080846001600160a01b03168460405161022e9190610462565b600060405180830381855af49150503d8060008114610269576040519150601f19603f3d011682016040523d82523d6000602084013e61026e565b606091505b50909250905061027f8583836102a9565b95945050505050565b34156102a75760405163b398979f60e01b815260040160405180910390fd5b565b6060826102be576102b982610308565b610301565b81511580156102d557506001600160a01b0384163b155b156102fe57604051639996b31560e01b81526001600160a01b0385166004820152602401610130565b50805b9392505050565b8051156103185780518082602001fd5b604051630a12f52160e11b815260040160405180910390fd5b80516001600160a01b038116811461034857600080fd5b919050565b634e487b7160e01b600052604160045260246000fd5b60005b8381101561037e578181015183820152602001610366565b50506000910152565b6000806040838503121561039a57600080fd5b6103a383610331565b60208401519092506001600160401b03808211156103c057600080fd5b818501915085601f8301126103d457600080fd5b8151818111156103e6576103e661034d565b604051601f8201601f19908116603f0116810190838211818310171561040e5761040e61034d565b8160405282815288602084870101111561042757600080fd5b610438836020830160208801610363565b80955050505050509250929050565b60006020828403121561045957600080fd5b61030182610331565b60008251610474818460208701610363565b9190910192915050565b6080516101276104986000396000601e01526101276000f3fe6080604052600a600c565b005b60186014601a565b60a0565b565b60007f00000000000000000000000000000000000000000000000000000000000000006001600160a01b0316635c60da1b6040518163ffffffff1660e01b8152600401602060405180830381865afa1580156079573d6000803e3d6000fd5b505050506040513d601f19601f82011682018060405250810190609b919060c3565b905090565b3660008037600080366000845af43d6000803e80801560be573d6000f35b3d6000fd5b60006020828403121560d457600080fd5b81516001600160a01b038116811460ea57600080fd5b939250505056fea26469706673582212202b4383a0721e8179dcf554ff03ffd6c7573e24a63306bd4f292df84633dc601f64736f6c63430008150033cd5ed15c6e187e77e9aee88184c21f4f2182ab5827cb3b7e07fbedcd63f033009b779b17422d0df92223018b32b4d1fa46e071723d6817e2486d003becc55f00a26469706673582212201b5e20ba0d98580cea6820754e6fd392d6e7aea28ef6cf7f31de0fbea814a81064736f6c63430008150033",
    "linkReferences": {}
  },
  "methodIdentifiers": {
    "SET_ADMIN()": "4d592c6a",
    "SET_EXIT_FEE()": "90855592",
    "atomConfig()": "7f833f04",
    "atomDepositFractionAmount(uint256,uint256)": "c26388e3",
    "atoms(uint256)": "f315a94e",
    "atomsByHash(bytes32)": "e3b764af",
    "batchCreateAtom(bytes[])": "65f64685",
    "batchCreateTriple(uint256[],uint256[],uint256[])": "8daf7443",
    "cancelOperation(bytes32,bytes)": "de3cca60",
    "computeAtomWalletAddr(uint256)": "0ac819db",
    "convertToAssets(uint256,uint256)": "181e7b3b",
    "convertToShares(uint256,uint256)": "db2088f4",
    "count()": "06661abd",
    "createAtom(bytes)": "f10c9f9b",
    "createTriple(uint256,uint256,uint256)": "39c4f49c",
    "currentSharePrice(uint256)": "ee9dd98f",
    "deployAtomWallet(uint256)": "dc5adb8c",
    "depositAtom(address,uint256)": "441d1c2f",
    "depositTriple(address,uint256)": "859aa971",
    "entryFeeAmount(uint256,uint256)": "04c89bc6",
    "exitFeeAmount(uint256,uint256)": "ae0a1542",
    "generalConfig()": "927a97a1",
    "getAtomCost()": "33332d39",
    "getAtomWarden()": "84e100db",
    "getCounterIdFromTriple(uint256)": "bb7dd379",
    "getDepositFees(uint256,uint256)": "a4ddc786",
    "getDepositSharesAndFees(uint256,uint256)": "67ab7594",
    "getRedeemAssetsAndFees(uint256,uint256)": "1d35900a",
    "getTripleAtoms(uint256)": "0cde801b",
    "getTripleCost()": "0d65c91c",
    "getVaultStateForUser(uint256,address)": "89065256",
    "init((address,address,uint256,uint256,uint256,uint256,uint256,uint256),(uint256,uint256),(uint256,uint256,uint256),(address,address,address,address),(uint256,uint256,uint256))": "61d2a657",
    "isTriple(uint256)": "c61703ac",
    "isTripleId(uint256)": "66e34a33",
    "maxRedeem(address,uint256)": "4abe4137",
    "pause()": "8456cb59",
    "paused()": "5c975abb",
    "previewDeposit(uint256,uint256)": "7a7af70d",
    "previewRedeem(uint256,uint256)": "bbec4d06",
    "protocolFeeAmount(uint256,uint256)": "39a38449",
    "redeemAtom(uint256,address,uint256)": "3800c5c4",
    "redeemTriple(uint256,address,uint256)": "b790e672",
    "scheduleOperation(bytes32,bytes)": "56d54d68",
    "setAdmin(address)": "704b6c02",
    "setAtomCreationProtocolFee(uint256)": "f903ff72",
    "setAtomDepositFractionForTriple(uint256)": "ab238565",
    "setAtomUriMaxLength(uint256)": "340a2812",
    "setAtomWalletInitialDepositAmount(uint256)": "2dd42644",
    "setAtomWarden(address)": "001fc87d",
    "setEntryFee(uint256,uint256)": "5408eec9",
    "setExitFee(uint256,uint256)": "9f49b60e",
    "setMinDeposit(uint256)": "8fcc9cfb",
    "setMinShare(uint256)": "2a22fec5",
    "setProtocolFee(uint256,uint256)": "240de277",
    "setProtocolVault(address)": "39c5dec7",
    "setTripleCreationProtocolFee(uint256)": "6cc18d40",
    "timelocks(bytes32)": "c9ceddb8",
    "tripleAtomShares(uint256,uint256,address)": "db04a47c",
    "tripleConfig()": "1e19e2c8",
    "tripleHash(uint256)": "13aaab97",
    "tripleHashFromAtoms(uint256,uint256,uint256)": "7c373661",
    "triples(uint256,uint256)": "cfc15f15",
    "triplesByHash(bytes32)": "59b125d2",
    "unpause()": "3f4ba83a",
    "vaultFees(uint256)": "22061379",
    "vaults(uint256)": "8c64ea4a",
    "walletConfig()": "d34ddc05"
  },
  "storageLayout": {
    "storage": [
      {
        "astId": 49426,
        "contract": "src/EthMultiVault.sol:EthMultiVault",
        "label": "generalConfig",
        "offset": 0,
        "slot": "0",
        "type": "t_struct(GeneralConfig)52687_storage"
      },
      {
        "astId": 49429,
        "contract": "src/EthMultiVault.sol:EthMultiVault",
        "label": "atomConfig",
        "offset": 0,
        "slot": "8",
        "type": "t_struct(AtomConfig)52694_storage"
      },
      {
        "astId": 49432,
        "contract": "src/EthMultiVault.sol:EthMultiVault",
        "label": "tripleConfig",
        "offset": 0,
        "slot": "10",
        "type": "t_struct(TripleConfig)52704_storage"
      },
      {
        "astId": 49435,
        "contract": "src/EthMultiVault.sol:EthMultiVault",
        "label": "walletConfig",
        "offset": 0,
        "slot": "13",
        "type": "t_struct(WalletConfig)52718_storage"
      },
      {
        "astId": 49438,
        "contract": "src/EthMultiVault.sol:EthMultiVault",
        "label": "count",
        "offset": 0,
        "slot": "17",
        "type": "t_uint256"
      },
      {
        "astId": 49454,
        "contract": "src/EthMultiVault.sol:EthMultiVault",
        "label": "vaults",
        "offset": 0,
        "slot": "18",
        "type": "t_mapping(t_uint256,t_struct(VaultState)52727_storage)"
      },
      {
        "astId": 49460,
        "contract": "src/EthMultiVault.sol:EthMultiVault",
        "label": "vaultFees",
        "offset": 0,
        "slot": "19",
        "type": "t_mapping(t_uint256,t_struct(VaultFees)52734_storage)"
      },
      {
        "astId": 49465,
        "contract": "src/EthMultiVault.sol:EthMultiVault",
        "label": "atoms",
        "offset": 0,
        "slot": "20",
        "type": "t_mapping(t_uint256,t_bytes_storage)"
      },
      {
        "astId": 49469,
        "contract": "src/EthMultiVault.sol:EthMultiVault",
        "label": "atomsByHash",
        "offset": 0,
        "slot": "21",
        "type": "t_mapping(t_bytes32,t_uint256)"
      },
      {
        "astId": 49475,
        "contract": "src/EthMultiVault.sol:EthMultiVault",
        "label": "triples",
        "offset": 0,
        "slot": "22",
        "type": "t_mapping(t_uint256,t_array(t_uint256)3_storage)"
      },
      {
        "astId": 49479,
        "contract": "src/EthMultiVault.sol:EthMultiVault",
        "label": "triplesByHash",
        "offset": 0,
        "slot": "23",
        "type": "t_mapping(t_bytes32,t_uint256)"
      },
      {
        "astId": 49483,
        "contract": "src/EthMultiVault.sol:EthMultiVault",
        "label": "isTriple",
        "offset": 0,
        "slot": "24",
        "type": "t_mapping(t_uint256,t_bool)"
      },
      {
        "astId": 49492,
        "contract": "src/EthMultiVault.sol:EthMultiVault",
        "label": "tripleAtomShares",
        "offset": 0,
        "slot": "25",
        "type": "t_mapping(t_uint256,t_mapping(t_uint256,t_mapping(t_address,t_uint256)))"
      },
      {
        "astId": 49498,
        "contract": "src/EthMultiVault.sol:EthMultiVault",
        "label": "timelocks",
        "offset": 0,
        "slot": "26",
        "type": "t_mapping(t_bytes32,t_struct(Timelock)52742_storage)"
      }
    ],
    "types": {
      "t_address": {
        "encoding": "inplace",
        "label": "address",
        "numberOfBytes": "20"
      },
      "t_array(t_uint256)3_storage": {
        "encoding": "inplace",
        "label": "uint256[3]",
        "numberOfBytes": "96",
        "base": "t_uint256"
      },
      "t_bool": {
        "encoding": "inplace",
        "label": "bool",
        "numberOfBytes": "1"
      },
      "t_bytes32": {
        "encoding": "inplace",
        "label": "bytes32",
        "numberOfBytes": "32"
      },
      "t_bytes_storage": {
        "encoding": "bytes",
        "label": "bytes",
        "numberOfBytes": "32"
      },
      "t_contract(IPermit2)53318": {
        "encoding": "inplace",
        "label": "contract IPermit2",
        "numberOfBytes": "20"
      },
      "t_mapping(t_address,t_uint256)": {
        "encoding": "mapping",
        "key": "t_address",
        "label": "mapping(address => uint256)",
        "numberOfBytes": "32",
        "value": "t_uint256"
      },
      "t_mapping(t_bytes32,t_struct(Timelock)52742_storage)": {
        "encoding": "mapping",
        "key": "t_bytes32",
        "label": "mapping(bytes32 => struct IEthMultiVault.Timelock)",
        "numberOfBytes": "32",
        "value": "t_struct(Timelock)52742_storage"
      },
      "t_mapping(t_bytes32,t_uint256)": {
        "encoding": "mapping",
        "key": "t_bytes32",
        "label": "mapping(bytes32 => uint256)",
        "numberOfBytes": "32",
        "value": "t_uint256"
      },
      "t_mapping(t_uint256,t_array(t_uint256)3_storage)": {
        "encoding": "mapping",
        "key": "t_uint256",
        "label": "mapping(uint256 => uint256[3])",
        "numberOfBytes": "32",
        "value": "t_array(t_uint256)3_storage"
      },
      "t_mapping(t_uint256,t_bool)": {
        "encoding": "mapping",
        "key": "t_uint256",
        "label": "mapping(uint256 => bool)",
        "numberOfBytes": "32",
        "value": "t_bool"
      },
      "t_mapping(t_uint256,t_bytes_storage)": {
        "encoding": "mapping",
        "key": "t_uint256",
        "label": "mapping(uint256 => bytes)",
        "numberOfBytes": "32",
        "value": "t_bytes_storage"
      },
      "t_mapping(t_uint256,t_mapping(t_address,t_uint256))": {
        "encoding": "mapping",
        "key": "t_uint256",
        "label": "mapping(uint256 => mapping(address => uint256))",
        "numberOfBytes": "32",
        "value": "t_mapping(t_address,t_uint256)"
      },
      "t_mapping(t_uint256,t_mapping(t_uint256,t_mapping(t_address,t_uint256)))": {
        "encoding": "mapping",
        "key": "t_uint256",
        "label": "mapping(uint256 => mapping(uint256 => mapping(address => uint256)))",
        "numberOfBytes": "32",
        "value": "t_mapping(t_uint256,t_mapping(t_address,t_uint256))"
      },
      "t_mapping(t_uint256,t_struct(VaultFees)52734_storage)": {
        "encoding": "mapping",
        "key": "t_uint256",
        "label": "mapping(uint256 => struct IEthMultiVault.VaultFees)",
        "numberOfBytes": "32",
        "value": "t_struct(VaultFees)52734_storage"
      },
      "t_mapping(t_uint256,t_struct(VaultState)52727_storage)": {
        "encoding": "mapping",
        "key": "t_uint256",
        "label": "mapping(uint256 => struct IEthMultiVault.VaultState)",
        "numberOfBytes": "32",
        "value": "t_struct(VaultState)52727_storage"
      },
      "t_struct(AtomConfig)52694_storage": {
        "encoding": "inplace",
        "label": "struct IEthMultiVault.AtomConfig",
        "numberOfBytes": "64",
        "members": [
          {
            "astId": 52690,
            "contract": "src/EthMultiVault.sol:EthMultiVault",
            "label": "atomWalletInitialDepositAmount",
            "offset": 0,
            "slot": "0",
            "type": "t_uint256"
          },
          {
            "astId": 52693,
            "contract": "src/EthMultiVault.sol:EthMultiVault",
            "label": "atomCreationProtocolFee",
            "offset": 0,
            "slot": "1",
            "type": "t_uint256"
          }
        ]
      },
      "t_struct(GeneralConfig)52687_storage": {
        "encoding": "inplace",
        "label": "struct IEthMultiVault.GeneralConfig",
        "numberOfBytes": "256",
        "members": [
          {
            "astId": 52665,
            "contract": "src/EthMultiVault.sol:EthMultiVault",
            "label": "admin",
            "offset": 0,
            "slot": "0",
            "type": "t_address"
          },
          {
            "astId": 52668,
            "contract": "src/EthMultiVault.sol:EthMultiVault",
            "label": "protocolVault",
            "offset": 0,
            "slot": "1",
            "type": "t_address"
          },
          {
            "astId": 52671,
            "contract": "src/EthMultiVault.sol:EthMultiVault",
            "label": "feeDenominator",
            "offset": 0,
            "slot": "2",
            "type": "t_uint256"
          },
          {
            "astId": 52674,
            "contract": "src/EthMultiVault.sol:EthMultiVault",
            "label": "minDeposit",
            "offset": 0,
            "slot": "3",
            "type": "t_uint256"
          },
          {
            "astId": 52677,
            "contract": "src/EthMultiVault.sol:EthMultiVault",
            "label": "minShare",
            "offset": 0,
            "slot": "4",
            "type": "t_uint256"
          },
          {
            "astId": 52680,
            "contract": "src/EthMultiVault.sol:EthMultiVault",
            "label": "atomUriMaxLength",
            "offset": 0,
            "slot": "5",
            "type": "t_uint256"
          },
          {
            "astId": 52683,
            "contract": "src/EthMultiVault.sol:EthMultiVault",
            "label": "decimalPrecision",
            "offset": 0,
            "slot": "6",
            "type": "t_uint256"
          },
          {
            "astId": 52686,
            "contract": "src/EthMultiVault.sol:EthMultiVault",
            "label": "minDelay",
            "offset": 0,
            "slot": "7",
            "type": "t_uint256"
          }
        ]
      },
      "t_struct(Timelock)52742_storage": {
        "encoding": "inplace",
        "label": "struct IEthMultiVault.Timelock",
        "numberOfBytes": "96",
        "members": [
          {
            "astId": 52737,
            "contract": "src/EthMultiVault.sol:EthMultiVault",
            "label": "data",
            "offset": 0,
            "slot": "0",
            "type": "t_bytes_storage"
          },
          {
            "astId": 52739,
            "contract": "src/EthMultiVault.sol:EthMultiVault",
            "label": "readyTime",
            "offset": 0,
            "slot": "1",
            "type": "t_uint256"
          },
          {
            "astId": 52741,
            "contract": "src/EthMultiVault.sol:EthMultiVault",
            "label": "executed",
            "offset": 0,
            "slot": "2",
            "type": "t_bool"
          }
        ]
      },
      "t_struct(TripleConfig)52704_storage": {
        "encoding": "inplace",
        "label": "struct IEthMultiVault.TripleConfig",
        "numberOfBytes": "96",
        "members": [
          {
            "astId": 52697,
            "contract": "src/EthMultiVault.sol:EthMultiVault",
            "label": "tripleCreationProtocolFee",
            "offset": 0,
            "slot": "0",
            "type": "t_uint256"
          },
          {
            "astId": 52700,
            "contract": "src/EthMultiVault.sol:EthMultiVault",
            "label": "atomDepositFractionOnTripleCreation",
            "offset": 0,
            "slot": "1",
            "type": "t_uint256"
          },
          {
            "astId": 52703,
            "contract": "src/EthMultiVault.sol:EthMultiVault",
            "label": "atomDepositFractionForTriple",
            "offset": 0,
            "slot": "2",
            "type": "t_uint256"
          }
        ]
      },
      "t_struct(VaultFees)52734_storage": {
        "encoding": "inplace",
        "label": "struct IEthMultiVault.VaultFees",
        "numberOfBytes": "96",
        "members": [
          {
            "astId": 52729,
            "contract": "src/EthMultiVault.sol:EthMultiVault",
            "label": "entryFee",
            "offset": 0,
            "slot": "0",
            "type": "t_uint256"
          },
          {
            "astId": 52731,
            "contract": "src/EthMultiVault.sol:EthMultiVault",
            "label": "exitFee",
            "offset": 0,
            "slot": "1",
            "type": "t_uint256"
          },
          {
            "astId": 52733,
            "contract": "src/EthMultiVault.sol:EthMultiVault",
            "label": "protocolFee",
            "offset": 0,
            "slot": "2",
            "type": "t_uint256"
          }
        ]
      },
      "t_struct(VaultState)52727_storage": {
        "encoding": "inplace",
        "label": "struct IEthMultiVault.VaultState",
        "numberOfBytes": "96",
        "members": [
          {
            "astId": 52720,
            "contract": "src/EthMultiVault.sol:EthMultiVault",
            "label": "totalAssets",
            "offset": 0,
            "slot": "0",
            "type": "t_uint256"
          },
          {
            "astId": 52722,
            "contract": "src/EthMultiVault.sol:EthMultiVault",
            "label": "totalShares",
            "offset": 0,
            "slot": "1",
            "type": "t_uint256"
          },
          {
            "astId": 52726,
            "contract": "src/EthMultiVault.sol:EthMultiVault",
            "label": "balanceOf",
            "offset": 0,
            "slot": "2",
            "type": "t_mapping(t_address,t_uint256)"
          }
        ]
      },
      "t_struct(WalletConfig)52718_storage": {
        "encoding": "inplace",
        "label": "struct IEthMultiVault.WalletConfig",
        "numberOfBytes": "128",
        "members": [
          {
            "astId": 52708,
            "contract": "src/EthMultiVault.sol:EthMultiVault",
            "label": "permit2",
            "offset": 0,
            "slot": "0",
            "type": "t_contract(IPermit2)53318"
          },
          {
            "astId": 52711,
            "contract": "src/EthMultiVault.sol:EthMultiVault",
            "label": "entryPoint",
            "offset": 0,
            "slot": "1",
            "type": "t_address"
          },
          {
            "astId": 52714,
            "contract": "src/EthMultiVault.sol:EthMultiVault",
            "label": "atomWarden",
            "offset": 0,
            "slot": "2",
            "type": "t_address"
          },
          {
            "astId": 52717,
            "contract": "src/EthMultiVault.sol:EthMultiVault",
            "label": "atomWalletBeacon",
            "offset": 0,
            "slot": "3",
            "type": "t_address"
          }
        ]
      },
      "t_uint256": {
        "encoding": "inplace",
        "label": "uint256",
        "numberOfBytes": "32"
      }
    }
  },
  "id": 52
}